:020000040800F2
:100000000004002091010008936D0008930100088E
:100010009301000893010008930100089301000870
:100020009301000893010008930100089301000860
:100030009301000893010008930100089301000850
:100040009301000893010008930100089301000840
:100050009301000893010008930100089301000830
:100060009301000893010008930100089301000820
:10007000930100089301000893010008897A0008A1
:100080009301000893010008930100089301000800
:1000900093010008930100089301000893010008F0
:1000A00093010008930100089301000893010008E0
:1000B000930100089301000893010008D17A000819
:1000C00072B6244880F30888234880F30988022008
:1000D00080F31488BFF36F8F06F074FB06F058F9B5
:1000E0001E481F491B4A914202DA08600431FAE7B0
:1000F0001C49194A914202DA08600431FAE71A49A8
:100100001A4A1B4B9A4204DA086810600431043220
:10011000F8E700201749184A914202DA08600431D2
:10012000FAE706F053FB06F04EFB144C144DAC42BC
:1001300003DA216888470434F9E702F039FB114CEF
:10014000114DAC4203DA216888470434F9E70F49BE
:100150000847000000040020000C002055555555AC
:100160000000002000040020B88D0008000C0020D2
:10017000980D0020980D0020782C0020C000000869
:10018000C0000008C0000008C0000008C9670008DF
:1001900096E700F000F8FEE7F0B544464D465646B7
:1001A0005F46F0B46B46CB60C3689D46F0BCA0468A
:1001B000A946B246BB46F0BD62B6281CA047002047
:1001C00006F064FDFEE706F0D5FC024A024B136020
:1001D000FEE7C04604ED00E00000008002B4714676
:1001E00049084900095649008E4402BC7047C04680
:1001F00002B4714649084900095C49008E4402BCBA
:100200007047C04603B47146490840004900095E82
:1002100049008E4403BC704703B47146490840004E
:100220004900095A49008E4403BC7047002934D064
:100230000123002210B488422CD301242407A142B8
:1002400004D2814202D209011B01F8E7E400A14275
:1002500004D2814202D249005B00F8E7884201D310
:10026000401A1A434C08A04202D3001B5C082243E8
:100270008C08A04202D3001B9C082243CC08A04259
:1002800002D3001BDC082243002803D01B0901D045
:100290000909E3E7100010BC704701B5002000F029
:1002A0005FF802BD0029F8D003B5FFF7C1FF0EBC0F
:1002B0004243891A1847C046002941D010B40400AF
:1002C0004C40A44601230022002900D549420028C1
:1002D00000D5404288422CD301242407A14204D2F5
:1002E000814202D209011B01F8E7E400A14204D2D5
:1002F000814202D249005B00F8E7884201D3401AEC
:100300001A434C08A04202D3001B5C0822438C080D
:10031000A04202D3001B9C082243CC08A04202D377
:10032000001BDC082243002803D01B0901D0090967
:10033000E3E710006446002C00D5404210BC704733
:1003400001B5002000F00CF802BDC0460029F7D02E
:1003500003B5FFF7B3FF0EBC4243891A1847C046E6
:100360007047C046002B11D1002A0FD1002900D1BF
:10037000002802D00021C943080007B4024802A1A6
:100380004018029003BDC046D9FFFFFF03B4684682
:1003900001B5029807F0BEFE019B9E4602B00CBC60
:1003A0007047C046D0400B00D1409C46203AD34015
:1003B00018435242634693401843704791400300EC
:1003C00090409C46203A9340194352426346D340A2
:1003D000194370471C2101231B04984201D3000CD0
:1003E00010391B0A984201D3000A08391B099842A8
:1003F00001D30009043902A2105C40187047C046BE
:1004000004030202010101010000000000000000DD
:1004100010B5002903D1FFF7DDFF203002E008000E
:10042000FFF7D8FF10BDC04630B5032A0CD9030032
:100430000B439B071CD103680C68A34218D1043AF4
:1004400004300431032AF6D8551E002A0ED0027853
:100450000C7894420ED101350123013904E0C25CCD
:100460000133CC5CA24205D1AB42F8D1002030BDB3
:10047000551EECE7101BFAE7F0B5C64600B50F2A8B
:1004800043D90B00032603431E400C000300002E3B
:1004900040D11500103D2D09AC462D01A8468044E1
:1004A00000E03B00676825685F60E7681D60DF600B
:1004B0001F00A56810379D6010344345F1D1654693
:1004C0000F230C2401352D014919134045191442FD
:1004D00023D08C59AC5104369C1B032CF9D803242F
:1004E000043B9B0801339B002240ED18C918561E9F
:1004F000002A07D0002300E02300CA5C5C1CEA54F9
:100500009E42F9D180BCB846F0BD0500561E002AB7
:10051000F0D1F7E7561E0500ECE71A00F6E7C046F3
:10052000F0B5050083074AD0541E002A44D0CEB24D
:100530000300032202E00135013C3DD301332E705C
:100540001342F8D1032C2FD9FF220A40150215437C
:100550002A0415430F2C35D92700103F3F093E01CF
:10056000B4461E001A00103666441560556095604A
:10057000D5601032B242F8D10F260C2201373F016C
:100580002640DB193700224217D03E1FB608B400C0
:10059000A4461A001C1D644420C2A242FCD10324BC
:1005A0000136B6009B193C40002C05D0C9B21C197D
:1005B000197001339C42FBD1F0BD3400F4E7140004
:1005C0000300BFE72700E0E704207047F822411E40
:1005D000FF39030010B500205201914218D2802249
:1005E00080210130FF3018409200441EA0411A4083
:1005F000C900DC040DD50001002A01D020221043DF
:100600000B4201D0402210431B0501D58023184323
:1006100010BDC0B2002A01D0022210430B4201D00B
:10062000042210431B05F3D50823F0E710B50C0096
:10063000FFF7CCFFA04710BD0300E03B10B504005E
:10064000072B02D90549002800D105492000FFF7F2
:10065000EDFFE0B200F0DCF910BDC0465D0B000814
:100660003D0B000810B50400C0B200F017FA2300DB
:10067000E03B072B02D90449002C00D1034920009C
:10068000FFF7D4FF10BDC0466D0B00084D0B0008EE
:10069000012070470120704710B5FFF7FBFF10BD28
:1006A000704710B5FFF7FCFF10BD000013B5104BED
:1006B00000901B78002B16D16B469B78002B0DD039
:1006C000002A0BD000F0AEFE04000100009800F0FC
:1006D00081FE2000009903F0D1FB16BD009800F0C8
:1006E0008DFE0400F5E7009800F09CFE0099F2E70B
:1006F0009D0D002010B5030000890A00002806D1D6
:1007000058881988000408439988FFF7CFFF10BD67
:1007100010B504000121FFF7EDFF210004F04AFCB1
:1007200010BD10B504000021FFF7E4FF2100FFF722
:10073000B8FF10BD30B50400012005008D40290030
:100740000500954098402A00030020000A43D1B2DA
:10075000984322408A4201D12343D8B230BD0000E1
:1007600010B504001300044A10780A002100FFF7B6
:10077000E1FF00F0A9FD10BDA50D002010B501F0AE
:10078000ECFE10BD10B501F0EDFE10BD704700008D
:1007900010B500F009FAFFF7F9FF024806F07BFAFE
:1007A00010BDC046A861000010B5FFF7F1FF05F0CD
:1007B000B7FA10BD10B5FFF7EBFF05F0C5FA10BD95
:1007C00070B504000D0005F0CDF82900200002F0FE
:1007D000D3FD002801D1002070BD2900200003F0C6
:1007E000C5F90028F7D029002000FFF755FF0028A1
:1007F000F1D02900200004F057FE0028EBD029009A
:10080000200005F0CDF80028E5D02900200004F0F4
:100810001FF90028DFD02900200005F009F8002882
:10082000D9D02900200003F009FE0028D3D02900E8
:10083000200004F023FD0028CDD0AB78002B0DD094
:10084000144B9C4223D00DD8134B9C4216D0134B13
:100850009C4219D05B3BFF3B9C420CD02800FFF729
:1008600017FFB9E70E4B9C420BD00E4B9C42F5D1C3
:10087000FFF7A0FFAFE7FFF797FFACE701F0A2FBA0
:10088000F6E701F0E9FAE9E701F0F2FAE6E701F04C
:10089000F4FAE3E75B5D0000DE5C00005A5D0000F7
:1008A0005C5D0000A75D000010B504000121FFF7AA
:1008B00021FF2100FFF784FF10BD10B500F02CF8D8
:1008C00005F0AFF910BD704710B5FFF7FCFF10BD84
:1008D0000120704710B5041CFFF7FAFF002805D06F
:1008E00090230422DB05A10701D51A8310BD5A838A
:1008F000FCE710B59024E40501220421200007F054
:100900001CF80423638310BD10B50400FFF7DCFF5F
:10091000201CFFF7DFFF10BD10B505F0B9F8FFF799
:10092000F3FF10BD10B505F0B3F8074B04001A78BB
:10093000824207D0187005F0A9F9044B1860200016
:10094000FFF7E2FF10BDC0469C0D0020980D00206F
:1009500030B589B0020C05AC8BB2009001910590C6
:10096000D2B2A180002B07D02188224B994203D01C
:1009700021490B6801330B60002A01D001F052F9C4
:1009800004251A202A0000216844FFF7C9FD009BB6
:1009900005936B469B88A380184B5B782B4210D045
:1009A000174B5B88002B0CD001F0E8F8002802D030
:1009B000022001F01DFA01F0BBF8002801D001F07F
:1009C00087F9059A03AB0392A2889A80A288002A2D
:1009D00008D01A88074B9A4204D02000FFF798FEEF
:1009E000002804D005986168A26801F007F809B0F2
:1009F00030BDC046FFFF0000A00D0020EC29002004
:100A0000442B002010B5008800F02EFD10BD000022
:100A100010B5041E14D0031FDBB2A02B11D81D4B40
:100A20000100186805F086F8002804D0200001F0C5
:100A300067F801F05DF9200001F058F801F058F96D
:100A400010BD03002033DBB2072B07D8072004407A
:100A50000638A040C0B201F0B9F8EFE703005B33FD
:100A6000DBB2022B04D8243880B205F031F8E7E776
:100A700003005833DBB2162B05D8074A5B00985A9F
:100A800005F038F8DCE7EF28DAD901F00FFF01F0C4
:100A9000FDFFD5E7000C00205285000810B50028A6
:100AA00007D0031FDBB2A02B04D801F029F801F016
:100AB0001FF910BD03002033DBB2072B07D8072333
:100AC000034001209840C0B201F088F8EFE703002E
:100AD0005B33DBB2022B03D8002004F0F9FFE8E718
:100AE00003005833DBB2162B03D8002005F002F8C0
:100AF000DFE7EF28DDD901F047FF01F0C7FFD8E7B6
:100B000070B505000C00FFF783FF002C03D128000F
:100B1000FFF7C4FF70BD6420013C06F0BCF8A4B22E
:100B2000F3E7000010B5044B392803D1198CFFF707
:100B3000E7FF10BDD98BFAE7442B002010B5002841
:100B400003D001F043F801F0D3F810BD10B5002830
:100B500003D001F043F801F0CBF810BD10B5002828
:100B600003D001F04FF801F0C3F810BD10B5002814
:100B700003D001F04FF801F0BBF810BD10B5002014
:100B800004F0A6FF002004F0B5FF01F04BF801F0DF
:100B9000AFF801F095FF01F079FF10BD10B500F03E
:100BA000B9FFFFF7EBFF10BD10B501F01FF8FFF71D
:100BB000F5FF10BDC2B20004000F062818D00F23A5
:100BC00006280ED80E3003400020012B08D8012043
:100BD000F02A05D007D80020E72393424041C0B255
:100BE00070470630EFE7F43A100043425841F6E709
:100BF0000120E72AF4D9F13A53425A41D0B2EFE743
:100C000013B50400010006226846FFF735FCA088F2
:100C100000280CD06B461A88074B00209A4206D059
:100C20002089002804D001F0A5FAFFF7C3FF16BD04
:100C3000208800F019FCF8E7FFFF0000F0B5837989
:100C400085B01B090C1C85780190009300F0AEFF65
:100C50002704029000281DD00295002D1AD00F22E3
:100C60003B0E9343402B06D0230000222033DBB2FF
:100C70000292072B0ED90022AC4B02925B785B07E5
:100C800008D5022001F0B4F800F090FF01234340A2
:100C9000DBB202933B0F03930B2B3FD81800FFF7F7
:100CA000BBFA0C000C006700670026013A013D000A
:100CB0003D004F01AE01BF01BF010F2326053F0ECE
:100CC000360F9F4300D03601E7B2002D12D0002E20
:100CD0000BD03B002033DBB23000072B01D9002FB3
:100CE00005D100F073FF01F003F838007BE000F05D
:100CF00089FFF8E73800FFF7D1FE002E0ED03B0049
:100D00002033DBB23000072B01D9002F02D100F0D5
:100D100065FF01E000F07EFF00F0EAFF039B083B67
:100D2000032B03D804F0B4FEFFF7EEFD201CFFF701
:100D300041FF002800D015E200227D4B1A60029B83
:100D4000002B13D000F012FF012302001A401842BA
:100D50000CD1019B9A7000F001FF00F0CBFA0198D2
:100D600000F044FA00F0FAFE00F0D0FA05B0F0BD51
:100D70000F2326053F0E360F9F43202F00D036014C
:100D8000E7B2002F21D0012F00D182E0009B002D7F
:100D900000D18CE0002B56D0019A019B50881B8813
:100DA0000004918818430022FFF780FC019903F0AA
:100DB000F3FA002899D1019B9B79DA0700D494E7D4
:100DC0000F221340019A93713DE0584B5B785B070B
:100DD00014D4002D0AD0002E04D0300000F0F6FE0E
:100DE00000F086FF0020FFF713FE97E72800FFF7CB
:100DF00055FE002E00D191E7300088E7009B002DC2
:100E000023D0002B06D100F02BFF3043C0B2FFF7F8
:100E100095FE83E7009B012B06D100F021FF3043B4
:100E2000C0B200F03BFF79E7424B1B7F012BEAD9B0
:100E3000009A9342E7D100F04BFF00F073FE30437D
:100E4000C0B200F019FF3000E1E7002B02D100F042
:100E50003FFF14E0374B009A1B7F012A13D1012B6F
:100E600000D85BE700F0ACFE064200D156E700F088
:100E70002FFF00F057FEB043C0B200F0FDFE30007F
:100E8000FFF764FE4AE7012BE1D9009A9A42DED1CE
:100E900044E7284B009A0333DB7F002D03D09A42AE
:100EA00000D93BE7CFE79A4200D337E7E7E7002BCB
:100EB000E5D0204B392F18D1188C00280ED00023F4
:100EC00029001D4A07F002F900231C4A80185941E5
:100ED000FA2200239200FFF745FA00E0012005F016
:100EE000DAFE3800FFF7DAFD18E7D88BE5E72305CF
:100EF0009B0F09D0012B00D010E7281E01D0A005C0
:100F0000800D04F0F7FD09E7281E01D0A005800D33
:100F100004F0DEFD02E7E0B2002D04D001F0C6FCD3
:100F200001F0B4FDFAE601F02FFDF9E7EC2900200D
:100F3000A00D0020442B0020A0860100E703000044
:100F4000BF01BF0F28D1002D00D0E7E623065B0FBD
:100F50009B002007DBB2000F98401021C2B20800AE
:100F60002040214203D00F209840C043C0B2230547
:100F70009B0F1043022B09D0032B0AD0012B02D068
:100F800000F088F9CAE600F07BF9C7E600F08CF9BA
:100F9000C4E600F070F9C1E6A3059B0FDAB2002D9C
:100FA0001FD0DB0700D4B9E623065B0F9B002007A8
:100FB000DBB2000F98401021C2B20800204021424D
:100FC00003D00F209840C043C0B223059B0F1043AD
:100FD000022B0ED0032B0FD0012B07D000F0B8F955
:100FE0009CE602231A4200D198E6DDE700F0A6F95C
:100FF00094E600F0B7F991E600F066F98EE6260572
:10100000E7B2360F002D04D0300000F073F938003D
:10101000FDE63800FFF79AFD300000F077F97DE635
:10102000E6B23000F038042871D8FFF7E1F8032A5F
:10103000151C26005D4B009A0333DB7F002D07D083
:101040009A4200D36AE6E004C00E00F06BF965E650
:101050009A4200D962E6F6E7E004C00E002DDCD12A
:1010600000F048F95AE6002D04D0E004C00E00F06C
:101070003AF953E600F032F950E64D4B5B785B07E6
:1010800004D4E004C00E002DC7D0E9E7474E337FFB
:10109000012B2FD9002D1DD000F068FD042808D1A8
:1010A00000F098FEE004C00E00F030F90023029337
:1010B00034E60022337F0292009A934200D82DE654
:1010C000E604F60E300000F015F90321300000F0C0
:1010D00061FE23E6009A934208D800F07BFEE0040C
:1010E0000421C00E00F056FE029517E6012000F024
:1010F0007FFEF9E7002DE3D1012000F079FE009B8F
:10110000012B00D80AE6022000F072FE06E6009BE2
:10111000002D06D0002B01D0300064E6E004C00EA4
:101120009EE7002B1BD0214B392E16D1188C00289E
:101130000ED0002329001F4A06F0C8FF00231E4AD4
:1011400080185941FA2200239200FFF70BF900E0C2
:10115000012005F0A0FD3000C4E6D88BE7E7E004ED
:10116000C00E5AE7009B002D03D0002B00D0E3E512
:10117000E5E5002B00D0DFE5019A019B50881B8834
:10118000000491881843009AFFF790FA019903F040
:1011900013F9002800D1CFE5084B1B68022B00D0C3
:1011A000CAE5E0B2FFF7BEFCC6E5C046442B00200E
:1011B000EC290020A0860100E7030000A00D00201C
:1011C00070B50400008900280BD000F0D3FF051C87
:1011D00000F0D2F800F04EF8291C2000FFF72EFD99
:1011E00070BDA078218800F049F9F0E713B504003C
:1011F000010006226846FFF73FF9A388002B17D0AD
:101200006B461A880E4B9A4212D02000FFF74CFB17
:1012100000280ED100F0CAFC002809D0A378002BCA
:1012200006D0084B5B785B0702D5022000F0E0FD9A
:1012300013BD2000FFF7C4FF2000FFF772FAF7E7A5
:10124000FFFF0000EC29002082B002B0704784B09C
:1012500004B07047704710B5FFF7FCFF10BD0000E9
:1012600010B5FFF7F8FF024B1870FFF787FC10BDB1
:10127000A40D0020704710B5FFF7F2FF10BD00006D
:1012800010B5034B1B781843FFF7EAFF10BDC046AB
:10129000A40D002010B5034B1B781840FFF7E0FFAA
:1012A00010BDC046A40D002010B5034B1B7858405C
:1012B000FFF7D6FF10BDC046A40D0020704710B543
:1012C000FFF7FCFF10BD000010B5FFF7F8FF024B61
:1012D0001870FFF753FC10BDA50D002010B50020BD
:1012E000FFF7F2FF10BD0123834010B5D8B2FFF71E
:1012F000EBFF10BD0123834010B5034A107818435B
:10130000C0B2FFF7E1FF10BDA50D0020012383400F
:1013100010B5034A10789843FFF7D6FF10BDC046BA
:10132000A50D00200123834010B5034A10785840D2
:10133000C0B2FFF7C9FF10BDA50D002010B5034BCB
:101340001B781843FFF7C0FF10BDC046A50D002055
:1013500010B5034B1B781840FFF7B6FF10BDC04611
:10136000A50D002010B5034B1B785840FFF7ACFFCC
:1013700010BDC046A50D00207047032370B501269F
:10138000CC086343D2180723350019408D40002153
:10139000EDB20300CB40545C33405B4263402B40D2
:1013A0006340535401310329F3D170BD30B5072494
:1013B000032300220440C0085843012509181000E7
:1013C0008B5CE3402B40934001321843C0B2032AA8
:1013D000F6D130BD07B5030401AA10801B0E08002A
:1013E000042B08D812780E2A05D80F2159438918E2
:1013F000014AFFF7C2FF07BDA60D002007B5030491
:1014000001AA10801B0E0020042B08D812780E2A87
:1014100005D80F30584302498018FFF7C7FF0EBDAB
:10142000A60D0020F7B5072401270D4B01AE308033
:101430001A780C4B1B781A430092009BE5B22341AB
:101440003B4204D1013CF8D200252800FEBD280013
:10145000316800F05FFF80B20128F3D0F5E7C046A5
:10146000A50D0020A40D002007B501AB1880019840
:10147000FFF7D8FF019900F04DFF0EBD37B50F4BB8
:1014800001AD1B782980002B03D00198FFF7ECFFFA
:101490003EBD00280CD02868FFF7C4FF04000100FF
:1014A0002868FFF797FF2000019900F033FFEFE76E
:1014B0002868FFF7A3FF0400F5E7C0469D0D002054
:1014C00070B50A2507260C4B1C780C4B1B78A342E1
:1014D00000D170BD2B006343094A0134995AD318D7
:1014E00058889A8800040843D98834400904114375
:1014F0001A89FFF7ACFEE8E71F0E00201E0E002041
:10150000CE0D0020064B10B558881A88D9880004E3
:1015100010439A88090411431A89FFF798FE10BDF9
:10152000C40D0020F7B5072701900E480E4B007838
:101530001B7800900D48009CA34201D10020FEBD05
:101540000A255D43441966788E4206D12D5C019EC2
:10155000B54202D1A478944202D101333B40EAE77C
:101560000120ECE71E0E00201F0E0020CE0D0020F3
:10157000F7B50F22234CA37993433ED1A378002BD8
:101580003BD0214B1D78214B1B78AB4235D0062236
:1015900021006846FEF770FFA388002B2ED06A4614
:1015A00011881B4A914229D00A216943194A677858
:1015B00056187078874221D120788A5C90421DD1DC
:1015C000B17800291AD1B7882000FF1AFFF792F8E6
:1015D0002100BFB202F0B2FA87420FD20F211022CF
:1015E000A37920000B401343A371B3790B401A4336
:1015F000B271FFF7FBFDFFF763FFF7BD072301356E
:101600001D40C0E7C40D00201F0E00201E0E00204C
:10161000FFFF0000CE0D0020F0B504008FB009AF31
:10162000062201003800FEF727FF2378A74D039319
:10163000637800210293A37828000193A388049380
:10164000FFF758F80622079029000BA8FEF714FFB1
:10165000AB880693002B00D13CE108AB9B899C4AE8
:10166000934200D136E1AB780593002B00D131E1F4
:10167000049B069A002128009E1AFFF73BF82900D8
:1016800002F05CFAB6B20F22AB79864200D3E2E0F8
:10169000AE88934300D093E02900093A0BA8FEF7E7
:1016A000EBFE019F002E1ED008AB9B89884A934217
:1016B00019D022889A4216D12A8923899A4212D1B6
:1016C000002F10D10F22814DAB791A401023134304
:1016D000AB71FFF717FF2800FFF788FDAB79A37107
:1016E00038000FB0F0BD039A09AB1A70029A0BAD27
:1016F0005A70039B6A702B70049B002B06D02B88BA
:10170000734A934202D0019B002B26D0039B2B707F
:10171000029B6B70049B002B36D02B886C4A934243
:1017200032D0019B002B45D1019A02990398FFF713
:10173000F9FE071E2BD10998FFF796FEC3B20004ED
:101740000F21020F012A24D90E320A40012A2AD978
:101750002000FFF74BFD059FC2E7019A029903980D
:10176000FFF7E0FE0028D1D0584E0798310002F074
:101770000BFE0028CAD03000FFF738FD0A2201997D
:101780003000FEF7CDFEFAE0019B002B12D10027BE
:10179000A6E7000E014201D0002BA1D02033DBB21E
:1017A000072B9DD9D4E7000E0142F7D0A2798A43D6
:1017B000F4D195E70123454A91790B439371E6E70C
:1017C000062229000BA8FEF757FE002E1CD008ABFE
:1017D0009B893F4A934217D022889A4214D12A8982
:1017E00023899A4210D1019B002B0DD1374D200047
:1017F000AB79A371FFF7FAFC0A2221002800FEF75B
:101800003BFEFFF77FFEA6E72000FFF7F9F900286F
:101810001DD0019B002B1AD02C4B9A791F2A0BD973
:1018200019880BA801800021817004998271818040
:101830001B890381FFF7DAFC0A2221002348FEF707
:101840001BFEFFF795FEFFF75DFE012748E720002E
:10185000FFF7CCFCF9E793431E1E13D1039B3B70AB
:10186000029B7B70019BBB7003CFFFF7EDFC280050
:10187000FFF7BCFC0A2231002800FEF751FEFFF7FB
:1018800041FE84E7062229000BA8FEF7F5FDAB8890
:10189000002BB9D008AB9B890D4A9342B4D02A885B
:1018A00023889A42B0D12A8923899A42ACD1019BDC
:1018B000002BA9D1054D2000AB79A371FFF796FC51
:1018C0000A2200212800FEF72BFE44E7C40D002069
:1018D000FFFF0000474E062231000BA8FEF7CCFDAB
:1018E000069B002B70D008AB9B89434A93426BD078
:1018F000B778002F68D1049B069A390030009D1AF2
:10190000FEF7F8FE3100ADB202F018F985424DD273
:10191000019F002F9BD0062231000BA8FEF7ACFDE3
:10192000B388002B34D008AB9B89334A93422FD025
:10193000328823889A422BD1328923899A4227D12F
:101940003100079802F030FD00281BD1B279D3078F
:1019500018D40F2113008B4314D0A271F02B06D0A2
:10196000D3B21A09013212010B401343A3712000B4
:10197000FFF73CFC0A2221003000FEF77DFDFFF757
:10198000C1FDADE60A2221003000FEF775FDA7E695
:101990002000FFF735F9002800D04DE70123B27988
:1019A00020001343B371FFF721FC99E6039A09ABBA
:1019B0001A70029A5A70019A9A700A990998FFF758
:1019C00043FC0A223900DBE6019B002B00D13EE7F5
:1019D0002000FFF715F9071E00D138E70A22210081
:1019E0002800FEF749FD2800FFF70CF8FFF7C0FDBF
:1019F000C5E7C046C40D0020FFFF0000F0B58BB066
:101A000001AD019028006960AA60FFF705FE324C25
:101A1000060007A9002810D001980790AB888B809A
:101A2000AB88002B07D00A882C4B9A4203D06968F8
:101A3000AA68FFF70CFC0A2747E00B002A0081CABE
:101A400081C312881A800798AA880590888805ABF8
:101A50009880002AEFD0224F1D88204B20783A78BA
:101A60009D42E8D00723451C1D40954209D00A221B
:101A700050431C4B1818FEF7FFFC2570FFF720FDA4
:101A8000D9E7FFF791F80A223100174826703E7017
:101A9000FEF746FDCFE77843124E3018FFF7BCFD46
:101AA000002817D02B787B439A5BF6187088F18852
:101AB000B38800040904104319433289FFF7C7FBB8
:101AC00007222B78013313402B70054D237828789B
:101AD0008342E0D10BB0F0BD1E0E0020FFFF0000DE
:101AE0001F0E0020CE0D0020C40D002010B5034BAA
:101AF0000100186804F04FF810BDC046000C00202B
:101B000010B5034B0100186804F049F810BDC04639
:101B1000000C002010B5024B186804F044F810BD0A
:101B2000000C0020014B18787047C046340E00208E
:101B300070B50024074D6B88A34208D004F0DEF88E
:101B4000054B1B88C01A6B8880B298426441200004
:101B500070BDC046442B0020360E00200020024BF2
:101B60001856C010C0B27047300E0020024B1878D3
:101B7000072318407047C046300E002010B504F00F
:101B8000BDF8074B074A1B885288C31A9BB2002036
:101B90009A4204D8044B01301B789B08984310BD2F
:101BA000320E0020442B0020300E0020034B18780A
:101BB00007231840431E9841C0B27047300E0020E2
:101BC000014B18787047C046380E0020024B1A7837
:101BD000104318707047C046380E0020024A137830
:101BE000834313707047C046380E00200022014B1B
:101BF0001A707047380E0020014B18787047C046A5
:101C00003A0E0020024B1A78104318707047C046F5
:101C10003A0E0020024A1378834313707047C0467F
:101C20003A0E00200022014B1A7070473A0E002035
:101C3000014B18707047C0463B0E00200022014B3C
:101C40001A7070473B0E0020014B18707047C04659
:101C5000390E00200022014B1A707047390E002007
:101C6000014B18787047C046350E0020704710B5FC
:101C7000FFF7FCFF10BD000010B5044B1A7882423C
:101C800002D01870FFF7F3FF10BDC046340E0020DD
:101C9000704710B5FFF7FCFF10BD0000094B70B591
:101CA0005B7804005B070BD5074D2B78834207D088
:101CB00004F024F8054B2C7018802000FFF7E9FF92
:101CC00070BDC046EC290020350E0020360E0020E5
:101CD00010B5054B1A78002A05D000201870034B68
:101CE0001880FFF7D6FF10BD350E0020360E0020FD
:101CF00070B51D4B1D4A1E4C12781B781D4D1343A9
:101D0000226813702B78002B14D01B4B5B88002BA0
:101D100005D0FFF70DFF002801D0FFF7D9FF20689D
:101D20002A7803781343037003F0F6FE002801D0ED
:101D3000FFF7CEFF2468114B114D1A782378290044
:101D40009343104A20001278134323700822FEF7B1
:101D50006BFB002807D0082221002800FEF78CFB2F
:101D6000200003F09FFE70BD380E00203A0E0020C8
:101D7000000C0020350E0020442B0020390E0020DE
:101D8000280E00203B0E0020704710B5FFF7FCFF27
:101D900010BD00000C4A0B00527810B5520710D548
:101DA0000A4CC10019432170FFF7A4FA03F0A6FF03
:101DB000074B188000202056C010C0B2FFF7E5FF87
:101DC00010BDFFF797FAFBE7EC290020300E00204A
:101DD000320E0020002010B5034B1870034B188002
:101DE000FFF7D3FF10BDC046300E0020320E00209A
:101DF000002310B50A4AD3561900814348B2107027
:101E000042070CD1DBB2834209D0064B5B785B07FB
:101E100005D5C010C0B2FFF779FAFFF7DBFF10BDA0
:101E2000300E0020EC2900200A4A10B553785907DB
:101E3000C90F81420CD00121084003318B4380003F
:101E400018435070108800F04BF80220FFF7D0FFC5
:101E500010BDC046EC290020044B10B55878012372
:101E60004007C00F5840FFF7DFFF10BDEC290020EE
:101E700010B50120FFF7D8FF10BD10B50020FFF707
:101E8000D3FF10BD10B501F023F90020014900F087
:101E90005BFF10BDFFFF0000002010B500F015FF34
:101EA000034B020000209A4201D101F00DFA10BD4F
:101EB000E8FE000010B5022000F0FAFE10BD10B5DB
:101EC000032000F0F5FE10BD10B5042000F0F0FE78
:101ED0000400222000F0ECFE0002204380B210BD7E
:101EE00010B50400C1B2042000F022FF2220210A14
:101EF00000F01EFF10BD10B501000F2000F030FFF4
:101F000010BD10B50100132000F02AFF10BD10B560
:101F10000020FFF7F6FF10BD10B50020FFF7EBFF24
:101F2000FFF7F5FF10BD000010B5002401F0D0F858
:101F30000020224900F008FF0021022000F0F8FEF6
:101F40000021032000F0F4FE1D4B210004201C7032
:101F500000F0EEFE0421222000F0EAFE2100052020
:101F600000F0E6FE2100062000F0E2FEFF2107203F
:101F700000F0DEFE2100082000F0F2FE21000D201E
:101F800000F0D6FE2100182000F0EAFE2100172004
:101F900000F0CEFE21001C2000F0E2FE21002020F7
:101FA00000F0D2FE2100182000F0DAFE200001F03F
:101FB0009FF901F0C4F9FFF7AFFF10BDE8FE000084
:101FC000A40D002010B5FFF7AFFF10BD10B5010044
:101FD0000E2000F0ADFE10BD10B503F057FE024B11
:101FE0001860024B186010BD3C0E0020400E00200F
:101FF0007047704710B5FFF7FCFF10BD704710B574
:10200000FFF7FCFF10BD000010B5074800F064FAB0
:1020100001F05AF801F06CFB02F004F9FFF7E8FF59
:10202000FFF7E8FF10BDC046D1240008012070472B
:1020300010B5FFF7FBFF10BD7047704710B5FFF7F5
:10204000FBFFFFF7FAFF10BD10B500F065FAFEF7D1
:1020500050FC10BD10B503F015FE01F07FF900F043
:1020600019FBFFF7F1FFFFF7CAFF10BD10B503F032
:10207000FFF903F0DFFC02F04BFF02F09FFC10BD04
:10208000F0B587B000F01EFB374F00243D00200064
:102090000134E4B22E8800F069FA052C41D00235F3
:1020A0008642F4D0314B1B789B0701D500F064FACF
:1020B000FFF7BEFF00240390200000F057FA3B8892
:1020C0000190984225D00025012643409BB20293FF
:1020D000029B1E4215D0039B002B12D004AB1D7037
:1020E0005C70019B33405A1E934104AA937003F025
:1020F00005FE0123184304AB988004980599FEF768
:1021000027FC01357600EDB2B6B20F2DE0D1019B70
:102110003B800134E4B20237052CCDD1FFF75CFFE0
:1021200019E08642BED103F0E9FD114D04002B8871
:10213000834210D0012304AA5B42138000239370D2
:1021400003F0DCFD012304AA03439380049805995E
:10215000FEF7FEFB2C80FFF789FF00F0DBFCFEF7AB
:10216000E1FB07B0F0BDC046460E0020500E002037
:10217000440E002070B500F0D7F8A4230400DB0162
:10218000984246D2013BFF3B984200D38BE0E728C0
:102190001BD8DF2830D8A7280AD8A42800D979E08E
:1021A000012829D0031F9BB2A02B25D9002423E0AE
:1021B0000300A83B9BB2162BF8D858344A4BE4B224
:1021C0006400E05A8824E4013FE0A020C00184427A
:1021D00014D28023DB019C4260D2FF2C04D8EF2C68
:1021E000E4D90443A4B207E0F822631EFF3B9BB28C
:1021F000520193429B411C40201C70BD0323E4B25A
:10220000A00818401C40023BA3404001374C184333
:10221000E7E7AC23DB01984219D2013BFF3BC0B298
:102220009C424DD2013BFF3B9C420CD2013BFF3B09
:102230009C423CD20323840803400120984064015F
:1022400004432B48CDE72B4C00020443D4E7B423CE
:10225000DB0198420BD2013BFF3B984239D2264B1F
:10226000C3189BB2FF2BA1D8244C0002B9E78025EC
:10227000234BAD01C3189BB2AB4297D2C004C00E32
:1022800000F0D2F8F82300025B011840E4B20443E6
:102290002C43B1E780242438E401A2E71948044024
:1022A000A0200002D1E7C4B224021748CDE70323DF
:1022B000840803400120984064010443134890E7D8
:1022C00000F0B2F8F8240002640120400134FF3429
:1022D000BBE70F25284000F0A7F824092C40240272
:1022E00004430B487DE7C04680850008008DFFFF52
:1022F000008CFFFFF4A0000000A8FFFFF0A0FFFF8C
:1023000000A0FFFFFF0F0000F1A00000008AFFFF08
:102310000090FFFF07B501AB1980019901F0AEFDF8
:10232000FFF728FF0EBD0000030010B5E72808D80E
:10233000DF2808D8312861D00ED8292855D02A287E
:1023400062D0180010BDE0380728FAD8FDF746FF24
:1023500018F9252A38F93F44392808D0822806D0B0
:102360003528EED12F4A12789206EAD506E02D4A9A
:102370001178890750D152781207E2D52923E0E776
:102380000121284802780A4236D140780842D8D044
:10239000E323D206D5D50023D3E7224A127851078A
:1023A000F6D4CEE71F490A78500733D44978C907D5
:1023B00032D410210A4051424A4152421340C0E7F0
:1023C000184A51788907BCD51278E723E1E7154A06
:1023D00012781107F9D4B4E712490A7810071DD40E
:1023E00049788907E5D5E423ABE70E4A11788906D9
:1023F00016D452781207A4D53923A2E7094A1278D5
:1024000052069ED52A239CE7064A1278520698D592
:10241000312396E7E22394E7E02392E7E62390E76F
:1024200035238EE7EC29002030B5042427490A78AB
:10243000224205D018230340082B27D1984320437C
:10244000130708D51824050014232540A54225D1DB
:10245000A843C0B2184301244978214206D018236A
:102460000340082B21D19843C0B220438B0708D5E5
:102470001821040011230C408C421FD1A043C0B28C
:102480001843D30601D5E723184030BD1423034079
:10249000042BD5D1984304331843D1E70340142BC0
:1024A000D9D19843C0B22043D5E711230340012B73
:1024B000DCD19843C0B207331843D7E70340112B50
:1024C000DFD19843C0B20843DBE7C046EC290020C7
:1024D0000020704700207047014B18607047C046CD
:1024E000040C002010B5FFF7CDFC10BD10B500F0B6
:1024F000E9F8C82004F0CFFB00F0E4F8002000F079
:1025000035F8C30703D5FFF7EDFF03F009FC10BD55
:1025100010B5FFF7EBFF10BD10B5FFF7BDFC0028AD
:1025200001D1FFF74FFDFFF7C5FC084B1870FFF70F
:10253000CBFC074B1880FFF7EBFFFFF7C0FCFEF763
:102540009AFE044B1878FEF7BAFE10BD500E00201C
:10255000EC290020A50D0020704710B5FFF7FCFF07
:1025600010BD704710B5FFF7FCFF10BD014B4000D8
:10257000185A7047F8290020704710B5032004F05E
:102580008AFB10BDC046C046C046C046C046C046D5
:10259000C046C046C046C046C046C046704710B59B
:1025A000FFF7EBFF10BD10B572B60F23020001213B
:1025B0001A4091409843202205F0BFF962B610BD41
:1025C00070B50B4C250014352068431C01D0FFF773
:1025D000EAFF0434AC42F7D1064C25003C352068B4
:1025E000431C01D0FFF7DFFF0434AC42F7D170BDCC
:1025F000EC850008B0850008F7B5244B8A00D35855
:10260000019000915A1C40D072B601250F242E0073
:102610001F0023409E40A74331002A003800B6B275
:1026200005F08BF97E8362B6FFF7ACFF0026200031
:10263000AC4617490A680023571C0AD0130083438D
:102640001B690240D34067461A0000233A4200D17A
:102650002B00013C1E436D00E4B2B6B2ADB20431B2
:10266000002CE7D1009B9A00084BD058431C01D0A6
:10267000FFF799FF31004B1E99410098C9B2FFF74F
:102680008EFF009B5900019BCE52F7BDEC850008E0
:10269000B085000810B50A24FFF792FF2200002140
:1026A0000648FDF73DFF220000210548FDF738FFF1
:1026B000052000F039F8FEF761F810BDF829002078
:1026C000EE29002030B585B00A22002101A8FDF7CF
:1026D00027FF00242100013401A8E4B2FFF78CFF9A
:1026E000052CF7D10E4C0A22200001A9FDF79CFE13
:1026F00005006B1E9D41EDB2002804D00A22200087
:1027000001A9FDF7B9FE2B0005220649200000F0C3
:102710000DF80400FEF736F8200005B030BDC046C5
:10272000EE290020F829002070470000F8B50600C7
:102730000D001700002B06D00123134A137003F07D
:10274000A5FA124B1860104B1C78002C02D1002403
:102750002000F8BD0D4B186803F0DCFA0028F6D015
:102760007F003A0031002800FDF75EFE002808D007
:102770003A0031002800FDF77FFE0023024A137063
:10278000E6E70400F9E7C046510E0020540E002091
:1027900010B503F00FFEFFF75DFC03F021FE10BD46
:1027A00010B503F025FEFFF76BFC03F025FE10BD0E
:1027B00010B503F03AFA03F0F9FDFFF725FCFFF737
:1027C000E7FFFFF7EDFFFFF739FCFAE710B5184B0D
:1027D0001A78184B1B89D1070CD5174A1078434338
:1027E0009B109BB27F20834203D87E38002B00D001
:1027F000D8B210BD910704D50F4A107843435B103F
:10280000EFE7520703D50C4A10784343E9E70B4A38
:1028100010780028E6D00A4A1178074A1278534304
:102820008842DED25843FDF747FD83B2DAE7C0465F
:10283000620E0020442B00200A0C0020630E0020B2
:102840000B0C002010B5154B1A7801231A4207D043
:10285000134B1B789B080120002B0ED0D8B20CE044
:10286000910703D50E4B1B785B08F4E7520705D59B
:102870000B4B1B787F208342EDD910BD094A12789B
:10288000002AEBD0084B1978054B18788A4201D3FF
:1028900083B2EFE75043FDF70FFDF9E7620E00202A
:1028A0000E0C0020640E00200F0C002010B5F02844
:1028B00005D1FFF78BFF4042314BD87010BDF12896
:1028C00002D1FFF783FFF7E7F22805D1FFF77EFF7C
:1028D00040422B4B9870F1E7F32802D1FFF776FFC7
:1028E000F7E7F92804D1FFF7ADFF254B1871E5E7AD
:1028F000FA2803D1FFF7A6FF4042F6E7FB2805D1EF
:10290000FFF7A0FF40421E4B5871D7E7FC2802D1C9
:10291000FFF798FFF7E7F42805D10123184A51780B
:102920000B435370CAE7F52803D1154A02235178A7
:10293000F6E7F62803D1124A04235178F0E7F72886
:1029400003D10F4A08235178EAE7F82803D10C4A4B
:1029500010235178E4E7FD2805D10123094A1178B5
:102960000B431370AAE7FE2803D1064A022311780D
:10297000F6E7FF28A2D1034A04231178F0E7C04606
:102980005C0E0020620E0020022210B53B4B9A56CE
:10299000F0280AD1D9787F290DD90021D9708A422F
:1029A0000BD10021364A117007E0F1280ED1032126
:1029B00059560029F1DC002A0ED01A795B791343AD
:1029C0005AB2002B01D12F4B1A7010BDF22808D13A
:1029D000002AF0DA00229A7003229A56002AECD1DB
:1029E000DFE7F32802D1002AF4DCE4E7042159569A
:1029F000F92804D10029DEDD00211971DBE7FA286E
:102A000002D10029D7DAF7E705215956FB2804D16E
:102A10000029D0DA00215971CDE7FC2802D1002924
:102A2000F8DCC8E7F42804D15978F33881435970A9
:102A3000C1E7F528F8D0F62802D15978F238F5E741
:102A4000F72802D15978EF38F0E7F82802D1597801
:102A5000E838EBE7FD2805D101240B480178A143B4
:102A60000170A8E7FE2803D1074802240178F6E7A1
:102A7000FF28A0D1044804240178F0E75C0E002070
:102A8000630E0020640E0020620E002010B503F0DB
:102A900035F9030007488278C1780A4301D0064A15
:102AA0001380027941790A4301D0044A138003F06C
:102AB00003F810BD5C0E0020580E00205A0E0020B6
:102AC000062210B500210548FDF72AFD0023044A1F
:102AD0001370044A1370044A137010BD5C0E00207A
:102AE000630E0020640E0020620E00200222825637
:102AF00003000120002A0BD103229A56002A07D195
:102B000004229A56002A03D105201856431E9841E4
:102B10007047000037B55D4C062221006846FDF77E
:102B2000ABFC00236A46A370E370237163716B46AC
:102B3000D2789B7813430BD0554B188803F0E3F8F9
:102B400054490B78002B28D0534A127890422DDC40
:102B50006B466A461B79527913430BD04F4B18884A
:102B600003F0D1F84E490B78002B51D04D4A127822
:102B7000904256DC6946200003F01CF8002804D17E
:102B80002000FFF7B3FF002801D0FFF77FFF0622E8
:102B900069462000FDF770FC37BD434A15780A22CC
:102BA0006A439042D4DD01330B7001E0FF2BFAD170
:102BB0006B4602255D57002D07D0FFF707FE012366
:102BC000002D00DCFE334343A3706B4603255D57A5
:102BD000002D07D0FFF7FAFD0123002D00DCFE33A6
:102BE0004343E3700222A256002AB1D0032161566A
:102BF0000029ADD0B5235A43121205D04B43A27021
:102C00001B1203D0E370A3E70122F7E70123F9E7E2
:102C1000264A15780A226A439042ABDD01330B70D5
:102C200001E0FF2BFAD16B4604255D57002D07D03C
:102C3000FFF708FE0123002D00DCFE334343237120
:102C40006B4605255D57002D07D0FFF7FBFD0123DF
:102C5000002D00DCFE33434363710422A256002A98
:102C600000D187E705216156002900D182E7B5230D
:102C70005A43121205D04B4322711B1203D06371C9
:102C800078E70122F7E70123F9E7C0465C0E002050
:102C9000580E0020630E0020090C00205A0E002060
:102CA000640E00200D0C0020080C00200C0C0020ED
:102CB00007B500236A46D3716B4601000122D81D77
:102CC00000F00AFA6B46D8790EBD07B500236A46B4
:102CD000D3806B4601000222981D00F0FDF96B467F
:102CE000D8880EBD002307B5010001A80422019376
:102CF00000F0F2F901980EBD07B56A460300D01D39
:102D000001700122190000F023FA07BD07B56A46D9
:102D10000300901D01800222190000F019FA07BD7E
:102D200007B504220191010001A800F011FA07BDC6
:102D300070B50D000400FFF7BBFFA84203D02900C7
:102D40002000FFF7D9FF70BD70B50D000400FFF73C
:102D5000BCFFA84203D029002000FFF7D7FF70BDB9
:102D600070B50D000400FFF7BDFFA84203D0290095
:102D70002000FFF7D5FF70BD10B500F08DFA094CAB
:102D8000094800F045FA094800F042FA200000F036
:102D90003FFA074800F03CFA00F08EFA054B1C6041
:102DA00010BDC04600F0010800E0010800E801087D
:102DB00000F80108681E0020012398430C4B70B5F1
:102DC000C5182B880B4A002693420FD10A4A0536B4
:102DD000145AE443A4B29C4208D000F05DFA2100EA
:102DE000280000F035FA060000F066FA300070BDE9
:102DF00000E00108FFFF0000660E002070B5052608
:102E0000FFF7BAFF0B4C00F047FA0B4D2988002959
:102E100007D0C943200089B200F01AFA052800D073
:102E20000600064B023402359C42EFD100F044FA12
:102E3000300070BD00E00108660E002000F00108BF
:102E4000F8B51B4B1C5A012C0FD80222194D6303F5
:102E50001D43ADB2184B194E9B1A32689A420AD9DB
:102E6000FFF7CCFF07003800F8BDE02580380422CA
:102E700080B22D02EEE7470800F00EFA30682F43CB
:102E8000831C3900336000F0E3F9E02307001B02E4
:102E90009D4209D1E143306889B2831C336000F060
:102EA000D7F9052800D0070000F006FADBE7C04696
:102EB000660E00200080FFFF00000208681E002050
:102EC00070B50D4D0D4B2A6804009A4204D9FFF7E6
:102ED00095FF0400200070BD00F0DEF9084B286863
:102EE000195D24022143831C89B22B6000F0B0F9E4
:102EF000040000F0E1F9EDE7681E0020FFFF010883
:102F0000660E0020224BF0B51C00224A2248118890
:102F10000232C943198002338242F8D1C025012709
:102F2000ED0113881D498B4208D019B21C480029B5
:102F300009DB190A635402328242F2D98020194B0C
:102F400040011A60F0BD19002940A94213D1911C1B
:102F50008C46814219D851886246C94389B20029FA
:102F6000E9D0114E5B003340803380267601B342B6
:102F7000E1D2E152DFE78021C9010B42DBD10A4EE9
:102F800059135B0039403340EFE70A00D6E7C046EB
:102F9000660E002000E0010800F00108FFFF0000BD
:102FA000FFFF0108681E0020FE3F000010B5FFF77C
:102FB000E3FEFFF7A7FF10BD802310B55B010400FF
:102FC00007209C4210D20C4B0020E2181B5D8B4264
:102FD0000AD020001170FFF7EFFE002804D17F2CEB
:102FE00003D82000FFF76CFF10BD01232000984399
:102FF000FFF726FFF8E7C046660E0020F8B58023ED
:1030000004000E0007255B01984210D20123050041
:103010001D4018420DD0C9B2FFF7CEFF01340500A4
:10302000310AA0B2FFF7C8FF052800D0050028002C
:10303000F8BD114B1F5AC218B942F8D01180FFF7E2
:10304000BBFE051EF3D17F2C11D8FAB2F3B20535C1
:103050009A4203D02000FFF733FF05003F0A360AEB
:10306000B742E4D00134A0B2FFF72AFFDCE720002A
:10307000FFF7E6FEDAE7C046660E00208022030076
:103080005201FF20934201D2014AD05C7047C046F2
:10309000660E0020084B98420BD8084BC318C20795
:1030A00005D5074A125C1878120210437047188839
:1030B000FCE70448FAE7C046FE0F0000660E002059
:1030C000670E0020FFFF000010B5FFF71BFF10BDCB
:1030D00010B5FFF76BFF10BDF0B505000C00160032
:1030E00085B0002A0BD0CB0709D54B1C471C88B2F2
:1030F0000193FFF7C3FF28703D00019C013E0123AF
:103100002F002B400293A31901960393019B012BDF
:103110000BD873085B00E418ED189E4203D0A0B2F0
:10312000FFF7ACFF287005B0F0BD039B019A981A19
:1031300080B2FFF7AFFF029B002B05D13880019BC7
:103140000237023B0193E1E73870000A7870F6E736
:10315000F7B506000C00151E0BD0CB0709D5471C90
:103160003E004B1C0178A0B20193FFF725FF019CA4
:10317000013D2F007319DB1B012F0AD86B085B0080
:10318000E418F6189D4203D03178A0B2FFF714FF7F
:10319000F7BD59781A786019C01B0902114380B233
:1031A000FFF72CFF023FE5E70122094B1000D96829
:1031B00011420CD1D9689018490708D4D9688018F1
:1031C000C90604D4D86802400520801AC0B27047EE
:1031D0000020024037B50400FF25FFF7E5FF012876
:1031E00011D1002C01D105303EBD00230193019582
:1031F000019B002B03D1FFF7D7FF013CEFE7019BB9
:10320000013B0193F4E7002CEED10620ECE700002F
:1032100070B506000C48FFF7DDFF052813D1022525
:103220000A4C094823692B432361402366612269C4
:1032300013432361FFF7CEFF062802D02369AB4377
:1032400023613423E36070BDFF0F000000200240C3
:10325000F8B5F8231B06C2180D4B05000E00072019
:103260009A4214D81830FFF7B5FF05280FD101276F
:10327000084C1A3023693B4323612E80FFF7AAFFD5
:10328000062802D02369BB4323613423E360F8BDE1
:10329000FEFF070000200240044B1A69120603D506
:1032A000034A5A60034A5A607047C04600200240F1
:1032B00023016745AB89EFCD8023024A11690B4397
:1032C000136170470020024010B52320FFF7F0FC87
:1032D0008B2801D0002010BD2420FFF7E9FC352801
:1032E000F8D11038FFF7E4FC4F3843425841F2E779
:1032F00010B58B21041E00D174312320FFF718FD77
:103300003521002C00D1CA312420FFF711FD4F21B7
:10331000002C00D1B0312520FFF70AFD10BD704709
:1033200010B52620FFF7C4FC10BD704710B504008F
:10333000FFF7FBFF2620E1B2FFF7FAFC10BD10B546
:103340000020FFF7D5FF0020FFF7F0FF00F000FDA1
:1033500000F0ECFD0120FFF7CBFF10BD10B5FFF72B
:10336000DEFFFFF7DDFFFFF7E0FFFFF7ADFF00280F
:1033700001D1FFF7E4FF10BD10B58C78002C1ED0F2
:10338000174BC3180F2B22D81238C0B200F0DCFD47
:103390000024200010BD0120FDF7ACFF0322022114
:1033A0000120FDF7DDF9F3E70120FDF7AFFF032270
:1033B00002210120FDF7D4F9EBE70220F5E7094BE4
:1033C0009842F1D0084B9842F7D00124E1E7054B31
:1033D0009842E0D0044B9842DBD10220DCE7C046A3
:1033E000EEA0FFFF105F0000115F0000FF230370DD
:1033F00070470000F8B5694B04001B680D000078A9
:10340000002B0CD0FE2828D16378022B02D9053B73
:10341000022B22D82900200000F072F91DE01328A9
:1034200010D8002810D0013812280DD8FCF7E0FE83
:10343000111A405157636666660C0C696D73809370
:103440009699A700FE28E5D029002000FFF7CEFFBF
:1034500003E0002363700933A3702900200002F009
:103460006FFFF8BD6378022B0DD0032B0ED0012B1C
:10347000EAD102F00BFC030EA370030CE370030A05
:1034800023716071E9E7FFF74BFFF4E7444B1B68DA
:10349000002BE2D00026A71C3000FFF767F80136AA
:1034A000030AF6B23B7078700237052EF4D1D4E7E8
:1034B0006378022BC8D1E278A07823791202024304
:1034C00060791B041A430006104300BAFFF72EFF71
:1034D000C3E7E278A178607800F08BFBCFE76379EF
:1034E00021791B020B435BBAE278A17860789BB22A
:1034F00000F095FBB1E700F02BFCAEE7FF23237053
:10350000ABE700F0DDFC6070A7E700F0DBFC030A2E
:103510006370A070A1E7E1781C299ED8A078667836
:103520000002304340BA221D80B200F0CFFC94E785
:103530001B4B1B68002B00D18FE7E1781C2900D9B9
:103540008BE7A07866780002304340BA221D80B233
:1035500000F0D6FC81E700F0E9FC7EE700F03EFBDE
:10356000D1E7E1781C2900D977E7A07866780002D6
:10357000304340BA221D80B200F04EFC6DE7E17886
:103580001C2900D969E7A07866780002304340BA68
:10359000221D80B200F058FC5FE7C046A026002044
:1035A000140C0020002210B5064B074C07480849B0
:1035B0005A6101329C60D86019611833202AF7D112
:1035C00010BDC04690230020013B0008653A00086A
:1035D00081390008A022F0B5124D002185B05200BB
:1035E0002800FCF79DFFC0220F4C00212000520054
:1035F000FCF796FF002601AF39002560F0B200F01D
:103600005FFB002806D1082239002800FCF734FFB0
:103610003B89A38001360A350C34202EEBD105B04E
:10362000F0BDC046022A00208C1E0020B823DB011A
:10363000984205D1034B1B685A1E93415B421840C8
:103640007047C046140C0020F0B500260227254C18
:1036500085B0254AB30001AD2900D450F0B200F086
:1036600053FB011E38D1200010220830FCF758FF10
:1036700009222B882380AB79A370AB88E370EB79A8
:1036800023712B7A63716B88E380AA566B7A002AC8
:1036900001DB164A62610122134200D022723B42D2
:1036A00002D0227A3A4322720422134202D0217AB3
:1036B0000A4322720822134202D0217A0A4322725C
:1036C0001022134202D0217A0A432272202213428E
:1036D00002D0237A1A43227201361834202EB8D130
:1036E00005B0F0BD902000200C2000209A2600207C
:1036F00010B5FFF757FFFFF76DFFFFF7A5FF10BDF0
:103700007FB50400202922D140780D281FD8FCF76E
:103710006FFD07171F1E1E3440491E535C666F72F3
:103720000822744901A8FCF7A7FE202200212000EE
:10373000FCF7F6FE052308222370201D01A919E0DD
:10374000A4232370A33B63700023A370E3707FBDA9
:10375000E178A3780902C918D22349015B00994294
:10376000F5D20A0020329A4200D91A002000624B9A
:10377000521AC918FCF780FEE9E72022FF21200039
:10378000FCF7CEFE5D4B1B6823705D4B1B686370BE
:10379000DDE701225A4B1A605A4B31321A6002F0AF
:1037A000ADFAD4E7554B1B682370554B1B6863700B
:1037B000544B1B68A370CAE7E078A378000220226C
:1037C0002100184300F07CFDC1E7E078A3780002F7
:1037D0001F22611C184300F097FD2070B7E7E078C6
:1037E000A37800021C22211D184300F0A7FDF4E776
:1037F00000F032FDABE7A0780628A8D8FCF7F8FC6B
:10380000040E1C3B465A6500202500212A0020009A
:10381000FCF786FE25706570A57098E7E5780021B5
:103820000A2201A8FCF77CFE280001A900F024FA76
:1038300020700A22601C81E701AD0A22211D2800A8
:10384000E678FCF719FE2888FFF7F0FE28806888E4
:10385000FFF7ECFE6880A888FFF7E8FEA880E888FC
:10386000FFF7E4FE2900E880300000F017FA20702E
:10387000FFF798FE6BE7E5780A22002101A8FCF724
:103880004FFE280001A900F01BFAD1E70A22211DF2
:1038900001A8E578FCF7F0FD6B469889FFF7C6FEB6
:1038A0006B4601A99881280000F01CFA2070FFF7F0
:1038B00091FE4CE7E5780A22002101A8FCF730FED2
:1038C000280001A900F020FAB2E70A22211D01A870
:1038D000E578FCF7D1FD6B46D888FFF7A7FE6B466D
:1038E00001A9D880280000F021FA2070FFF7ACFE73
:1038F0002DE7C0460086000809860008140C002049
:10390000A02600209C2600200C4B13B51880802395
:103910009B01984202D2FCF78FFE13BD6A46012438
:10392000074B9470138002F0E9F96B4604439C80C6
:1039300000980199FDF70CF8EFE7C046422B0020F4
:10394000F0F0FFFF0C4B07B5188080239B019842D5
:1039500002D2FCF787FE07BD6A46084B138000239E
:10396000937002F0CBF901236A46034393800098D9
:103970000199FCF7EDFFEEE7422B0020F0F0FFFF8E
:1039800070B5214C06000D00C8B2210000F074F99A
:10399000011E38D11D4BD88B00281CD000231C4A97
:1039A00004F094FB00231B4A80185941FA2200239B
:1039B0009200FCF7D7FC03F06EF90022164BEDB233
:1039C000585DB27001385A5504281CD8FCF710FC19
:1039D00018050B0D18000120EDE7608800280FD0B6
:1039E000FFF7B0FF0FE0A088F8E7E0880028F7D1E4
:1039F00023886088002B04D00028F1D11800EFE75D
:103A000020880028ECD170BD90260020442B002097
:103A1000A0860100E70300006C1E002010B5040022
:103A2000FFF772FF0C4BD88B002813D000230B4AF2
:103A3000002104F04BFB0023094A80185941FA2267
:103A400000239200FCF78EFC03F025F92000FFF71D
:103A500079FF10BD0120F7E7442B0020A08601006C
:103A6000E703000070B5244C05000E00C8B2210029
:103A700000F002F900283CD1AB78204AF6B2012BC5
:103A80000FD16879410701D5935506E0C107FBD5F1
:103A9000022393556088002810D12088002828D060
:103AA0000CE0022B23D168790233184217D1C107E9
:103AB00007D4013B9355A088002812D0FFF724FFBC
:103AC00017E09355E0880028F8D12088002811D00D
:103AD000FFF7A4FF60880028F0D12088EEE70523D7
:103AE00093552088002804D0FFF798FFF5E70623B8
:103AF000935570BD6088D1E7902600206C1E002091
:103B000070B50D4C0500C8B2210000F0B5F80028D2
:103B100011D12488002C0ED0AB78032B09D12000C2
:103B2000FFF77CFF2000FFF779FF2000FFF776FF0B
:103B300001E0032BF9D870BD902600207FB50A4B19
:103B40000400C3180D00FF2B09D801AE3100C0B22C
:103B500000F092F8002802D1308904B070BD29002D
:103B6000200000F00BFCF8E700A9FFFF70B58B7890
:103B7000002B1CD1164BC01884B2FF2C17D8154D42
:103B8000E0B2290000F078F8002810D11823634330
:103B90001148C3189B78012B0BD12B88002B06D022
:103BA0006B88002B03D0AB88EA88134306D0012032
:103BB00070BD022BFBD1AB88002BF8D0182301225B
:103BC0005C43001943799343437101F0A9FEEEE78A
:103BD00000A9FFFF902600209023002004207047BA
:103BE0001E234B4352009B1896225043181827302F
:103BF000704770B5002403280FD804290DD80E2A69
:103C00000BD8FFF7EDFF0500FFF752F80402681C20
:103C1000FFF74EF8A4B20443A4B2200070BD70B503
:103C20001D0003280DD804290BD80E2A09D8FFF748
:103C3000D7FF0400290AFFF77BF8E9B2601CFFF701
:103C400077F870BD030010B50020232B04D8034A79
:103C50009B1898B2FFF72CF810BDC0467F020000F9
:103C600010B5232804D8034BC01880B2FFF760F8C2
:103C700010BDC0467F020000030010B508001F2BD6
:103C800007D80A22534304495918FFF725FA0020A0
:103C900010BD01204042FBE7A3020000030010B565
:103CA00008001F2B07D80A22534304495918FFF76D
:103CB0004FFA002010BD01204042FBE7A3020000A4
:103CC000030010B508001F2B07D80A2253430449EC
:103CD0005918FFF701FA002010BD01204042FBE710
:103CE000E3030000030010B508001F2B07D80A22C9
:103CF000534304495918FFF72BFA002010BD012047
:103D00004042FBE7E3030000030010B508001F2B4F
:103D100007D80A22534304495918FFF7DDF9002058
:103D200010BD01204042FBE723050000030010B551
:103D300008001F2B07D80A22534304495918FFF7DC
:103D400007FA002010BD01204042FBE723050000D8
:103D5000F0B52F4B8DB01A680024019201221A6031
:103D6000962565432B4B0027ED1812E0FCF72CFC41
:103D7000F9B20300F2B2E0B2A3420CDD7300EB5AD9
:103D80000136FFF74CFF0F2EF0D101371E35052FFE
:103D900003D00026EAE70123F2E70134042CDFD147
:103DA00000F05AFA0024C82203AD2C806C80AC804D
:103DB000EC802A81E0B229000134FFF76FFF202C4C
:103DC000F8D10A22002106A8FCF7AAFB0024E0B2E1
:103DD00006A90134FFF786FF202CF8D10922002123
:103DE00009A8FCF79DFB0123252100245B4202AAC0
:103DF0001384083352181370E0B209A90134FFF795
:103E000095FF202CF8D1024B019A1A600DB0F0BD3D
:103E1000140C0020FA820008F8B527309627140009
:103E200005005618BF00B44200D1F8BD2B00273B57
:103E3000BB4206DA2800FEF73BFF20700135013453
:103E4000F1E700232370F9E7F8B596270400150081
:103E5000BF00B84206D23A1A8A4203DB27346E18F2
:103E6000B54200D1F8BD2300273BBB4203DA200056
:103E70002978FEF75DFF01350134F1E737B503001E
:103E800000200D4A01AD14682980844208D1697868
:103E900020002A78F02904D1F02A01D1074B188894
:103EA0003EBD032BFCD80429FAD80E2AF8D81800F6
:103EB000FFF79FFEF4E7C046A0260020422B00201B
:103EC00010207047004870479D09000070B514002D
:103ED00005005618084BE818B44200D170BD074BD6
:103EE0009D4205DCFEF7E4FE207001340135F1E768
:103EF00000232370F9E7C046630600009C09000018
:103F000070B5140005005618064BE818B44200D1ED
:103F100070BD054B9D4202DC2178FEF709FF01349C
:103F20000135F1E7630600009C09000070B58025AB
:103F3000044C6D01200000210134FEF7F9FEAC4273
:103F4000F8D170BD63060000F0B5050085B00F28FC
:103F500000D983E04248FEF7ABFE00287ED18026E0
:103F6000404C7601002D22D103952000FEF7A0FEE3
:103F7000002303AD661C28706B7098426ED0012838
:103F800067D13000FEF794FEA71C6870002865D04A
:103F9000431E022B16D83800FEF78AFEE61CA870D6
:103FA000002802D0280000F0EBFB3400DDE7B4422B
:103FB00054D02000FEF77CFE002801D1013DEDB277
:103FC0000134CFE7431F022B29D8E31C38000193AB
:103FD000FEF76EFEE61CA8700028E6D00198FEF7FA
:103FE00067FE261DE8700028DFD002ABD88802AB40
:103FF0005880FF231B02984201D9000280B26B78DF
:10400000062B06D0072B07D0052BCED1FFF706FDD8
:10401000CBE7FFF779FCC8E7FFF794FCC5E73E0064
:104020000428C2D13800FEF743FE0500E01C261D1F
:10403000FEF73EFE002D11D000280FD0FF230138DF
:104040005843013D4519013DAFD3642002F023FEE2
:10405000F9E73221280000F049FBA6E705B0F0BDE2
:10406000FF0F00006306000010B5104C0A21A08865
:10407000FCF7DCF80E4B0A211870E2880D4B1A7021
:1040800062890D4B1A70A2890C4B1A70E089FCF7FB
:10409000CDF80B4B1870228A0A4B1A70628A0A4BB1
:1040A0001A70A28A094B1A7010BDC046442B00201A
:1040B000080C0020090C00200A0C00200B0C00202A
:1040C0000C0C00200D0C00200E0C00200F0C00200A
:1040D00013B50800032A24D90623134A117852780D
:1040E000CC070B40E40F234308240C402343102447
:1040F0000C40234320240C40234340240C40C90996
:10410000C90123430B43D1079207C90DD20F0B43BB
:104110005202134301A904220193FCF7ADF90020D8
:1041200016BD01204042FBE7EC29002003000800F7
:1041300011005A8810B58A4204D85968FCF79CF9D6
:10414000002010BD01204042FBE7000013B5032A08
:1041500037D9042201A8FCF78FF9FCF725FD0121CE
:10416000019A194B50081400084088400C40204325
:1041700094080C40A4002043D4080C40E4002043E1
:1041800014090C402401204354090C4064012043CD
:1041900094090C40A4012043D4090C40E4012043BD
:1041A000140A520A0C4011401A8824024902204382
:1041B000920A0843920210431880FDF791FE0020F6
:1041C00016BD01204042FBE7EC29002010B5024B50
:1041D000188800F037FC10BD442B002070B5002477
:1041E000A5B22800FFF72EFD054B195D884202D0CD
:1041F0002800FFF735FD0134242CF1D170BDC046F5
:10420000442B002010B54388934207D81A00406819
:10421000FCF732F9FFF7E2FF002010BD0120404219
:10422000FBE7000070B50024A0B2FFF70BFD084BC0
:1042300018550134242CF7D10024064D2B69002B8E
:1042400000D0984701341435152CF7D170BDC04605
:10425000442B0020B0870008AF22164B10B51A80FF
:10426000154A14215A800A22D9809A805A818918C5
:10427000DA811E329A82A03208201A830022188125
:104280009981588232312A305A83053219829A83B1
:10429000D8831984D8820333DA77FFF79FFFFCF7BE
:1042A00083FC8020054BC0001880FDF719FEFFF746
:1042B000B9FF10BD442B002088130000EC2900201A
:1042C000F0B50D0085B00190FF2128001600FCF725
:1042D00027F900200A4C871CB7420FD802AA911D6B
:1042E0002388019A0B80934204D902222818FCF7F4
:1042F000C3F83800034B1434A342ECD105B0F0BD31
:10430000B087000854890008F8B50400002314277A
:10431000094D3E005E437019AE5BA64205D183682D
:10432000002B06D10120404204E00133152BF0D1CF
:10433000F8E79847F8BDC046B0870008F8B50023F5
:1043400014270D4C3E005E433519A65B864205D10D
:10435000EB68002B06D1012464420BE00133152BDE
:10436000F0D1F8E728009847041E03D12B69002BF1
:1043700000D098472000F8BDB0870008014B188B8B
:104380007047C046442B0020024B587F0123184041
:104390007047C046442B0020024B587F8007C00F57
:1043A0007047C046442B0020024B587F4007C00F87
:1043B0007047C046442B0020024B587F0007C00FB7
:1043C0007047C046442B0020014BD88A7047C04636
:1043D000442B0020272806D81D2818D8031F0020AA
:1043E000192B0ED97047382805D82C2805D82B282A
:1043F00003D00020F6E76428FBD1074BDB7E9B0847
:1044000002E0054BDB7E1B0901209843EAE7024BE3
:10441000DB7EDB08F8E7C046442B0020024BD87E49
:104420008006C00F7047C046442B0020024BD87E48
:104430004006C00F7047C046442B002070B50500F1
:104440008878002800D1FDE07F4EB54206D01BD809
:104450007E4B9D4213D87E4B9D4214D9FDF734FD0F
:104460007C4C7A4B20809D4226D8794B9D4213D8B4
:104470002088FDF735FDFCF797FB002003E0764B25
:10448000EB18082BEAD970BD744B9D42E6D0744BF3
:10449000EB18022BF7D8E1E7724BE818122832D854
:1044A000FBF7A6FE3A3D40494C4F525860696C6F8D
:1044B000787B7E8187A78D006B4B9D420CD86B4B20
:1044C0009D42D5D96A4BE81807282ED8FBF790FEF5
:1044D000305C5F4674849B9FB54200D199E0654B88
:1044E000E81883B20A2BC3D80A28C1D8FBF78AFE82
:1044F0009900C0FFC0FFC0FFC0FFC0FFC0FFC0FFEA
:1045000010003E00A1000123227813432370AFE77F
:104510000823627813432CE002232278F5E7042372
:104520002278F2E708232278EFE701236278F1E7A7
:1045300002236278EEE710232278E6E72023227830
:10454000E3E740232278E0E7FCF72EFB8023227884
:104550005B42DAE70C2322789A43D6E7032362789A
:104560009A43D7E7012223789343CFE70822637861
:10457000934363707CE702222378F5E704222378D3
:10458000F2E708222378EFE701226378F0E70222BE
:104590006378EDE710222378E6E720222378E3E72B
:1045A00040222378E0E7FCF7FFFA7F2223781340CC
:1045B000ACE70C222378D7E703226378D8E70122FF
:1045C000042023785907C90F8A43910083430B4382
:1045D0000821D2008B4398E7012108006378DA07AD
:1045E000D20F904302228B430343410093430B437A
:1045F000BFE7FCF7D9FA01222378D9094A407F2185
:10460000D2010B4081E70120FDF7E0FC30E70020FC
:10461000FAE701222378D906C90F8A431201102133
:10462000D8E7012108002378DA07D20F904302006F
:10463000D0E7012263781907C90F8A430821D20005
:104640008B4367E701201EE7615D0000155C0000F9
:10465000015C0000EC29002006A3FFFFA55D00001F
:1046600053A2FFFFFDA3FFFF025D0000F95C000005
:1046700005A3FFFF5BA2FFFFF8B5184BC1081D5C47
:1046800007231840164B174C5A5C174F0241645CC5
:104690007F5C01231600044107411E401C401F405F
:1046A0001A4202D0E120FCF7B3F9002C02D0E62038
:1046B000FCF7AEF92800FCF735FA002C02D0E62012
:1046C000FCF7ECF9002E02D0E120FCF7E7F9002F0F
:1046D00002D02C20FCF726FAF8BDC04674890008E9
:1046E000F48900085489000864890008F7B50400BB
:1046F00004260A270191207800283DD0012838D1CE
:104700006378012B0ED1A078A51CFCF70BFA2C00C6
:10471000019D0134002DEED06420013D02F0BBFA72
:10472000EDB2F7E7022B04D1A078A51CFCF770F9D5
:10473000EDE7032B04D1A078A51CFCF7AFF9E6E761
:10474000042B01D00134E3E700250C4AA37802349E
:10475000D05C611C304206D1002DD9D0642002F01B
:104760009AFA013DF8E77D43303B5D1963780C0010
:10477000EEE7FFF781FFCBE7F7BDC046F981000800
:1047800010B50021FFF7B2FF10BD0000082210B5E0
:104790000D4C0220237893432370FDF73BFA10223F
:1047A0002378134204D0934302202370FDF70EFABE
:1047B00020202378034203D083432370FDF706FAB9
:1047C000FDF796FA10BDC046180C002010B5040085
:1047D000002902D00220FDF715FA8022084B920131
:1047E000E3189BB2934206D38022064B5201E31892
:1047F0009BB2934200D2E4B22000FBF71DFF10BD34
:1048000000A0FFFF00C0FFFF8022094B10B5C318B6
:104810009BB29201934206D38022064B5201C318E9
:104820009BB2934200D2C0B2FBF71CFF10BDC04642
:1048300000A0FFFF00C0FFFF0F2302091A4018402D
:104840000E3B834070B5064D5200545F1BB20029E9
:1048500002D02343535370BD9C435453FBE7C046DF
:10486000B02600200F220309044913405B005B5A65
:10487000104003411800012318407047B026002063
:10488000F7B5474E1C0033780500464F0091019262
:104890005B0700D474E03888A84202D0002D00D015
:1048A0006EE004233178022599430A0031702A40D2
:1048B000033B294209D13C4B00991B88CB1A3B4949
:1048C0009BB209888B42524113000122190011400A
:1048D0000B00022593403278AA4313433370FFF74D
:1048E000ABFFFDF76DF9284206D01023327828007F
:1048F00013433370FDF772F9FDF762F92023284D59
:10490000184205D02A7818001A432A70FDF766F974
:104910002978244E890722003088C90FFFF756FFF7
:10492000019B002B05D1224BD88B00280ED10120F2
:104930001AE021003088FFF771FD0028F3D0210034
:104940003088FFF773FD0028EDD1F7BD0023194A29
:10495000002103F0BBFB0023174A80185941FA22BB
:1049600000239200FBF7FEFC02F095F92978220063
:1049700089073088C90FFFF747FFFFF707FF0AE0F5
:104980002800FFF76FFF220001002800FFF73CFF1F
:104990003B88AB42F1D0044B009A1A80D5E7C04661
:1049A000180C0020A4260020D02600201A0C00207D
:1049B000442B0020A0860100E703000010B501246D
:1049C0000C4BDB7E234214D00B4B1B785B0710D5BE
:1049D00001F094F9094B0A4A1B881288C31A9BB24A
:1049E00001009A4205D8074B22001888064BFFF7B2
:1049F00047FF10BD442B0020180C0020D0260020BB
:104A00001A0C0020A4260020A6260020012010B5A4
:104A1000040005490B78DA07D20F944383432343FC
:104A20000B70FFF7B3FE10BD180C0020012110B56C
:104A3000034A13788B431370FFF7A8FE10BDC046DE
:104A4000180C0020014B18807047C0461A0C00203B
:104A5000F7B5894B0400DB7E0E00DB0702D401258D
:104A60002800FEBD01F04AF90190B378834F002B76
:104A70002DD03B785B0705D500220100804B10004C
:104A8000FFF7FEFE7F4B9C4219D07F4B9C421BD010
:104A90007E4B9C4201D1FFF7B9FF80227C4B9201F3
:104AA000E3189BB2934206D380227A4B5201E3185B
:104AB0009BB2934211D20022774B1A80CFE7012399
:104AC0003A7813433B70E8E7FFF7B0FFE5E7E12CE6
:104AD00038D110223B7893433B703B78DB07BED53F
:104AE00031002000FFF776FCB578002800D1BEE049
:104AF000002D00D1B4E0FDF763F80500FDF7B0F834
:104B000002220543EDB2954340D0002315006249CF
:104B10000B80594BDB7E1D40134237D1290020000A
:104B2000FFF78AFE320029002000FFF74FFEFDF755
:104B300097F802239843C0B2FDF7B0F80220FDF7C2
:104B400057F98DE7E52C02D120223B78C3E780227C
:104B50004F4B9201E3189BB2934206D380224D4BF8
:104B60005201E3189BB29342B7D23B785B0700D463
:104B700075E731002000FFF70FFC002800D06EE73A
:104B800002003F4B0199FFF77BFE68E73C4D0A228C
:104B900031002800FBF770FC0023AB70AB803E4B6C
:104BA0001B889C423CD131002000FFF737FC0028D5
:104BB00036D03B789B072CD4384B31001D88019BA5
:104BC0005D1B354BADB21888FEF7B8FF854227D282
:104BD000FCF7F6FF0222104206D0102339781000AD
:104BE0000B433B70FCF7FAFFFCF7EAFF2023184267
:104BF00005D03A7818001A433A70FCF7EFFF39787D
:104C0000254B890732001888C90FFFF7DFFD002503
:104C100026E7214B31001888FFF708FC0028CBD18C
:104C2000FCF7CEFF0500FDF71BF805430220022626
:104C300028403D78B54305433D70FDF711F8B0437A
:104C4000C0B2FDF72BF8144B019A1C80134B3000B7
:104C50001A8004233A7813433B70FDF7C9F8D6E76E
:104C600033002A0020000199FFF70AFEF8E6002D24
:104C700000D020E7F3E6C046442B0020180C0020AB
:104C8000A62600201B5C00001C5C00001A5C0000D3
:104C900000A0FFFF00C0FFFFA4260020D0260020B8
:104CA00070470000F0B5294F85B03B78002B0AD043
:104CB000274B1D78002301933A78254BAA4204D84C
:104CC00000223A701A7005B0F0BD0E246C43214EDC
:104CD0006A1CD2B234191A7000922100062202A86E
:104CE000FBF7CAFBA388002B21D002AB1A881A4B12
:104CF0009A421CD02289002A1BD16089984218D080
:104D00000121FFF7CDFF0E235D4300237619B38009
:104D1000FCF788FF019B002B09D12000FBF770FFF7
:104D2000002804D10D4801F0B6FF01230193009D36
:104D3000C2E760882388E18800041843A388090437
:104D400022891943FCF75AFEDDE7C0464D270020B3
:104D50004C270020DC260020FFFF00008813000005
:104D60000023084A1380084A1088084A984200D154
:104D70007047D179002901D19171117201339BB231
:104D80000C32F3E74E2700201C0C00208C1E002064
:104D9000F0B50E490E4B0C781A78032623000D4D02
:104DA0009A420FD05F007F5B87420CD10C224243B6
:104DB0000948801801228271A34203D19B18023254
:104DC00013400B70F0BD01333340E9E7DA260020D1
:104DD000DB260020D22600208C1E0020F0B585B0F6
:104DE00001908B790C00002B3BD11800204A2149FF
:104DF00012780392039DDAB295422FD98A89160060
:104E0000226802921C4A94460022029D57007F5B52
:104E1000002F06D0BE4201D195B2AC460132D2B2CB
:104E2000F3E7154DAC451FD001256646B540284334
:104E3000012595402A00C0B2013A824213D10E27C3
:104E40007B430C4F0222FF18A38838003B810B499B
:104E5000FBF712FB019B7B810123E3710198FFF7B4
:104E600097FF05B0F0BD8F8001330E31C2E7C04619
:104E70004D270020DC260020FFFF0000F481000801
:104E800070B50C2503260B4B1C780B4B1B78A342EB
:104E900004D1FFF707FFFFF763FF70BD2900074B41
:104EA0006200D05A064B41430134C918FFF796FF00
:104EB0003440EAE7DA260020DB260020D226002054
:104EC0008C1E0020F7B50024012503682200019301
:104ED000AC462300019E5500AD5B002D0FD00B6842
:104EE0001F00002304E0B54200D164460133DBB269
:104EF0005E00F65B002EF6D10132D2B2EAE7002C5A
:104F000003D09A4200D90800FEBD2000FCE7000053
:104F1000104B70B51B78002B14D00F4C2088002844
:104F200010D000F0F0FE0D4E338883420AD20C4BB5
:104F300000251A780B4B1B789A4204D0FFF7A0FF8C
:104F40003580258070BDFFF7ADFE2580FFF708FF97
:104F5000F8E7C0461E0C0020502700204E270020F6
:104F6000DA260020DB2600200023074A10B5138034
:104F7000064A1370064B1A78064B1A70FFF7F0FEBC
:104F8000FFF790FE10BDC046502700201E0C0020E9
:104F9000DB260020DA260020054B10B51A78002AFF
:104FA00002D0FFF7E1FF10BD01221A70FBE7C046F7
:104FB0001E0C0020F0B58BB0039004918B78019308
:104FC0009F4B98420AD10024019BA34200D174E078
:104FD00001229C4B1A7001980BB0F0BD9A4B039ABA
:104FE0009A4206D10024019BA34266D0FFF7BCFF82
:104FF000F1E7964B039A00249A4200D00CE1019B02
:10500000A3425AD0FFF7C8FFE5E70C23904F0025D5
:105010003A0063438F4E99596B005B5A002B06D0C0
:105020000398984200D1AFB20135EDB2F4E7029394
:1050300097423CD00C226243B21890791A000028A3
:1050400001D1804B1A78049B9B780293002B00D1EE
:1050500095E0002A00D192E00C2666437D4B2000AB
:10506000F6183100FFF7B0F9F3790590002B09D15C
:105070000122BA40337A13433372774B1A88824243
:1050800000D2188001230C22AB406243714D013BDA
:10509000AD182A7A93420AD1704B188800283BD069
:1050A00000F031FE059B834236D20123AB71019B98
:1050B000029A013413430193A4B2694B1B88A342A3
:1050C000A3D8049B9B78002B00D1A7E0019B002B69
:1050D00000D1A3E000F012FE604B1880614B1C78F9
:1050E000072C14D8621C1A7004990A2207A8FBF72F
:1050F000C3F90E2363435C4C0A22E418200007A97D
:10510000FBF7BAF901235B426381039BA38101236F
:10511000019A5A4001925EE70020544B1D78544B8F
:105120001B780593059B9D420AD18642BFD0514B07
:105130006A00D452032301351D404D4B1D70B6E764
:105140004C4B6A00D75A0C235F43424B3100FF1887
:105150003800FFF7B7FE00280DD001238371864287
:10516000A5D0424A13789D4205D1874203D103213D
:105170006B1C0B401370032301351D40D2E70C2339
:105180006343F618F37902930299337A002917D111
:105190000131A9400139994208D1002803D10123E6
:1051A0001340029302E02000FFF7F2FD01210C22E0
:1051B000B9406243274B9B181A7A8A431A7276E7E2
:1051C0001A001900581E3A4101400342E7D1012359
:1051D0001A42E4D0B388002B19D007AD082228006A
:1051E000FBF79EF9244B2B8000F088FD0123184328
:1051F000B388A8802B8107980899099AFCF7FEFBD1
:105200000C226243134B9B180022DA71CEE719007F
:105210002000FFF745FDF3E701944EE7134B1A78A2
:10522000134B1B789A4202D0FFF72AFE6FE7FFF775
:1052300039FD0022094B1A80FFF792FD67E7C0464F
:10524000F75C00001E0C0020F85C0000F95C000018
:10525000FFFF00008C1E00204E270020502700205A
:105260001C0C00204D270020DC260020DA26002020
:10527000DB260020D2260020FEFEFFFF234B70B568
:105280000C000125984236D1FCF79AFCAA23204A4B
:105290000340917E294205D04422024055426A4192
:1052A000524213408A0705D51122024055426A41F5
:1052B000524213404A0705D58822024055426A41AE
:1052C000524213400A0705D5222210404242504163
:1052D00040420340A1780F4A00290ED01900481E11
:1052E000814135201170002B00D10C38FCF7FEFBFA
:1052F000FCF7FEFC0025280070BD13783520002B3C
:1053000000D10C38FCF7FCFBF2E7C046165C00004D
:10531000442B002052270020F8B50B4F04003868BA
:1053200000F0F8FCFA23094E094D5B00984205D2C3
:105330003A6832602B60074B1C80F8BD00F0A6FC79
:1053400032233060F6E7C04668270020602700203F
:105350005C2700206427002010B50279030000209C
:105360000A420AD19C780130002C06D01B7A2140D9
:105370001B0703D54B1E9941C8B210BD0F20230057
:10538000240903400840090923430843181A4342EB
:105390005841C0B2F1E70000F8B5244E0700336869
:1053A000002B3CD00022224B1A80FCF753FCFCF768
:1053B00045FCF82233685201DC88611EFF399142B6
:1053C00001D21C4A1440E4B225006A1E9541DA68F5
:1053D000EDB2002A03D00020196990470540002D46
:1053E00006D0231FDBB2A02B1AD82000FCF788FBC5
:1053F000114C002F0ED033681A7AD2060AD42278C4
:10540000002A07D018880D4A431E9BB2934201D848
:10541000FFF782FFFCF76CFC002333602370F8BDBC
:10542000FCF766FC2000FBF739FBE1E7542700207E
:1054300064270020FFE0FFFF58270020AF5D000039
:10544000002010B5024B1870FFF7A6FF10BDC04634
:105450001F0C0020054B10B51A78002A02D0FFF768
:10546000EFFF10BD01221A70FBE7C0461F0C0020A1
:1054700070B50A4C2388002B0ED0094E306800F01E
:1054800049FC084D2B68984206D32088FBF7D4F8D6
:105490000023238033602B6070BDC046642700204A
:1054A000602700205C270020F0B58BB003918D7839
:1054B0000600002D13D09F4B984209D09E4B984276
:1054C0000AD09E4B98420AD1FFF7C4FF00230CE09C
:1054D00001229B4B1A70F9E7FFF7B2FFF6E7984BF2
:1054E0001B780193002B04D10123019301980BB089
:1054F000F0BD3300E03B9BB20293FCF761FB070079
:10550000FCF710FB0400FCF7ABFB029B04432743B2
:105510007CB2FFB2072B48D80723012033409840C4
:10552000270040B28743FFB2002D01D00443E7B209
:10553000029B072B02D9002D00D1C8E0039B1888DD
:10554000FBF75CFF7F4B1B680693002B00D1BEE08E
:105550000123834008937C4B1B6807937B4B1B887C
:10556000099300230593059B069A9B009C58002CE9
:1055700000D1ACE0002F02D1A378002B11D1E37849
:10558000089A1A420DD00722237A134200D1CBE0A9
:10559000029A072A18D8002D14D05B080122134064
:1055A00015D1059B0133DBB2DCE7684B002D00D140
:1055B000B0E01E8000F06AFB0022654B1860654B6E
:1055C0001A80B5E79B08E9E701221342E9D0238856
:1055D00003939E4201D1002DE3D0079B9C42E0D073
:1055E0006369002B02D01B78002BDAD03900200031
:1055F000FFF7B2FE0028D4D0039B04959E4201D051
:1056000000230493039A53425341049A134304D151
:10561000039A09998A42C4D104930020FFF7BCFE83
:105620000122494B1C604C4B1A706079FCF70CFB53
:10563000049B002B09D1039B002B06D02388D8B2F2
:10564000043BA02B28D8FCF75BFAF823E5885B0124
:105650006A1EFF3A9A4201D2404B1D400027404A41
:105660006B1E9BB29A427F41E368FFB2002B03D0CE
:105670000120216998470740002F0AD0E088FAF7F7
:10568000A5FFFCF7D5FA029B072B08D82800FFF7E7
:1056900043FEFCF72DFB09E0FBF700FAD5E7ECB27F
:1056A000043DA02D09D82000FCF720FA049B002B14
:1056B00000D119E7FCF71CFB08E7FCF719FBFA20FF
:1056C000800001F0E8FA2000FBF7A2F9EEE71E4B9C
:1056D0001868002800D107E7029B072B09D839007A
:1056E000FFF73AFE002800D0FEE60130FFF754FE37
:1056F000FCE60388B34205D1002D06D1164B1D7080
:105700000020F3E7002D00D1EEE6037A9B0600D5DA
:10571000EAE6F5E71A88B24200D009E71D800C4B93
:105720001D600C4B1D8003E70723029A9A4200D8A4
:1057300031E74CE75F5D0000605D00005E5D0000EA
:105740001F0C0020100C002054270020662700208A
:10575000682700206427002058270020FFE0FFFF73
:10576000AF5D0000F0B585B01D000AAB1B7801915C
:1057700002931400827807002B4B002A12D01C7071
:1057800000F0BCFA294B188023002033DBB2072B32
:1057900006D8072201201440A040C0B2FBF7CEF982
:1057A00005B0F0BD1E78A64233D1204B188800F01A
:1057B000AAFA390003900198FEF7C0F9039B8342CF
:1057C00027D22C002034AE4215D033002033DBB278
:1057D000072B06D8072301201E40B040C0B2FBF7BC
:1057E000B5F9E3B2072B06D8072301202B409840D8
:1057F000C0B2FBF7A3F90298E4B2FBF793F9072CC8
:10580000CED8072301201D40A840C0B2FBF79EF967
:10581000C6E723002033DBB2072BC1D807220120C3
:105820001440A040F1E7C0466C2700206E270020FE
:10583000264B13B50C0098420BD8254B98420FD835
:10584000244B98421AD0244B984237D0234B98428D
:105850000ED0A078002836D00022214B1A701AE012
:10586000204BC01802280DD8FAF7C2FC161C2200E3
:1058700026230093BB331A00010008E0272300937E
:10588000BE33F8E72623E02217490093BB332000FC
:10589000FFF768FF002016BD2723E4220093134979
:1058A000BE33F4E72623E22200931149BB33EEE72F
:1058B0002723E62200930549BE33E8E72823E522A3
:1058C0000093273BD8E70120E5E7C046F65C0000DF
:1058D000F25C0000D85C0000D95C0000D75C0000DE
:1058E0006C2700200CA3FFFFF35C0000F45C0000B9
:1058F000F55C0000036910B50400002B01D041697C
:105900009847E078FCF786F92079FCF767F9FCF70F
:10591000EFF9062200212000FAF702FE10BD000078
:10592000427910B50400930710D402231343437146
:10593000C078FCF767F92079FCF748F9FCF7D8F94B
:10594000E368002B02D02000616998470022044BD5
:105950001A806379DB0702D42000FFF7CBFF10BD6C
:105960007027002070B58B780400002B13D00A4BF1
:105970001B88002B0FD083420DD01822DBB253437B
:105980000649143AC81845792A4342715C52FFF718
:10599000C7FFFCF747F970BD702700209023002057
:1059A000F8B5204B0500C318FF2B32D818248A788D
:1059B000C7B2012110007C431B4E0840A419637933
:1059C0008B4303436371002A25D000F097F9174BEE
:1059D0001880A3780133A370FCF7F2F8E070FCF7AD
:1059E0000BF9E3781843E070FCF73AF9A3682071EB
:1059F000002B02D0200061699847182302225F43E0
:105A0000F619737913405A4253415B421D40084BCB
:105A10001D800120F8BD63799B07FAD52000FFF7B0
:105A200069FFF6E700A9FFFF9023002072270020FE
:105A3000702700207FB5104C2388002B1AD00F4B05
:105A4000188800F060F92688050000210A2201A8C4
:105A5000FAF766FD300001A9FEF770F8854209D912
:105A60001820237843430648C01843795B0701D4C4
:105A7000FFF756FF7FBDC046702700207227002029
:105A800090230020014B18607047C0467427002007
:105A9000034B10B51B68181E01D01B68984710BD3A
:105AA00074270020034B10B51B68002B01D05B68E6
:105AB000984710BD74270020044B10B51B68002BBD
:105AC00003D0022202709B68984710BD7427002003
:105AD000064B10B51A88824206D01880044B1B680A
