:020000040800F2
:10000000000400201D8100081F8100081F810008D6
:100010001F8100081F8100081F8100081F81000840
:100020001F8100081F8100081F81000819ED0008CA
:100030001F8100081F8100081F8100081F81000820
:100040001F8100081F8100081F8100081F81000810
:100050001F8100081F8100081F8100081F81000800
:100060001F8100081F8100081F8100081F810008F0
:100070001F8100081F8100081F8100081F810008E0
:100080001F8100081F8100081F8100081F810008D0
:100090001F8100081F8100081F8100081F810008C0
:1000A0001F8100081F8100081F8100081F810008B0
:1000B0003FF800081F8100081F8100081F81000809
:1000C0001F8100081F8100081F8100081F81000890
:1000D0001F8100081F8100081F8100081F81000880
:1000E0001F8100081F8100081F8100081F81000870
:1000F0001F8100081F8100081F8100081F81000860
:100100001F8100081F8100081F8100081F8100084F
:100110001F8100081F8100081F8100081F8100083F
:100120001F8100081F8100081F8100081F8100082F
:100130001F8100081F8100081F8100081F8100081F
:100140001F8100081F8100081F810008410101086C
:100150001F8100081F8100081F8100081F810008FF
:100160001F8100081F8100081F8100081F810008EF
:100170001F8100081F8100081F8100081F810008DF
:100180001F8100081F8100081F8100081F810008CF
:100190001F8100081F8100081F8100081F810008BF
:1001A0001F8100081F8100081F8100081F810008AF
:1001B0001F8100081F8100081F8100081F8100089F
:1001C0001F8100081F8100081F8100081F8100088F
:1001D0001F8100081F8100081F8100081F8100087F
:1080000072B6374880F30888364880F309883648C6
:108010003649086040F20000CCF200004EF63471A0
:10802000CEF200010860BFF34F8FBFF36F8F40F2B5
:108030000000C0F2F0004EF68851CEF20001086058
:10804000BFF34F8FBFF36F8F4FF00000E1EE100AC8
:108050004EF63C71CEF200010860062080F31488D1
:10806000BFF36F8F06F040FB06F020F94FF055305C
:108070001F491B4A91423CBF41F8040BFAE71D49D6
:10808000184A91423CBF41F8040BFAE71A491B4ACF
:108090001B4B9A423EBF51F8040B42F8040BF8E721
:1080A00000201849184A91423CBF41F8040BFAE7F6
:1080B00006F01EFB06F019FB144C154DAC4203DA1A
:1080C00054F8041B8847F9E702F076FA114C124D78
:1080D000AC4203DA54F8041B8847F9E706F006BB04
:1080E00000040020000C00200000000808ED00E063
:1080F000000000200004002038140108000C0020BB
:10810000740D0020780D0020983D002000800008AC
:1081100000800008008000080080000870E700F080
:1081200000F8FEE72DE9F04F2DED108AC1F80CD0D4
:10813000C3689D46BDEC108ABDE8F08F002383F331
:1081400011882846A047002006F06AFDFEE706F0E9
:10815000C3FC00DFFEE7000053B94AB9002908BF9D
:1081600000281CBF4FF0FF314FF0FF3000F00CB87B
:10817000ADF1080C6DE904CE08F0F4F9DDF804E087
:10818000DDE9022304B07047704700BF032A70B4D2
:1081900012D940EA0105AD0704460B4620D1194625
:1081A000204653F8045B54F8046BAE4218D1043AED
:1081B000032A20461946F2D8541E72B103780A7871
:1081C0009A4208BF241806D00CE010F8013F11F8BD
:1081D000012F934206D1A042F7D1002070BC704716
:1081E000541EEBE7981A70BC704700BF844641EA02
:1081F000000313F003036DD1403A41D351F8043B1F
:1082000040F8043B51F8043B40F8043B51F8043B70
:1082100040F8043B51F8043B40F8043B51F8043B60
:1082200040F8043B51F8043B40F8043B51F8043B50
:1082300040F8043B51F8043B40F8043B51F8043B40
:1082400040F8043B51F8043B40F8043B51F8043B30
:1082500040F8043B51F8043B40F8043B51F8043B20
:1082600040F8043B51F8043B40F8043B51F8043B10
:1082700040F8043B51F8043B40F8043B403ABDD27F
:10828000303211D351F8043B40F8043B51F8043B21
:1082900040F8043B51F8043B40F8043B51F8043BE0
:1082A00040F8043B103AEDD20C3205D351F8043BB0
:1082B00040F8043B043AF9D2043208D0D2071CBF7C
:1082C00011F8013B00F8013B01D30B8803806046A5
:1082D000704700BF082A13D38B078DD010F003031B
:1082E0008AD0C3F10403D21ADB071CBF11F8013B8B
:1082F00000F8013B80D331F8023B20F8023B7BE7DA
:10830000043AD9D3013A11F8013B00F8013BF9D204
:108310000B7803704B7843708B788370604670479E
:10832000F0B4860746D0541E002A3CD0CAB2034699
:1083300002E014F1FF3436D303F8012B9D07F8D186
:10834000032C29D9CDB245EA05250F2C45EA054570
:1083500033D9A4F11006360903F1200707EB0617FD
:1083600003F1100242E9045542E902551032BA42C3
:10837000F8D1721C14F00C0F03EB021204F00F067C
:1083800013D0331F23F003030433134442F8045B78
:108390009342FBD106F003042CB1C9B21C4403F88C
:1083A000011B9C42FBD1F0BC704734461346002CA5
:1083B000F3D1F8E714460346C2E71A462646E0E73B
:1083C00004207047A0F58073B3F5F85F10B526D28E
:1083D00010F4805F00F4807300F4007400F4806196
:1083E00000F400620DD0002B0CBF002010200CB157
:1083F00040F0200009B140F040000AB140F0800098
:1084000010BD181E18BF01200CB140F0020009B1C8
:1084100040F00400002AF3D040F00800F0E700200C
:10842000EEE710B50C46FFF7CDFF2346BDE8104040
:1084300018470000A0F1E003072B10B5044600D94F
:1084400040B905492046FFF7ECFFE0B2BDE8104017
:1084500000F0DAB90149F6E74589000869890008A2
:1084600010B50446C0B200F01BFAA4F1E003072BDC
:1084700000D92CB903492046BDE81040FFF7D1BF11
:108480000149F8E7578900087B89000801207047F7
:108490000120704708B5FFF7FBFF08BD704708B51E
:1084A000FFF7FCFF08BD000013B502AB03E90300B2
:1084B0000F4B1B78B3B99DF8023073B16AB100F06D
:1084C000AFFE04460146009800F07CFE009920466D
:1084D00002B0BDE8104003F00BBC009800F08AFE2B
:1084E0000446F3E7009800F09BFE0099F0E700BF18
:1084F0007D0D0020034600890A4630B91988588846
:1085000041EA00409988FFF7CFBF704710B50121BD
:108510000446FFF7EFFF2146BDE8104004F038BCE9
:1085200010B500210446FFF7E5FF2146FFF7B7FF2E
:1085300010BD10B5012404FA01F104FA02F20A4355
:10854000D1B202408A4204FA03F306BF1843C0B214
:10855000984310BD08B513460A4601460348007803
:10856000FFF7E7FFBDE8084000F0AABD850D002039
:1085700001F0E1BE01F0E4BE704708B500F01EFA5C
:10858000FFF7FAFFBDE8084040F6C41006F04DBB07
:1085900008B5FFF7F2FFBDE8084005F025BB08B5B8
:1085A000FFF7EBFFBDE8084005F028BB38B50446EF
:1085B0000D4605F08DF82946204602F00FFE08B959
:1085C000002038BD2946204603F010FA0028F7D0D5
:1085D00029462046FFF75EFF0028F1D029462046B5
:1085E00004F03AFE0028EBD02946204605F08EF82C
:1085F0000028E5D02946204604F026F90028DFD0DF
:108600002946204604F0D4FF0028D9D02946204628
:1086100003F01EFE0028D3D02946204604F022FD98
:108620000028CDD0AB787BB145F65B539C4226D079
:108630000ED845F6DE439C4218D045F65A539C426C
:108640001AD0B4F5B84F0ED02846FFF71FFFB8E791
:1086500045F65C539C420CD045F6A7539C42F3D19F
:10866000FFF79DFFACE7FFF793FFA9E701F09AFB47
:10867000F6E701F0EFFAE7E701F0F8FAE4E701F0D6
:10868000F8FAE1E710B501210446FFF733FF214670
:10869000BDE81040FFF78ABF08B505F0FAF9BDE85C
:1086A000084000F035B808B500F037F8BDE80840DC
:1086B00005F0F4B9704708B5FFF7FCFF08BD0120CD
:1086C0007047000010B50446FFF7F9FF38B1044BBE
:1086D00014F0020F4FF4807214BF1A835A8310BD36
:1086E0000008024010B5054C01224FF4807120466D
:1086F00007F06FF94FF48073638310BD00080240E8
:1087000010B50446FFF7D7FF2046FFF7DBFF10BD8B
:1087100008B50020FFF7F4FF08BD08B505F068F8BC
:10872000FFF7EEFF08BD000010B505F061F8074B3C
:108730001A788242044607D0187005F0FFF9044BFE
:1087400018602046FFF7DCFF10BD00BF7C0D002045
:10875000780D002030B589B06C4684E8030094E8B9
:108760000300BDF804309DF802500590ADF81810D4
:108770004BB1BDF814204FF6FF739A421FBF1D4A3C
:108780001368013313600DB101F04CF90023ADF80B
:108790001A30ADF81C30184B94E803005B78059054
:1087A0005B07ADF818100DD5144B5B8853B101F081
:1087B000E3F810B1022001F019FA01F0B9F808B19C
:1087C00001F086F905AC94E80300BDF81830039079
:1087D0004BB1BDF80C204FF6FF739A4203D02046F0
:1087E000FFF794FE18B194E8070001F00BF809B008
:1087F00030BD00BF800D0020343B00208C3C0020A9
:10880000008800F02DBD000010B50446002841D0BE
:10881000031FDBB2A02B11D81F4B0146186805F0CF
:108820004FF820B1204601F06FF801F061F92046C1
:1088300001F062F8BDE8104001F05AB900F12003E0
:10884000DBB2072B07D800F007040120A040C0B21C
:1088500001F0BCF8EEE700F15B03DBB2022B05D8B8
:108860002438BDE8104080B204F0ECBF00F158039A
:10887000DBB2162B06D8094ABDE8104032F81300C7
:1088800004F0F0BFEF2805D901F018FFBDE8104053
:1088900002F010B810BD00BF000C0020960B0108BC
:1088A00008B590B3021FD2B2A02A05D801F02CF867
:1088B000BDE8084001F01CB900F12002D2B2072A3D
:1088C00007D800F0070301209840C0B201F086F8F5
:1088D000EEE700F15B02D2B2022A04D8BDE80840FC
:1088E000002004F0AFBF00F15802D2B2162A04D81B
:1088F000BDE80840002004F0B5BFEF2805D901F01D
:1089000051FFBDE8084001F0D5BF08BD38B50546A8
:108910000C46FFF779FF1CB92846FFF7C1FF38BDA9
:108920000A20013C06F081F9A4B2F4E708B5044B33
:1089300039280CBF198CD98BFFF7E8FF08BD00BFA1
:108940008C3C002008B528B101F040F8BDE8084093
:1089500001F0CEB808BD08B528B101F03FF8BDE878
:10896000084001F0C5B808BD08B528B101F04AF8C3
:10897000BDE8084001F0BCB808BD08B528B101F059
:1089800049F8BDE8084001F0B3B808BD08B50020BB
:1089900004F058FF002004F065FF01F043F801F0F7
:1089A000A7F801F0A3FFBDE8084001F083BF08B5B8
:1089B00000F0B2FFBDE80840FFF7E8BF08B501F0DE
:1089C00015F8BDE80840FFF7F2BFC0F30333062BEC
:1089D000C2B213D094BF0E33063303F00F03012B42
:1089E00010D8F02A10D004D8E72A8CBF002001202C
:1089F0007047F42A14BF002001207047E72A03D9EA
:108A0000F12AF7E7002070470120704713B50446AC
:108A1000014606226846FFF7E9FBA38893B1BDF83B
:108A200000204FF6FF739A420CD0208930B101F03C
:108A3000A5FA02B0BDE81040FFF7C7BF208800F0DC
:108A40000FFCF6E7002002B010BD00002DE9F74F43
:108A50008779857881460C4600F0A8FF3F090646D5
:108A6000C8B12E46BDB1C4F3072303F0F003402B79
:108A700004D004F12003DBB2072B1FD9B14B5E7881
:108A800016F0040607D0022001F0B0F800F08EFFC7
:108A900080F00100C6B2C4F3033ABAF10B0F46D816
:108AA000DFE81AF00E000E00700070002D01450185
:108AB000450045005601B201C301C3010026EAE7A3
:108AC000C4F30723C4F3032813F0F00F18BF4FEAD1
:108AD00008185FFA84FBA5B1B8F1000F0CD00BF1B8
:108AE0002003DBB2072B404602D9BBF1000F05D1B2
:108AF00000F06CFF00F0FCFF584681E000F082FFC0
:108B0000F8E75846FFF7CCFEB8F1000F0FD00BF195
:108B10002003DBB2072B404602D9BBF1000F02D184
:108B200000F05CFF01E000F075FF00F0E1FFAAF14A
:108B3000080ABAF1030F03D804F05AFEFFF7E0FD6C
:108B40002046FFF742FF002840F00C827E4B0022B7
:108B50001A60002E00F0288200F006FF10F00100DD
:108B600040F0228289F8020000F0F6FE00F0BEFA22
:108B7000484600F039FA00F0EFFE03B0BDE8F04FD0
:108B800000F0C0BAC4F3072303F0F003C4F30328D2
:108B9000202B5FFA84FB18BF4FEA0818BBF1000FC7
:108BA00020D0BBF1010F7ED0002D00F08880002F77
:108BB00054D0B9F80030B9F80200B9F80410002216
:108BC00043EA0040FFF770FC494603F0EBFA002847
:108BD00092D199F80630DA078ED560F3071389F839
:108BE00006303BE0574B5B78590714D45DB1B8F1C0
:108BF000000F04D0404600F0E9FE00F079FF0020AD
:108C0000FFF702FE93E72846FFF74AFEB8F1000F90
:108C10008DD0404684E71DB33FB900F021FF40EA04
:108C20000800C0B2FFF78EFE81E7012F07D100F0E8
:108C300017FF40EA0800C0B200F030FF77E7434B6F
:108C40001B7F012BE9D9BB42E7D100F041FF00F0C7
:108C500069FE40EA0800C0B200F00EFF4046E1E7BE
:108C600017B900F035FF15E0384B012F1B7F15D1E8
:108C7000012B7FF65CAF00F0A3FE10EA080F3FF473
:108C800056AF00F025FF00F04DFE20EA0800C0B20C
:108C900000F0F2FE4046FFF75EFE48E7012BE0D908
:108CA0009F42DED143E7294B93F822301DB19F420A
:108CB0003FF63DAFD2E79F42BFF439AFEAE7002F5E
:108CC000E8D0BBF1390F214B17D1188C70B140F2AD
:108CD000E73142F2107C8E462946ECFB00E14FF46E
:108CE0007A7200237046FFF737FA00E0012005F0A2
:108CF0009CFF5846FFF7D4FD19E7D88BE6E714F43C
:108D0000406FC4F3812308D0012B7FF410AF65B10D
:108D1000C4F3090004F0A6FD09E725B1C4F3090076
:108D200004F090FD03E72846FAE72846F2E7E0B2B0
:108D300025B101F0C3FC01F0BDFDF8E601F032FD04
:108D4000F9E700BF343B0020800D00208C3C002060
:108D500014F4407F28D1002D7FF4E9AEC4F3421013
:108D60008000C3B204F00F009840C2B214F01000AB
:108D70001EBF0F209840C043C4F3812318BFC0B268
:108D8000022B40EA020009D0032B0AD0012B02D0AB
:108D900000F080F9CBE600F075F9C8E600F082F942
:108DA000C5E600F06CF9C2E6C4F3012205B312F087
:108DB000010F3FF4BCAEC4F342108000C3B204F014
:108DC0000F009840C2B214F010001EBF0F20984050
:108DD000C043C4F3812318BFC0B2022B40EA020093
:108DE0000CD0032B0DD0012B05D000F0ABF99EE683
:108DF00012F0020FDDE700F09DF998E600F0AAF905
:108E000095E600F05DF992E65FFA84FBC4F303286F
:108E100025B1404600F06AF9584603E75846FFF787
:108E20009AFD404600F06EF981E65FFA84F8A8F1F9
:108E3000F003042B6FD8DFE803F00327131A230095
:108E40005B4B93F822303DB19F42BFF470AEC4F348
:108E5000042000F063F96AE69F423FF668AEF6E749
:108E6000C4F30420002DDDD100F040F95FE625B108
:108E7000C4F3042000F033F959E600F02DF956E66A
:108E80004C4B5B785B0704D4C4F30420002DC9D09D
:108E9000EAE7DFF81C8198F81C30012B26D9CDB108
:108EA00000F062FD042807D100F092FEC4F3042014
:108EB00000F028F900263AE698F81C30BB42F9D9B0
:108EC000C4F30420019000F011F90198032100F08F
:108ED0005FFEEFE7BB4205D800F07AFE0421C4F341
:108EE0000420F4E7012000F081FEE3E74DB1C4F374
:108EF0000420019000F0FAF80198032100F048FEE8
:108F000015E6012000F072FE012F7FF610AE022060
:108F100000F06CFE0BE62DB10FB1404670E6C4F3D5
:108F20000420A1E7DFB1B8F1390F214B15D1188C1E
:108F300070B140F2E73142F2107C8E462946ECFBDC
:108F400000E14FF47A7200237046FFF705F900E064
:108F5000012005F06AFE4046CCE6D88BE8E7C4F372
:108F600004205FE71DB1002F7FF4F0ADF1E5002F85
:108F70007FF4ECADB9F80030B9F80200B9F804108C
:108F80003A4643EA0040FFF78FFA494603F01AF9E0
:108F900000283FF4DBAD084B1B68022B7FF4D6ADF5
:108FA000E0B2FFF7C3FCD1E503B0BDE8F08F00BF2E
:108FB0008C3C0020343B0020800D002038B5044656
:108FC000008960B100F0DAFF054600F0CBF800F050
:108FD00055F829462046BDE83840FFF737BD2188BF
:108FE000A07800F049F9EFE713B5044601460622E0
:108FF0006846FFF7FBF8A388F3B1BDF800204FF6F1
:10900000FF739A4218D02046FFF73CFB70B900F07E
:10901000CDFC88B1A3787BB1084B5B785B070BD59F
:10902000022002B0BDE8104000F0E0BD2046FFF78E
:10903000C5FF2046FFF774FA02B010BD343B002094
:1090400082B002AB03E9030002B0704784B004AB06
:1090500003E9070004B07047704708B5FFF7FCFF4D
:1090600008BD000008B5FFF7F8FF034B1870BDE816
:109070000840FFF78BBC00BF840D00207047FFF74E
:10908000F1BF0000024B1B781843FFF7EBBF00BF96
:10909000840D0020024B1B781840FFF7E3BF00BF90
:1090A000840D0020024B1B785840FFF7DBBF00BF48
:1090B000840D0020704708B5FFF7FCFF08BD0000D5
:1090C00008B5FFF7F8FF034B1870BDE80840FFF73D
:1090D0005DBC00BF850D00200020FFF7F1BF01231C
:1090E00003FA00F0C0B2FFF7EBBF0000012303FA60
:1090F00000F0034B1B781843C0B2FFF7E1BF00BF7D
:10910000850D0020012303FA00F0034B1B7823EAAE
:109110000000FFF7D5BF00BF850D0020012303FA33
:1091200000F0034B1B785840C0B2FFF7C9BF00BF27
:10913000850D0020024B1B781843FFF7C1BF00BF0D
:10914000850D0020024B1B781840FFF7B9BF00BF08
:10915000850D0020024B1B785840FFF7B1BF00BFC0
:10916000850D0020704701F00703C90830B501EBF9
:109170004101012401399C400A44E4B2002112F863
:10918000015F20FA01F343F300036B4023400131F8
:109190006B4003291370F2D130BD10B500F0070405
:1091A000C00800EB40000022014410468B5CE34005
:1091B00003F00103934001321843032AC0B2F5D1F2
:1091C00010BD000082B00B46ADF80400C0F30720CC
:1091D00004280AD89DF804100F2906D8044A01EB88
:1091E0000011184602B0FFF7BEBF02B0704700BFC3
:1091F000860D002082B0ADF80400C0F307200428DB
:1092000009D89DF804300F2B05D8044903EB001052
:1092100002B0FFF7C2BF002002B07047860D0020E9
:1092200073B50D4BADF804001E780C4B1B7807246A
:109230001E4346FA04F3DB07E5B205D4013CF8D23D
:109240000025284602B070BD0199284600F046FF6F
:1092500080B20128F2D0F4E7850D0020840D0020B3
:1092600007B5ADF804000198FFF7DAFF019903B0E4
:109270005DF804EB00F032BF13B5104BADF80410ED
:109280001B782BB1019802B0BDE81040FFF7E8BF92
:1092900070B10198FFF7C4FF044601460198FFF73B
:1092A00091FF0199204602B0BDE8104000F016BFC2
:1092B0000198FFF79FFF0446F3E700BF7D0D0020F4
:1092C000F8B50E4B0E4E1C780E4D0A273378A3428C
:1092D00000D1F8BD07FB04F2AB18A85AB3F802C0DE
:1092E0009A88D98840EA0C4042EA014101341A893F
:1092F000FFF7ACFE04F00704E8E700BFFF0D002015
:10930000FE0D0020AE0D0020074B10B49A885C883B
:109310001888D98840EA044042EA01415DF8044BCC
:109320001A89FFF793BE00BFA40D0020F0B50F4BC4
:109330000F4C1B7827780F4C4FF00A0CBB4201D121
:109340000020F0BD0CFB03F6A51995F801E08E4551
:1093500005D1A65D864202D1AD78954203D1013395
:1093600003F00703EAE70120EBE700BFFF0D002051
:10937000FE0D0020AE0D00202DE9F743274CA37908
:1093800013F0F00F0BD1A3784BB1254BDFF894907D
:109390001D78DFF8948099F80030AB4202D103B019
:1093A000BDE8F083062221466846FEF71FFFA2882B
:1093B00082B3BDF800104FF6FF7399422AD00A23FA
:1093C0006B4308EB030660787178884222D12178DC
:1093D00018F8033099421DD1B178D9B9B788204621
:1093E000BF1AFFF787F8214602F0E8FABFB28742BA
:1093F00010D2A3790948012262F30713A371B3794C
:1094000062F30713B371FFF7EFFD03B0BDE8F0435C
:10941000FFF756BF013505F00705BCE7A40D002096
:10942000FF0D0020FE0D0020AE0D00202DE9F04FB5
:109430002DED028B89B0A94C0DF10C0B05460622CF
:1094400001465846FEF7D2FE0021204695F80090CE
:1094500095F80180AF78B5F804A0FFF74BF8062225
:1094600008EE100A214605A8FEF7C0FEA388002BCF
:1094700000F03681BDF814204FF6FF718A4200F0EB
:109480002F81A2780192002A00F02A81AAEB03031F
:10949000002120469EB2FFF72DF8214602F08EFAF9
:1094A0008642A67980F0E08016F0F00FB4F804B0A0
:1094B0004FF00602214605A840F08F80FEF796FE89
:1094C0003E46BBF1000F1FD0BDF814304FF6FF72BF
:1094D000934219D02A889A4216D122892B899A421E
:1094E00012D18FB9A379012262F30713A371FFF799
:1094F0000BFF2046FFF778FDA379AB71304609B02A
:10950000BDEC028BBDE8F08F8DF80C908DF80D80CE
:109510008DF814908DF81580BAF1000F06D0BDF8C3
:1095200014204FF6FF739A4200D03FB38DF8149089
:109530008DF81580BAF1000F35D0BDF814204FF624
:10954000FF739A422FD0002F42D13A4641464846F7
:10955000FFF7ECFE064638BB0398FFF781FEC0F329
:109560000332012AC3B221D90E3202F00F02012ABE
:1095700026D92846FFF738FD019EBFE73A46414607
:109580004846FFF7D3FE0028D0D0544918EE100A01
:1095900002F000FE0028C9D05048FFF725FD0A223E
:1095A00039464E4873E09FB90026A7E710F4706F64
:1095B00001D0002BA2D02033DBB2072B9ED9D8E7F5
:1095C00010F4706FF7D0AA7912F0F00FF3D195E78D
:1095D000A37943F00103A371E6E7FEF707FEBBF1B1
:1095E000000F1AD0BDF814304FF6FF72934214D01A
:1095F0002A889A4211D122892B899A420DD167B9C2
:10960000A379AB712846FFF7EFFC0A2229463348BD
:10961000FEF7ECFDFFF778FEAEE72846FFF7F6F918
:10962000F0B1EFB1A3791F2B0FD92288ADF8142028
:109630008DF81A30002223898DF8162005A8ADF880
:1096400018A0ADF81C30FFF7CFFC0A2229462348AA
:10965000FEF7CCFDFFF790FEFFF756FE01264DE723
:109660002846FFF7C1FCF9E716F0F00612D18DF895
:109670000C908DF80D808DF80E709BE80300FFF7BD
:10968000DFFC2046FFF7B0FC0A2231462046FEF7F9
:1096900047FE7BE00622214605A8FEF7A7FDA3882A
:1096A000002BBAD0BDF814304FF6FF729342B4D0FD
:1096B00022882B889A42B0D122892B899A42ACD138
:1096C000002FAAD1A379AB712846FFF78DFC0A229F
:1096D00000210248FEF724FE4EE700BFA40D002043
:1096E00047490193062205A8FEF780FD019B002B48
:1096F00070D0BDF814204FF6FF718A426AD0A67868
:10970000002E67D1AAEB03039BB231463C4801937C
:10971000FEF7F0FE3A4902F051F9019B83424CD228
:109720003E46002F9CD03649062205A8FEF75EFD76
:10973000A388A3B3BDF814304FF6FF7293422ED026
:1097400022882B889A422AD122892B899A4226D1B3
:109750002B4918EE100A02F02DFDD0B9A379DA07D3
:1097600017D413F0F00214D0F02AAB7106D0DBB29C
:10977000C3F30312013262F30713AB712846FFF7FC
:1097800033FC1F480A222946FEF730FDFFF7BCFDD7
:10979000B4E60A2229461A48FEF728FDAEE6284616
:1097A000FFF734F900287FF450AFA379284643F03F
:1097B0000103A371FFF718FCA0E68DF80C908DF85B
:1097C0000D808DF80E709BE80300FFF739FC0A222C
:1097D0003146E6E6002F3FF443AF2846FFF716F97F
:1097E000064600283FF43CAF0A2229460448FEF70B
:1097F000FDFC0348FFF704F8FFF7BEFDC6E700BF16
:10980000A40D0020F0B58BB001AC84E80700204621
:10981000FFF70CFE344FBDF808C0344D0646A0B12A
:1098200094E803000790ADF82010BCF1000F09D0B8
:10983000BDF81C204FF6FF739A4203D094E807004E
:10984000FFF704FC2A4E0A2448E094E8070007AB1F
:1098500003C31A8007AB93E803000590BCF1000F27
:10986000F0D0BDF8144038782A784FF6FF718C425A
:10987000E8D0441C04F0070494420AD019461C4B5B
:109880000A2202FB0030FEF7B1FC3C70FFF718FD26
:10989000D8E7FFF793F80A22314616483E702E703B
:1098A000FEF73EFDCEE700EB800006EB4000FFF741
:1098B000BDFDB8B12A786243B318B05AB3F802C0FC
:1098C0009A88D98840EA0C4042EA01411A89FFF798
:1098D000BDFB2B78013303F007032B7028783B780E
:1098E0008342E0D10BB0F0BDFE0D0020FF0D002043
:1098F000AE0D0020A40D0020024B0146186804F0B4
:109900004BB800BF000C0020024B0146186804F061
:109910005DB800BF000C0020014B186804F070B85F
:10992000000C0020014B1878704700BF440E002047
:1099300010B5074C608850B104F032F9054B1B8814
:10994000C01A638880B283428CBF0020012010BD02
:109950008C3C0020460E0020024B93F90000C0F31F
:10996000C7007047400E0020024B187800F0070037
:10997000704700BF400E002008B504F011F9084BF5
:109980001B88C01A074B5B8880B283429FBF064B7F
:10999000187880F00400C0F3800088BF002008BD64
:1099A000420E00208C3C0020400E0020034B187813
:1099B00010F0070018BF0120704700BF400E0020C4
:1099C000014B1878704700BF480E0020024B1A78F0
:1099D00010431870704700BF480E0020024A1378E9
:1099E00023EA000010707047480E0020014B00224F
:1099F0001A707047480E0020014B1878704700BF5E
:109A00004A0E0020024B1A7810431870704700BFAE
:109A10004A0E0020024A137823EA000010707047B3
:109A20004A0E0020014B00221A7070474A0E002097
:109A3000014B1870704700BF4B0E0020014B0022F5
:109A40001A7070474B0E0020014B1870704700BF12
:109A5000490E0020014B00221A707047490E002069
:109A6000014B1878704700BF450E0020704708B5BD
:109A7000FFF7FCFF08BD000008B5044A11788142D9
:109A800002D01070FFF7F3FF08BD00BF440E0020A6
:109A9000704708B5FFF7FCFF08BD000038B5094B5B
:109AA0005B785B0704460BD5074D2B78834207D0C4
:109AB00004F076F8054B2C7018802046FFF7E9FF7C
:109AC00038BD00BF343B0020450E0020460E00206C
:109AD00008B5054B1A782AB100201870034B18807E
:109AE000FFF7D7FF08BD00BF450E0020460E00203F
:109AF00038B51C491C4B1D4C1B78097822681C4D3D
:109B00000B4313702B788BB11A4B5B8823B1FFF793
:109B10000FFF08B1FFF7DCFF20682A7803781343B2
:109B2000037003F0AFFE08B1FFF7D2FF2468124BB9
:109B300012491A78237823EA0203114A1278134350
:109B4000237020222046FEF721FB48B121460B4816
:109B50002022FEF74BFB2046BDE8384003F050BE04
:109B600038BD00BF4A0E0020480E0020000C002027
:109B7000450E00208C3C0020490E0020200E0020C5
:109B80004B0E0020704708B5FFF7FCFF08BD000032
:109B90000C4A5278520710B510D50B4C41EAC0015F
:109BA0002170FFF7A3FA03F0FBFF084B188094F92C
:109BB0000000C0F3C700FFF7E6FF10BDBDE810408E
:109BC000FFF794BA343B0020400E0020420E0020E4
:109BD00008B5044B00201870034B1880FFF7D3FF23
:109BE00008BD00BF400E0020420E002008B50C4A00
:109BF00092F9003023EA000040B2107042070ED103
:109C0000DBB283420BD0074B5B785B0707D5C0F311
:109C1000C700FFF777FABDE80840FFF7D9BF08BDD6
:109C2000400E0020343B0020094A08B55378C3F3A6
:109C3000800181420AD060F382035370108800F0E3
:109C400045F8BDE808400220FFF7D0BF08BD00BFBF
:109C5000343B0020044B5878C0F3800080F00100B2
:109C600000F00100FFF7E0BF343B00200120FFF7C8
:109C7000DBBF0020FFF7D8BF08B501F02BF9BDE826
:109C800008404FF6FF71002000F076BF08B50020B5
:109C900000F025FF4FF6E863984203D1BDE8084085
:109CA00001F03EBA002008BD022000F009BF0320E9
:109CB00000F006BF10B5042000F002FF0446222089
:109CC00000F0FEFE44EA002080B210BD10B5C1B223
:109CD0000446042000F042FF210A2220BDE8104083
:109CE00000F03CBF01460F2000F054BF0146132096
:109CF00000F050BF0020FFF7F9BF08B50020FFF7C4
:109D0000F1FFFFF7F7FF08BD10B501F0E3F84FF6DC
:109D1000E861002000F030FF0021022000F01EFF6B
:109D200000210320002400F019FF1D4B21460420D0
:109D30001C7000F013FF0421222000F00FFF2146C9
:109D4000052000F00BFF2146062000F007FFFF2151
:109D5000072000F003FF2146082000F01BFF2146EA
:109D60000D2000F0FBFE2146182000F013FF2146D5
:109D7000172000F0F3FE21461C2000F00BFF2146C7
:109D8000202000F0F9FE2146182000F003FF2046B5
:109D900001F0DBF901F003FAFFF7AFFF10BD00BFE0
:109DA000840D0020FFF7B0BF01460E2000F0D6BEA4
:109DB00008B503F0C3FE024B1860024B186008BDE3
:109DC0004C0E0020500E00207047704708B5FFF77A
:109DD000FCFF08BD704708B5FFF7FCFF08BD000099
:109DE00008B5074800F066FA01F072F801F0B0FB20
:109DF00002F020F9FFF7E8FFFFF7E8FF08BD00BF1A
:109E0000ADA200080120704708B5FFF7FBFF08BDB1
:109E10007047704708B5FFF7FBFFFFF7FAFF08BD73
:109E200008B500F067FABDE80840FEF75BBC00002B
:109E300008B503F081FE01F0C2F900F02BFBFFF73B
:109E4000EFFF054B1A7842F080021A701888FFF76E
:109E50003DFFFFF7C0FF08BD343B002008B503F00D
:109E6000E1F903F095FC02F045FFBDE8084002F07F
:109E7000A3BC00002DE9F04F85B03D4F00F022FB60
:109E80003E460024E0B236F8025B00F05DFA042C96
:109E900048D0854204F10104F4D0364B1B789B076F
:109EA00001D500F057FAFFF7AFFF4FF0000801901F
:109EB0000DF108095FFA88FA504600F045FA37F8C4
:109EC000023B9842044625D043401FFA83FB0025FD
:109ED00001261BEA060F15D0019B9BB1344214BF2B
:109EE000012300238DF808508DF809A08DF80A3061
:109EF00003F056FE40F00100ADF80C0099E80300B5
:109F0000FEF728FC0135EDB27600102DB6B2E0D197
:109F100027F8024C08F10108B8F1050FCAD1FFF784
:109F200047FF1BE08542B8D1134D03F039FE2B8863
:109F30008342044612D04FF6FF73ADF80830002379
:109F40008DF80A3003F02CFE40F00100ADF80C0053
:109F500004AB13E90300FEF7FDFB2C80FFF77EFF47
:109F600000F0ECFC05B0BDE8F04FFEF7DDBB00BF34
:109F7000560E0020600E0020540E002010B500F098
:109F8000B9F8B0F5A44F04463AD2B0F5A24F80F02C
:109F90008780E72815D8DF280AD8A7280AD8A42858
:109FA0006CD8012804D0031F9BB2A12B28BF00242A
:109FB000204610BDA0F1A8039BB2162B63D9002444
:109FC000F6E7B0F5A04F0FD2B0F5804F63D2FF286F
:109FD00004D8EF28F3D940F4A0440FE0A0F5807333
:109FE0009BB2B3F5F85FE1E7C0F38103012400F011
:109FF0000300844044EA431444F40D44A4B2D7E778
:10A00000B0F5AC4F1AD2B0F5AA4FC0B251D2B4F5E8
:10A01000A84F0ED28308B4F5A64F00F003004FF00E
:10A02000010404FA00F040EA43143FD244F40C4423
:10A03000E4E74AF2F40444EA0024B9E7B0F5B44F87
:10A040000CD2B0F5B24F3CD2A0F5B0439BB2FF2B7F
:10A05000B5D84AF2F00040EA0424CFE7A0F5C043A7
:10A060009BB2B3F5005FAAD2C0F3042000F0C8F899
:10A07000000200F4F850E4B204431FE0A0F124040D
:10A0800044F48044BAE75834134BE4B233F8144034
:10A0900044F488448CE7C0F30B0444F4204487E77D
:10A0A000C4B24AF2F10343EA042481E744F40A44C7
:10A0B000A4E700F0A5F8040204F4F85444F40054B2
:10A0C00076E700F00F0000F09BF8C4F3031440EAB9
:10A0D000042444F4104491E7C40B010807B5ADF81B
:10A0E0000410019901F004FE03B05DF804EBFFF7E2
:10A0F00045BF0000E72850D8DF2807D8312865D0B1
:10A100000ED8292858D02A2867D07047A0F1E0033C
:10A11000072B42D8DFE803F01541242933413D42A3
:10A12000392804D0822802D0352840D07047334BDC
:10A130001A7892075CD15B7813F0080F18BF2920BA
:10A1400070472E4A1378D9074ED4527812F0010F77
:10A1500023D013F0100F08BFE32018BF0020704772
:10A16000264B1B7813F0040FF2E7244A13785907A3
:10A170003CD45278D2073BD413F0100FEDE71F4BBD
:10A180005A78910709D51B7813F0100F08BFE72004
:10A19000E3E71A4B1B781A07F6D47047174A13786F
:10A1A000190727D452789107E6D5E4207047134B5E
:10A1B0001B7813F0200FC1E7104B1A7892061BD4BE
:10A1C0005B7813F0080F18BF392070470B4B1B78D2
:10A1D00013F0400F18BF2A207047084B1B7813F06C
:10A1E000400F18BF3120704739207047E220704778
:10A1F000E0207047E62070473520CEE7343B002052
:10A20000294A1378590707D500F01801082927D1E2
:10A2100000F0F70040F00400190707D500F018011E
:10A22000182926D100F0E70040F014005278D10739
:10A2300007D500F01801082924D100F0F70040F0FC
:10A240000100920707D500F01802182A23D100F068
:10A25000E70040F01100DB0648BF00F0E700704760
:10A2600000F01401042904BF00F0FB0040F00800D6
:10A27000D2E700F01401142904BF00F0EB0040F015
:10A280001800D3E700F01101012904BF00F0FE001F
:10A2900040F00800D5E700F01102112A04BF00F0D9
:10A2A000EE0040F01800D6E7343B00200020704755
:10A2B00000207047014B1860704700BF040C00205D
:10A2C000FFF7DABC08B500F0FDF8142004F0ADFC8F
:10A2D00000F0F8F8002000F037F8C30705D5FFF7C5
:10A2E000EFFFBDE8084003F07FBC08BD08B5FFF7ED
:10A2F000E9FF08BD08B5FFF7C9FC08B9FFF752FD33
:10A30000FFF7D2FC084B1870FFF7D4FC074B1880FE
:10A31000FFF7ECFFFFF7CBFCFEF7B1FE044B18781C
:10A32000BDE80840FEF7C7BE600E0020343B0020A9
:10A33000850D0020704708B5FFF7FCFF08BD70478A
:10A3400008B5FFF7FCFF08BD014B33F8100070475C
:10A35000403B0020704740F6D81004F00FBA00BF11
:10A3600000BF00BF00BF00BF00BF00BF00BF00BFF5
:10A3700000BF00BF00BF00BF00BF00BF00BF00BFE5
:10A3800000BF00BF00BF00BF704708B5FFF7E3FF85
:10A3900008BD08B5302383F31188012100F00F03B5
:10A3A0009940202220F00F0005F013FB002383F3D7
:10A3B000118808BD38B50C4D102455F8040B421C0B
:10A3C00001D0FFF7E6FF013C14F0FF04F5D1074D83
:10A3D000052455F8040B431C01D0FFF7DAFF013CBC
:10A3E00014F0FF04F5D138BDF40B0108340C01085A
:10A3F0002DE9F843DFF8988058F8213017465A1CA9
:10A4000005460E4640D0302282F31188012223F007
:10A410000F0903F00F0302FA03F421464846A4B2E1
:10A4200005F0D7FAA9F81A40002484F31188FFF741
:10A4300096FF1648AA1E6FEA070C083550F8041B51
:10A4400032F8023FB1F1FF3F1AD021F00F0E01F0B8
:10A450000F01DEF810E02EFA01F1C90710D43B43DA
:10A4600013800124AA42E9D158F82600431C01D0E8
:10A47000FFF78FFF21463046BDE8F843FFF785BF61
:10A480000CEA03031380EDE7BDE8F883340C010800
:10A49000F40B010808B5FFF78DFF0A2200210748D9
:10A4A000FDF73EFF0A2200210548FDF739FF052090
:10A4B00000F03AF8BDE80840FEF75AB8403B0020EB
:10A4C000363B002030B587B0002403940494ADF8E7
:10A4D000144001252A46E1B203A80134FFF788FFA2
:10A4E0006D00102CADB2F5D10D480A2203A9FDF77D
:10A4F0004DFE002814BF0123002306D00848019315
:10A500000A2203A9FDF772FE019B064904480522B1
:10A5100000F00CF80190FEF72DF8019807B030BD5F
:10A52000363B0020403B0020704700002DE9F341FE
:10A53000DFF85C8007460E46144633B1012388F8E5
:10A54000003003F0FBFA114B186098F8005025B961
:10A550000025284602B0BDE8F0810C4B186803F0D6
:10A560002BFB0028F4D06200394630460192FDF7FB
:10A570000DFE019A38B139463046FDF737FE00230B
:10A5800088F80030E5E70546F9E700BF640E0020D3
:10A59000610E002008B503F099FEFFF749FCBDE805
:10A5A000084003F0A9BE08B503F0ACFEFFF762FC5B
:10A5B000BDE8084003F0C6BE08B503F085FA03F015
:10A5C00083FEFFF70DFCFFF7E5FFFFF7ECFFFFF75A
:10A5D00021FCFAE71A4B1B4A1B781089D90709D5C9
:10A5E000194B1B785843C0F38F007F2823D820B322
:10A5F000C0B270479A0705D5134B1B785843C0F378
:10A600004F00F2E75B0705D50F4B1B7813FB00F0FB
:10A6100080B2EAE70D4B1B78002BE6D00C4A0A49C2
:10A620001278097893423BBF4843584311FB00F02E
:10A63000B0FBF2F0ECE77F2070470120704700BFCD
:10A64000720E00208C3C00200A0C0020730E0020AB
:10A650000B0C0020154B1B78D90705D5144B187827
:10A66000800800B3C0B270479A0703D5104B187822
:10A670004008F6E75B0705D50D4B18787F28F0D921
:10A680007F2070470B4B1B785BB10B4A084912784F
:10A690000878934236BF10FB03F080B2B0FBF2F0B3
:10A6A000ECE70120DEE70120704700BF720E0020BA
:10A6B0000E0C0020740E00200F0C0020F02808B5AE
:10A6C00005D1FFF787FF4042344BD87008BDF12811
:10A6D00002D1FFF77FFFF7E7F22805D1FFF77AFFF6
:10A6E00040422E4B9870F1E7F32802D1FFF772FF3A
:10A6F000F7E7F92804D1FFF7ADFF284B1871E5E71C
:10A70000FA2803D1FFF7A6FF4042F6E7FB2805D160
:10A71000FFF7A0FF4042214B5871D7E7FC2802D138
:10A72000FFF798FFF7E7F42805D11C4A537843F068
:10A7300001035370CAE7F52804D1184A537843F04F
:10A740000203F6E7F62804D1144A537843F00403D1
:10A75000EFE7F72804D1114A537843F00803E8E7FC
:10A76000F82804D10D4A537843F01003E1E7FD289F
:10A7700005D10B4A137843F001031370A6E7FE28B6
:10A7800004D1074A137843F00203F6E7FF289DD16E
:10A79000034A137843F00403EFE700BF6C0E002078
:10A7A000720E00203F4BF02893F902200AD193F952
:10A7B000031000290CDA0021D97052B93A4A00215D
:10A7C000117006E0F1280DD193F903100029F2DC95
:10A7D00072B11A795B7913435AB2002B61D1334BB2
:10A7E0001A707047F22806D1002AF1DA00229A7016
:10A7F00093F90320E1E7F32802D1002AF6DCE7E72A
:10A80000F92893F9041004D10029E1DD0021197120
:10A81000DEE7FA2802D10029DADAF7E7FB2893F914
:10A82000051004D10029D3DA00215971D0E7FC28A2
:10A8300002D10029F8DCCBE7F42804D1597821F0C3
:10A8400001015970C4E7F52803D1597821F00201BC
:10A85000F7E7F62803D1597821F00401F1E7F7284A
:10A8600003D1597821F00801EBE7F82803D1597892
:10A8700021F01001E5E7FD2805D10D48017821F010
:10A8800001010170A4E7FE2804D10948017821F0F4
:10A890000201F6E7FF289BD10548017821F0040169
:10A8A000EFE770476C0E0020730E0020740E00203E
:10A8B000720E002008B503F073F9094BDA78997825
:10A8C0000A431CBF074A10801A795B7913431CBFE7
:10A8D000054B1880BDE80840014802F0A9BF00BF41
:10A8E0006C0E0020680E00206A0E002008B50622BB
:10A8F00005480021FDF714FD044A00231370044AA3
:10A900001370044A137008BD6C0E0020730E0020F3
:10A91000740E0020720E002090F902305BB990F99D
:10A92000033043B990F904302BB990F90500003891
:10A9300018BF0120704701207047000037B5574C01
:10A94000062221466846FDF751FC00239DF80220AF
:10A95000A370E370237163719DF8033013430AD031
:10A960004F4B188803F021F94E490B783BB34E4A00
:10A97000127890422DDC9DF804209DF80530134399
:10A980000BD04A4B188803F010F949490B78002B7B
:10A990004CD0484A1278904252DC4048694603F055
:10A9A00043F818B93D48FFF7B7FF08B1FFF782FF3A
:10A9B000062269463948FDF719FC03B030BD3E4A0E
:10A9C000127802EB8202B0EB420FD4DD01330B7040
:10A9D00001E0FF2BFAD19DF902503DB1FFF7FAFDDE
:10A9E000002DCCBF0123FF235843A0709DF90350D5
:10A9F0003DB1FFF7EFFD002DCCBF0123FF235843EE
:10AA0000E07094F90220002AB5D094F90330002BAD
:10AA1000B1D0B5214A43121201FB03F308BF012252
:10AA20001B1208BF0123A270E370A4E7234A127827
:10AA300002EB8202B0EB420FAFDD01330B7001E09D
:10AA4000FF2BFAD19DF904503DB1FFF703FE002D15
:10AA5000CCBF0123FF23584320719DF905503DB120
:10AA6000FFF7F8FD002DCCBF0123FF235843607191
:10AA700094F90420002A90D094F90530002B8CD052
:10AA8000B5214A43121201FB03F308BF01221B1236
:10AA900008BF0123227163717FE700BF6C0E0020A5
:10AAA000680E0020730E0020090C00206A0E0020A2
:10AAB000740E00200D0C0020080C00200C0C00204F
:10AAC00007B50023014601220DF107008DF807307C
:10AAD00000F002FA9DF8070003B05DF804FB07B52B
:10AAE0000023014602220DF10600ADF8063000F009
:10AAF000F3F9BDF8060003B05DF804FB07B50422C6
:10AB0000014600230DEB0200019300F0E5F90198E6
:10AB100003B05DF804FB07B501228DF8071001466C
:10AB20000DF1070000F00DFA03B05DF804FB07B566
:10AB30000222ADF8061001460DF1060000F001FA00
:10AB400003B05DF804FB07B50422019101460DEB4B
:10AB5000020000F0F6F903B05DF804FB38B50C46CE
:10AB60000546FFF7ADFFA04205D021462846BDE8C7
:10AB70003840FFF7D0BF38BD38B50C460546FFF763
:10AB8000AEFFA04205D021462846BDE83840FFF779
:10AB9000CEBF38BD38B50C460546FFF7AFFFA04223
:10ABA00005D021462846BDE83840FFF7CCBF38BD68
:10ABB00008B500F09FFA044800F026FA00F0A8FA61
:10ABC000024B034A1A6008BD00400008782E00209E
:10ABD0000060000838B520F00104A1B204F100645F
:10ABE00004F580444FF6FF722388934210D10A4A3D
:10ABF0008D5AED43ADB29D420CD000F07BFA204659
:10AC0000294600F049FA044600F082FA204638BD91
:10AC10000024FBE70524F9E7760E0020F8B5FFF7DE
:10AC2000C7FF00F067FA0B4E0B4C0C4F052536F8AA
:10AC3000021B39B1C94389B2204600F02DFA05281C
:10AC400018BF05460234BC42F1D100F061FA284633
:10AC5000F8BD00BF760E002000400008006000082C
:10AC60001E4BF7B5C65A1E4F012E98BF1D4C3A68B1
:10AC700094BF02230423C3F1006394BF44EA463423
:10AC8000803803F5004392BFA4B280B24FF4604411
:10AC90009A4204D903B0BDE8F040FFF7BFBF44EAD1
:10ACA0005001019100F026FA38680199831C3B603D
:10ACB00000F0F2F9B4F5604F054609D13868F14368
:10ACC000831C89B23B6000F0E7F9052818BF0546F0
:10ACD00000F01EFA284603B0F0BD00BF760E00203B
:10ACE000782E00200080FFFF37B50E4D0E4B2A68EE
:10ACF0009A42044604D303B0BDE83040FFF78EBF4C
:10AD000000F0F8F9094B2868E15C41EA0421831C52
:10AD100089B22B6000F0C0F9019000F0F9F90198B8
:10AD200003B030BD782E002000800008760E002091
:10AD30001F4B204A2048F0B51D4632F8021BC9437C
:10AD4000824223F8021BF8D11C4C4FF6FF7743F6E2
:10AD5000FE761388BB4206D0180409D4190A6B5436
:10AD60000232A242F5D3164B4FF400501A60F0BDE8
:10AD700003F4C041B1F5C04F0FD1901CA04215D2D1
:10AD80005188C94389B279B106EA43038033024648
:10AD9000B3F5005FE4D2E952E2E75904E0D4C3F32B
:10ADA000403106EA4303F3E70246D9E70246DAE711
:10ADB000760E0020004000080060000800800008B7
:10ADC000782E002008B5FFF7F3FEBDE80840FFF736
:10ADD000AFBF0000B0F5005F10B5044614D20C4BB5
:10ADE000C25C8A4212D0C154FFF7F4FE68B97F2CCE
:10ADF00004D82046BDE81040FFF776BF24F00100DC
:10AE0000BDE81040FFF72CBF072010BD0020FCE775
:10AE1000760E0020B0F5005FF8B505460E4634D238
:10AE200010F001040DD0C9B2FFF7D4FF0446681C2E
:10AE3000310A80B2FFF7CEFF052818BF044620462E
:10AE4000F8BD134BC75AB942F9D0C152FFF7C2FE41
:10AE500004460028F3D17F2D12D8FBB2F2B2934200
:10AE60000CD02846FFF740FF0446360AB6EB172FF2
:10AE7000E5D0681C80B2FFF737FFDDE70524F4E773
:10AE80002846BDE8F840FFF7EBBE0724D7E700BF30
:10AE9000760E0020B0F5005F3ABF024BC05CFF2089
:10AEA000704700BF760E002041F6FE7398420AD824
:10AEB000064BC20741BF5A1C825CC05C40EA0220BC
:10AEC00058BFC05A70474FF6FF707047760E00208B
:10AED000FFF72EBFFFF776BF2DE9F843044615466E
:10AEE0004AB1CB0707D588B2FFF7D4FF4A1C04F854
:10AEF000010B013D114625F0010804F00109A61CD3
:10AF00006F08884441450BD16FF0010202FB0755E1
:10AF100025B188B2FFF7BEFF04F81700BDE8F8833B
:10AF200088B2FFF7C1FFB9F1000F04D126F8020C77
:10AF300002310236E6E706F8020C000A06F8010CB8
:10AF4000F6E7F8B506460D4614464AB1CB0707D5D5
:10AF50004F1CA8B216F8011BFFF73CFF013C3D4611
:10AF600000273A19012AA6EB07030FD863086FF0F0
:10AF7000010224F0010002FB0344284484B116F8C6
:10AF8000131080B2BDE8F840FFF724BF1A78597853
:10AF9000E81B42EA012180B2FFF73CFF023FE0E7F5
:10AFA000F8BD0000094BDA68D2030AD4DA6812F05F
:10AFB000E00F08D1DB6813F0100F0CBF0520032051
:10AFC0007047012070470220704700BF003C0240DC
:10AFD00037B50146FFF7E6FF0024FF2501280FD112
:10AFE00011B9062003B030BD01940195019B1BB936
:10AFF000FFF7D8FF0139F1E7019B013B0193F5E72A
:10B00000002908BF0620EDE738B5044640F6FF707A
:10B01000FFF7DEFF05282BD11D4D2B6923F0F80328
:10B020002B611C4B9C4224D2A3F580439C422AD224
:10B03000A3F580439C4228D2B4F1006F34BF0722AD
:10B0400000222B6943EAC20343F002032B612B6900
:10B0500043F480332B6140F6FF70FFF7B9FF0628F9
:10B060001EBF2B6923F0FA032B61094BF122DA6032
:10B0700038BD04F17844A4F54044B4F5804F34BFA2
:10B0800003220722DDE70222DBE70122D9E700BF26
:10B09000003C024000C00008144B00F178429A4284
:10B0A00070B505460E461ED81F20FFF791FF0528F4
:10B0B00018D10F4C236923F440732361236943F4AF
:10B0C00080732361236943F0010323611F202E80D5
:10B0D000FFF77EFF06281EBF236923F001032361CB
:10B0E000F123E36070BD0720FCE700BFFEFF07000F
:10B0F000003C0240044B1A69002ABFBF034A5A6051
:10B1000002F188325A607047003C024023016745D3
:10B11000024A136943F0004313617047003C024048
:10B1200008B52320FFF7CCFC532801D0002008BD30
:10B130002420FFF7C5FC2A28F8D12520FFF7C0FC02
:10B14000A0F1B90358425841F1E710B5041E14BFED
:10B150005321FF212320FFF701FD002C14BF2A21DA
:10B16000FF212420FFF7FAFC002C18BFB921BDE80D
:10B17000104008BFFF212520FFF7F0BC704708B53D
:10B180002620FFF79DFC08BD704710B50446FFF769
:10B19000FBFFE1B22620BDE81040FFF7DFBC08B599
:10B1A0000020FFF7D2FF0020FFF7EFFF00F0FEFCCA
:10B1B00000F0F6FDBDE808400120FFF7C6BF08B566
:10B1C000FFF7DCFFFFF7DBFFFFF7DEFFFFF7A8FF6E
:10B1D00018B9BDE80840FFF7E2BF08BD10B58C788C
:10B1E000FCB1A0F5BE43123B0F2B24D81238C0B2DD
:10B1F00000F0E2FD0024204610BD0120FDF776FF9F
:10B20000032202210120FDF7A5F9F3E70120FDF754
:10B2100079FF032202210120FDF79CF9EBE70220D0
:10B22000F5E745F610739842F0D045F61173984251
:10B23000F5D00124DFE745F610739842DDD045F6DE
:10B2400011739842D7D10220D8E7FF2303707047CB
:10B25000F8B5674A0378126804460D4662B1FE2BC2
:10B2600027D14378022B02D9053B022B21D829464E
:10B27000204600F077F91CE0132B0FD883B1013B77
:10B28000122B0DD8DFE803F0111B41525864676799
:10B29000670C0C6A6E7481929598A600FE2BE6D01E
:10B2A00029462046FFF7D1FF03E00023437009231E
:10B2B000837029462046BDE8F84002F0C7BF4378B6
:10B2C000022B0DD0032B0ED0012BE9D102F036FC5E
:10B2D000030EA370030CE370030A23716071E8E7A7
:10B2E000FFF74DFFF4E7434B1B68002BE1D0074607
:10B2F0000026F0B2FFF728F80136030A052EBB70CE
:10B30000F87007F10207F4D1D3E74378022BC7D1D5
:10B31000E378807840EA0320237940EA03406379A8
:10B3200040EA036000BAFFF730FFC2E7C2788178D5
:10B33000407800F099FBCFE742790379817843EABE
:10B3400002235BBAC27840789BB200F0A3FBB0E75F
:10B3500000F02CFCADE7FF230370AAE700F0EEFC41
:10B360006070A6E700F0ECFC030A6370A070A0E731
:10B37000C1781C299DD8A378407840EA032040BAC0
:10B38000221D80B200F0DFFC93E71A4B1B68002BF4
:10B390008FD0C1781C298CD8A378407840EA03204C
:10B3A00040BA221D80B200F0E8FC82E700F0F8FC11
:10B3B0007FE700F04FFBD3E7C1781C293FF679AF58
:10B3C000A378407840EA032040BA221D80B200F002
:10B3D0005DFC6EE7C1781C293FF66BAFA37840781F
:10B3E00040EA032040BA221D80B200F066FC60E70C
:10B3F000B0360020140C002010B5074B074C08484D
:10B40000084900225A610132202A9C60D8601961E3
:10B4100003F11803F6D110BDA03300207DB9000858
:10B42000E9B8000819B800087FB54FF4A0720021F0
:10B430001148114E114DFCF773FF10484FF4C072C4
:10B440000021FCF76DFF002401A9E0B22E6000F09E
:10B4500069FB38B9082201A93046FCF7C7FEBDF8E0
:10B460000C30AB800134202C06F10A0605F10C05E6
:10B47000EAD104B070BD00BF4A3B00209C2E0020E2
:10B48000B0F5B84F04D1034B1B68002B08BF002058
:10B49000704700BF140C0020F0B52A4C2A4E2B4FE9
:10B4A00085B0002501A9E8B246F8044B00F05CFB2A
:10B4B000014600283FD1102204F10800FCF730FFBC
:10B4C000BDF8043023809DF80A30A370BDF8083021
:10B4D000E3709DF80B3023719DF80C309DF90D2021
:10B4E0006371BDF80630E3809DF80D30002AA8BFD7
:10B4F0006761D90744BF012222729A0742BF227AAC
:10B5000042F002022272580742BF227A42F004023D
:10B510002272190742BF227A42F008022272DA062A
:10B5200042BF227A42F0100222729B0642BF237A67
:10B5300043F0200323720135202D04F11804B1D10A
:10B5400005B0F0BDA03000201C300020AA3600203D
:10B5500008B5FFF751FFFFF767FFBDE80840FFF7A9
:10B560009BBF000030B5202985B0044625D1437823
:10B570000D2B22D8DFE803F0071A2321213B465187
:10B58000215B6670797E7D49082201A8FCF72EFEBA
:10B59000202200212046FCF7C3FE2046052300F8A8
:10B5A000043B082201A9FCF721FE06E09423037066
:10B5B0000123437000238370C37005B030BDC17890
:10B5C000837803EB01235B01B3F5CA7FF5D26C49A5
:10B5D00003F12002B2F5CA7F94BFC3EB0202C3F5A8
:10B5E000CA72194405B0BDE83040FCF7FFBD202207
:10B5F000FF21FCF795FE634B1B682370624B1B68B1
:10B600006370DAE7604B01221A60604B32221A60E5
:10B6100005B0BDE8304002F0C3BA5A4B1B68037056
:10B62000594B1B684370594B1B688370C5E783787F
:10B63000C0782022214643EA002005B0BDE8304012
:10B6400000F046BD8378C0781F22611C43EA0020C9
:10B6500000F064FD2070B0E78378C0781C22211DC3
:10B6600043EA002000F072FDF4E705B0BDE8304089
:10B6700000F0FABC8378062B9FD8DFE803F0040DB6
:10B680001C424C606A0020252A460021FCF748FE37
:10B6900025706570A57090E70023C078019301A91B
:10B6A0000293ADF80C3000F01BFA034620460A2244
:10B6B00000F8013B76E7C5780A22011D01A8FCF7D6
:10B6C00095FDBDF80400FFF7DBFEADF80400BDF802
:10B6D0000600FFF7D5FEADF80600BDF80800FFF73D
:10B6E000CFFEADF80800BDF80A00FFF7C9FE01A9BA
:10B6F000ADF80A00284600F004FA2070FFF77CFE3F
:10B700005BE7002301A9C07801930293ADF80C30E8
:10B7100000F008FAC9E7C5780A22011D01A8FCF764
:10B7200065FDBDF80C00FFF7ABFE01A9ADF80C00FC
:10B73000284600F008FA2070FFF776FE3DE7002368
:10B7400001A9C07801930293ADF80C3000F00CFA17
:10B75000ABE7C5780A22011D01A8FCF747FDBDF83B
:10B760000600FFF78DFE01A9ADF80600284600F09F
:10B770000CFA2070FFF790FE1FE700BF480C01088D
:10B78000510C0108140C0020B0360020AC3600200B
:10B7900007B50F4AB0F5005F108004D203B05DF822
:10B7A00004EBFCF747BE4FF2F003ADF80030012385
:10B7B0008DF8023002F0F4F940F00100ADF8040019
:10B7C00002AB13E9030003B05DF804EBFCF7C2BF62
:10B7D0008A3C002007B50F4AB0F5005F108004D204
:10B7E00003B05DF804EBFCF73BBE4FF2F003ADF89D
:10B7F000003000238DF8023002F0D2F940F0010051
:10B80000ADF8040002AB13E9030003B05DF804EBEC
:10B81000FCF7A0BF8A3C0020F8B5CCB20546204911
:10B82000204600F05DF90146002837D11D4BDE8B24
:10B83000CEB142F2107740F2E7304FF47A72002333
:10B84000E7FB0601FCF788FC03F0EFF9164A135DED
:10B850000021013B1155A970042B1FD8DFE803F02C
:10B860001A050C0F1A000120EEE70D4B588890B115
:10B87000BDE8F840FFF7AEBF094B9888F7E7084BE3
:10B88000D8880028F4D11A8858882AB10028EFD126
:10B890001046EDE7024B18880028E9D1F8BD00BF3B
:10B8A000A03600208C3C00207C2E002070B5044681
:10B8B000FFF76EFF0B4BDD8B95B142F2107640F235
:10B8C000E73000214FF47A720023E6FB0501FCF714
:10B8D00043FC03F0AAF92046BDE87040FFF77ABFA9
:10B8E0000120F6E78C3C002070B5224CCDB2064614
:10B8F0002146284600F0F4F8002837D1B2781E4BD4
:10B90000012A0DD171794E0701D55A5505E0C807B6
:10B91000FBD5608802225A5568B9208830B30AE006
:10B92000022A21D17279510717D4D20707D4A088EF
:10B9300003225A5598B1BDE87040FFF729BFE0884F
:10B9400004225A550028F6D1208880B1FFF7AEFFB7
:10B9500060880028EFD12088EDE705225A5520881D
:10B9600020B1FFF7A3FFF6E706225A5570BD6088A5
:10B97000D4E700BFA03600207C2E002037B50E4D46
:10B9800004460846C0B2294600F0AAF888B92888BB
:10B9900078B1A378032B0BD10190FFF787FF0198B3
:10B9A000FFF784FF019803B0BDE83040FFF77EBF8A
:10B9B000F9D803B030BD00BFA036002030B5A0F5E7
:10B9C000AE43FF2B85B004460D4604D801A9C0B292
:10B9D00000F086F830B12946204605B0BDE8304079
:10B9E00000F0D2BBBDF80C0005B030BD38B58B7887
:10B9F000D3B9A0F5AE4084B2FF2C15D8134DE0B2F8
:10BA0000294600F06DF878B91148182303FB0403A8
:10BA10009B78012B0AD12B8833B16B8823B1AB887B
:10BA2000EA8813439BB233B1012038BD022BFBD10E
:10BA3000AB88002BF8D0182303FB040043796FF385
:10BA40000003437101F020FEEEE700BFA0360020A6
:10BA5000A033002004207047520002EB4111A022C5
:10BA600002FB001027307047032838B510D804298E
:10BA70000ED80F2A0CD8FFF7EFFF0546FFF720F886
:10BA80000402681CFFF71CF8A4B2204380B238BD42
:10BA90000020FCE7032870B51C460FD804290DD8F8
:10BAA0000F2A0BD8FFF7D8FF190A0546FFF756F8FB
:10BAB000E1B2681CBDE87040FFF750B870BD2328A4
:10BAC00004D800F2A72080B2FEF7FABF002070472A
:10BAD000232804D800F2A72080B2FFF73FB87047B0
:10BAE00008B503461F2B084608D80A2240F2CB218E
:10BAF00002FB0311FFF7F0F9002008BD4FF0FF3003
:10BB0000FBE708B503461F2B084608D80A2240F277
:10BB1000CB2102FB0311FFF714FA002008BD4FF000
:10BB2000FF30FBE708B503461F2B084608D80A225A
:10BB300040F20B4102FB0311FFF7CEF9002008BDD4
:10BB40004FF0FF30FBE708B503461F2B084608D827
:10BB50000A2240F20B4102FB0311FFF7F2F9002029
:10BB600008BD4FF0FF30FBE708B503461F2B084622
:10BB700008D80A2240F24B5102FB0311FFF7ACF93F
:10BB8000002008BD4FF0FF30FBE708B503461F2B30
:10BB9000084608D80A2240F24B5102FB0311FFF776
:10BBA000D0F9002008BD4FF0FF30FBE72DE9F04F42
:10BBB000344DDFF8D4A02B688DB00024019301230D
:10BBC0002B60D1464FF000085FFA84FB16E0FCF7CB
:10BBD000F7FBA042C8BF39F81730FAB2D8BF01232B
:10BBE000314658460137FFF755FF102FEFD108F1C6
:10BBF0000108B8F1050F09F1200903D000275FFA09
:10BC000088F6E4E70134042C0AF1A00AD9D100F047
:10BC10002BFA0023C822ADF80C30ADF80E30ADF889
:10BC20001030ADF81230ADF814201C46E0B203A974
:10BC30000134FFF766FF202CF8D10024CDE906443B
:10BC4000ADF82040E0B206A90134FFF77CFF202CBC
:10BC5000F8D100244FF6FF730A94ADF8283007237B
:10BC600009948DF82C408DF82D30E0B209A90134EB
:10BC7000FFF78BFF202CF8D1019B2B600DB0BDE8A6
:10BC8000F08F00BF140C002016090108F8B5144607
:10BC900000F1270556180027B44200D1F8BDA5F1E0
:10BCA0002703B3F5207F06DA2846FEF709FF207048
:10BCB00001350134F0E72770FAE7B0F5207F70B561
:10BCC000154608D2C0F520738B4204DB00F127042F
:10BCD0005618B54200D170BDA4F12703B3F5207FFB
:10BCE00003DA29782046FEF739FF01350134F0E701
:10BCF00017B4104BADF804101B68CBB99DF80510B4
:10BD00009DF80420F02908D1F02A01D10A4B1B88A4
:10BD1000184603B05DF8044B70470328F8D804298F
:10BD2000F6D80F2AF4D803B05DF8044BFFF79CBE99
:10BD30000023EDE7B03600208A3C00201020704739
:10BD400041F6751070472DE9F04114460546561826
:10BD500041F674174FF00008B44205F28B6001D130
:10BD6000BDE8F081BD4205DCFEF7AAFE207001347B
:10BD70000135F1E784F80080F9E7F8B51446054687
:10BD8000561841F67417B44205F28B6000D1F8BD25
:10BD9000BD4202DC2178FEF7E1FE01340135F2E715
:10BDA00010B540F28B64204600210134FEF7D6FE28
:10BDB000B4F5005FF7D110BD0F282DE9F341064619
:10BDC00000F2888041F6FF70FEF77AFE002840F00E
:10BDD000818040F28B6516BB01962846FEF770FE07
:10BDE0006F1C8DF804008DF80560002872D00128C2
:10BDF0006BD13846FEF764FEAC1C8DF805000028B8
:10BE000068D0431E022B1AD82046FEF759FEEF1CBD
:10BE10008DF8060078B101A800F0D0FB0BE0B5F575
:10BE2000005F57D02846FEF74BFE08B9013EF6B238
:10BE30000135D0E747463D46CFE72746FBE7431F9E
:10BE4000022B2BD82046FEF73BFE05F103088DF8A8
:10BE500006000028EED04046FEF732FE2F1D8DF87A
:10BE600007000028E7D0BDF80600ADF8020080B258
:10BE7000B0F57F4F9DF8053084BF000280B2062BDD
:10BE800006D0072B07D0052BD5D1FFF70FFDD2E742
:10BE9000FFF77EFCCFE7FFF79DFCCCE70428CCD171
:10BEA0002046FEF70DFE0446E81C2F1DFEF708FE97
:10BEB00084B178B1431EC3EB0323013C1C44013C15
:10BEC000B9D30A2002F0B1FEF9E7322101A800F04F
:10BED00029FBB0E702B0BDE8F08100000F4B104A2B
:10BEE00099880A20B1FBF0F111700E4AD9881170BF
:10BEF0000D4A598911700D4A998911700C49DA89D6
:10BF0000B2FBF0F20A700B4A198A11700A4A598A78
:10BF100011709A8A094B1A70704700BF8C3C002040
:10BF2000080C0020090C00200A0C00200B0C00203B
:10BF30000C0C00200D0C00200E0C00200F0C00201B
:10BF4000032A07B5084614D90B4A1378527802F031
:10BF5000010143EA0123C2F3400243EA42230422DF
:10BF60000DEB02010193FCF741F9002003B05DF8ED
:10BF700004FB4FF0FF30F9E7343B002008B50346DF
:10BF800008465988914205D80A465968FCF72EF9A7
:10BF9000002008BD4FF0FF30FBE70000032A07B583
:10BFA00018D904220DEB0200FCF720F9FCF706FD7E
:10BFB0000A4A0198138823F47F7323F00303C0F324
:10BFC00009001843108080B2FDF780FE002003B006
:10BFD0005DF804FB4FF0FF30F9E700BF343B002071
:10BFE000014B188800F02ABC8C3C002070B5084D2D
:10BFF0000024A6B23046FFF762FD15F8011B884207
:10C0000002D03046FFF764FD0134242CF1D170BD1D
:10C010008C3C002008B54388934207D81A464068F4
:10C02000FCF7E4F8FFF7E2FF002008BD4FF0FF3017
:10C03000FBE7000038B50A4D0024A0B2FFF73FFD32
:10C040000134242C05F8010BF7D1064D15242B697A
:10C0500003B19847013C05F11405F8D138BD00BF84
:10C060008C3C0020E80D010808B5174BAF221A8060
:10C0700041F288325A800A229A805A81DA81282233
:10C080009A82C8221A8314210022D9805A83082058
:10C0900005221E21188199815882502132209A83CD
:10C0A0001982D882D883198483F82220FFF79EFF53
:10C0B000FCF784FC054B4FF480601880FDF706FE0A
:10C0C000BDE80840FFF7B6BF8C3C0020343B0020A1
:10C0D0002DE9F7430D460646FF2128460024DFF8E8
:10C0E00038901746FCF71CF9204600F10208B845C5
:10C0F0000FD839F81420ADF80620B24206D9022232
:10C100000DF106012844FCF771F840460A34D22CA0
:10C11000EBD103B0BDE8F083E80D01080A4BF0B4A1
:10C120000024142606FB04F5EF5A874206D158195D
:10C1300083683BB94FF0FF30F0BC70470134152CD9
:10C14000F0D1F7E7F0BC1847E80D0108F8B50D4D40
:10C150000023142606FB03F4675B874205D12544C0
:10C16000EB6833B94FF0FF340AE00133152BF1D1FE
:10C17000F8E728469847044610B92B6903B1984759
:10C180002046F8BDE80D0108014B188B704700BF31
:10C190008C3C0020024B587F00F00100704700BF2C
:10C1A0008C3C0020024B587FC0F34000704700BF1A
:10C1B0008C3C0020024B587FC0F38000704700BFCA
:10C1C0008C3C0020024B587FC0F3C000704700BF7A
:10C1D0008C3C0020014BD88A704700BF8C3C00206B
:10C1E000272806D81D281AD80438192810D9002065
:10C1F000704738280AD82C2801D82B28F7D10B4BA8
:10C20000D87E80F00400C0F3800070476428F5E712
:10C21000064BD87E80F01000C0F300107047034B2F
:10C22000D87E80F00800C0F3C00070478C3C00202E
:10C23000024BD87EC0F34010704700BF8C3C0020FA
:10C24000024BD87EC0F38010704700BF8C3C0020AA
:10C2500038B505468878002800F0288145F66153F6
:10C260009D4208D020D845F615439D4216D845F684
:10C2700001439D4217D9FDF71DFD8D4C45F6154331
:10C280009D4220802AD845F601439D4215D820883A
:10C29000FDF71CFDFCF792FB002004E0A5F5B94377
:10C2A0007A3B082BE7D938BD45F6A5539D42E2D02D
:10C2B000A5F5BB432D3B022BF4E7A5F5B845033D9F
:10C2C000122D45D8DFE805F04E525662666A6E744C
:10C2D00080888C909CA0A4A8AECAB60045F60253F4
:10C2E0009D420ED845F6F9439D42D0D9A5F5B945F2
:10C2F0007B3D072D42D8DFE805F0457B7F6199A89B
:10C30000BBBF45F661539D4200F0B880A5F5BB4523
:10C31000253DABB20A2BBAD80A2DB8D801A353F8E1
:10C3200025F000BF8DC400088FC200088FC200082E
:10C330008FC200088FC200088FC200088FC2000899
:10C340008FC200085BC30008D1C300089DC4000869
:10C35000237843F00103237099E7637843F00803DF
:10C36000637094E7237843F00203F4E7237843F003
:10C370000403F0E7237843F00803ECE7637843F025
:10C380000103EDE7637843F00203E9E7237843F024
:10C390001003E0E7237843F02003DCE7237843F041
:10C3A0004003D8E7FCF70AFB237843F08003D2E789
:10C3B000237823F00C0343F00C03CCE7637823F0DD
:10C3C000030343F00303CBE723786FF30003C2E7D3
:10C3D00063786FF3C303C3E723786FF34103BAE7CE
:10C3E00023786FF38203B6E723786FF3C303B2E7D2
:10C3F00063786FF30003B3E763786FF34103AFE74C
:10C4000023786FF30413A6E723786FF34513A2E7AD
:10C4100023786FF386139EE7FCF7D0FA23786FF347
:10C42000C71398E7237823F00C0394E7637823F08D
:10C43000030395E72378C3F3800282F00102D2B2AE
:10C4400062F3820362F3C30385E76378DA4302F0A1
:10C45000010262F3000362F3410381E7FCF7AEFAE5
:10C460002378C3F3C01282F0010262F3C71372E7AC
:10C470000120FDF799FC0AE70020FAE72378C3F3CF
:10C48000001282F0010262F3041364E72378C3F31D
:10C49000000282F0010262F300035CE76378C3F3F9
:10C4A000C00282F0010262F3C30359E70120FAE6F9
:10C4B000343B0020F8B5174B17491F5C174BC208D7
:10C4C00000F007008D5C16499B5C8E5C03410541C2
:10C4D00013F0010446FA00F005F0010500F0010632
:10C4E00002D0E120FCF790F915B1E620FCF78CF9B9
:10C4F0003846FCF71BFA15B1E620FCF7D1F914B168
:10C50000E120FCF7CDF926B1BDE8F8402C20FCF77E
:10C510000DBAF8BDAC0F01088C0F01082C100108F2
:10C520009C0F01082DE9F041234F04460E464FF0C1
:10C530000A08207800283DD0012838D16378012BE3
:10C540000ED1A078A51CFCF7F1F92C460134354634
:10C55000002DEED00A20013D02F067FBEDB2F7E7B7
:10C56000022B04D1A078A51CFCF74EF9EDE7032BB4
:10C5700004D1A078A51CFCF793F9E6E7042B01D0C1
:10C580000134E3E72246002512F8023FD95D49074E
:10C59000144606D4002DD9D00A2002F046FB013DF6
:10C5A000F8E7303B08FB053512F8013FEEE7FFF7EF
:10C5B00081FFCBE7BDE8F081150801080021FFF7F6
:10C5C000B1BF000010B50F4C237802206FF3C303F6
:10C5D0002370FDF71FFA2378D90605D56FF30413EE
:10C5E00002202370FDF7F2F923789A0605D56FF340
:10C5F000451320202370FDF7E9F9BDE81040FDF751
:10C6000077BA00BF180C002010B5044611B1022003
:10C61000FDF7F8F9A4F5C043B3F5005F04D3A4F522
:10C620008043B3F5805F00D2E4B22046BDE81040FD
:10C63000FBF700BFA0F5C043B3F5005F04D3A0F53E
:10C640008043B3F5805F00D2C0B2FBF709BF0000A2
:10C6500030B50122C0F30315074C00F00F008240F3
:10C6600034F9153012B219B1134324F8153030BD26
:10C6700023EA0203F9E700BFC0360020C0F303122B
:10C68000044B33F8123000F00F0043FA00F000F0D2
:10C6900001007047C03600202DE9F843414C424F5D
:10C6A0001E46237813F0040F05468846914669D04C
:10C6B0003888A84201D0002D64D123786FF382031B
:10C6C0009907237036D4394B394A1B881188A8EB57
:10C6D00003039BB299428CBF0023012319462378A0
:10C6E00061F341032370FFF7B3FFFDF769F9820798
:10C6F00006D52378022043F010032370FDF76EF96E
:10C70000FDF75EF9830606D52378202043F0200349
:10C710002370FDF763F9217838883246C1F3400170
:10C72000FFF772FFB9F1000F06D1224BDD8B8DB9F7
:10C7300001201BE00123D1E738883146FFF778FD5F
:10C740000028F2D038883146FFF77AFD0028ECD176
:10C75000BDE8F88342F2107C40F2E73000214FF44C
:10C760007A720023ECFB0501FBF7F6FC02F05DFAA0
:10C77000217838883246C1F34001FFF75BFFFFF7AD
:10C7800021FF0AE02846FFF779FF32460146284696
:10C79000FFF750FF3B88AB42F1D0044BA3F8008079
:10C7A000D6E700BF180C0020B4360020E036002089
:10C7B0001A0C00208C3C002010B50E4BDB7EDA07F3
:10C7C00016D50D4B1B785B0712D501F0E9F90B4B21
:10C7D0000B4A1B881288C31A9BB29A42014607D89B
:10C7E0000848094B0088BDE810400122FFF754BFFC
:10C7F00010BD00BF8C3C0020180C0020E03600204B
:10C800001A0C0020B4360020B636002005490B78FB
:10C81000C3F3000282F0010262F300030B70FFF722
:10C82000D1BE00BF180C0020034B1A786FF3000232
:10C830001A70FFF7C7BE00BF180C0020014B18800C
:10C84000704700BF1A0C00202DE9F047DFF820A246
:10C850009AF81B30DB0704460F4603D40126304606
:10C86000BDE8F08701F09CF9BB787E4D804663B34C
:10C870002B785E0705D5002201467B4B1046FFF75B
:10C880000BFF45F61B439C4217D045F61C439C42C8
:10C8900018D045F61A439C4201D1FFF7B7FFA4F523
:10C8A000C043B3F5005F04D3A4F58043B3F5805FC4
:10C8B00011D26E4B00221A80D0E72B7843F001038F
:10C8C0002B70ECE7FFF7B0FFE9E7E12C36D12A78CF
:10C8D00063F304122A702B78D807BFD53946204657
:10C8E000FFF77EFCBE78002800F0B880002E00F034
:10C8F000AE80FDF765F80646FDF7B2F8304310F05C
:10C90000FD0FDFF868913AD09AF81B60002316F00B
:10C910000206A9F8003032D131462046FFF798FED2
:10C920003A462046FFF770FEFDF79AF800F0FD004A
:10C93000FDF7B4F80220FDF759F990E7E52C03D193
:10C940002A7863F34512C5E7A4F5C043B3F5005F49
:10C9500004D3A4F58043B3F5805FBCD22B785D0788
:10C960007FF57CAF39462046FFF71CFC02460028C5
:10C970007FF474AF3C4B4146FFF78EFE6EE73A4BB7
:10C98000DFF8F0A00A2218463946FBF72FFCB9F869
:10C99000003000229C42827082803AD13946204683
:10C9A000FFF746FCA8B32B7899072BD4BAF80060A0
:10C9B000B9F800003946FFF701F8A8EB0606B6B251
:10C9C000864226D2FCF7FCFF820706D52B78022090
:10C9D00043F010032B70FDF701F8FCF7F1FF83061D
:10C9E00006D52B78202043F020032B70FCF7F6FFB0
:10C9F0002978B9F800003A46C1F34001FFF704FE78
:10CA000000262CE7B9F800003946FFF719FC00288A
:10CA1000CCD1FCF7D5FF0646FDF722F82B78304342
:10CA2000C0F3400060F341032B70FDF719F800F0EC
:10CA3000FD00FDF733F82B78A9F8004043F004031C
:10CA40000220AAF800802B70FDF7D0F8D8E73B460B
:10CA5000324641462046FFF71FFE00E7002E7FF4D6
:10CA600028AFFBE6180C0020B6360020B4360020B4
:10CA70008C3C0020E0360020704700002DE9F04F8C
:10CA8000DFF8BC9099F8003085B08BB1DFF8B48046
:10CA90002A4E98F800404FF0000A4FF00E0B99F81C
:10CAA0000030A34207D8002389F8003088F800300E
:10CAB00005B0BDE8F08F671C0BFB0461FFB20622D6
:10CAC00002A8019188F80070FBF790FB01998B8810
:10CAD00023B3BDF808304FF6FF7293421ED0088989
:10CAE000C4EBC40306EB4305D0B94889904217D084
:10CAF0000121FFF7C1FF0BFB04640023A380FCF7B7
:10CB000091FFBAF1000F09D12846FBF77FFF28B942
:10CB10004FF4FA7002F089F84FF0010A3C46BEE784
:10CB200036F813206888AB88E98842EA004043EA77
:10CB300001412A89FCF766FEDDE700BFEC360020E4
:10CB40005D3700205C370020084A00231380084A24
:10CB50001088084A99B2884200D87047D17909B93B
:10CB60009171117201330C32F4E700BF5E3700207F
:10CB70001C0C00209C2E002070B50F4C0F4B217810
:10CB80000F4D1A780B469A4210D035F81360864242
:10CB90000DD10C4A0C2505FB00208B424FF0010201
:10CBA000827103D1134403F00303237070BD01337A
:10CBB00003F00303E7E700BFEA360020EB3600206E
:10CBC000E23600209C2E00208B792DE9F74F064697
:10CBD0000D46002B42D1234A234992F800B01F464C
:10CBE0008E464FF6FF794FF00108DAB293452BD904
:10CBF0002A68B1F80CA001924FF0000C4FF6FF74B8
:10CC000001985FFA8CF230F8120028B1824508BF13
:10CC100094B20CF1010CF3E74C451CD008FA04F473
:10CC2000274308FA02F2FFB2013ABA4212D10E22A9
:10CC300002FB03E3AA881A810C4902221846FBF77B
:10CC4000D5FA468185F80780304603B0BDE8F04F3D
:10CC5000FFF792BF888001330E31C6E703B0BDE80D
:10CC6000F08F00BF5D370020EC360020100801086F
:10CC7000F8B50C4B0C4D1C780C4E0D4F2B78A34285
:10CC800005D1FFF7FBFEBDE8F840FFF75DBF36F8C2
:10CC900014000C2101FB00710134FFF795FF04F033
:10CCA0000304EBE7EA360020EB360020E2360020F2
:10CCB0009C2E0020F0B50023D0F800E01A461C4658
:10CCC000DDB23EF8156076B1D1F800C0002503E072
:10CCD000BE4208BF01220135ECB23CF81470002FAF
:10CCE000F6D10133ECE71AB1AC4238BF0846F0BDCB
:10CCF0001046FCE7104B1B7870B5A3B10F4C208891
:10CD000088B10F4E00F051FF338883420BD20D4B98
:10CD10001A780D4B1B789A424FF0000504D0FFF7AC
:10CD2000A7FF3580258070BDFFF7A8FE2580BDE8F0
:10CD30007040FFF709BF00BF1E0C002060370020C5
:10CD40005E370020EA360020EB360020074A08B59F
:10CD500000231380064A1370064B1A78064B1A708C
:10CD6000FFF7F2FEBDE80840FFF788BE60370020FD
:10CD70001E0C0020EB360020EA360020034B1A7808
:10CD80000AB1FFF7E3BF01221A7070471E0C0020A2
:10CD90002DE9F04F45F6F74389B098428D7801911F
:10CDA000824609D1002D00F03581A44B01221A7072
:10CDB000284609B0BDE8F08F45F6F843984205D102
:10CDC000002D00F02781FFF7C1FFF1E745F6F94399
:10CDD000984240F01A81002D00F01C81FFF7CEFF31
:10CDE000E6E7BEB20C237343002058F803404FF629
:10CDF000FF7BC3B234F8131029B18A4508BF1FFA6C
:10CE000083FB0130F5E74FF6FF70834500F0FB80B0
:10CE10000C2000FB0680807908B988490978019CBC
:10CE200094F802900C24B9F1000F00F09C800029C6
:10CE300000F0998004FB0684214610460393029279
:10CE4000FFF7C8F90146E079029A039B70B9012007
:10CE500000FA0BF094F808B04BEA000B784884F81D
:10CE600008B0B0F800C08C4538BF01800C2000FB32
:10CE700006864FF0010B307A0BFA03F3013B834235
:10CE80000DD1704B1888002839D00392029100F020
:10CE90008CFE0299039A814231D286F806B045EAA7
:10CEA00009050137684B1B88BAB2934299D8019B98
:10CEB0009B78002B00F0B080002D00F0AD8000F0DA
:10CEC0006FFE604B1880614B1C78072C14D8621CD5
:10CED0001A7001990A2205A8FBF788F95C4B0E220B
:10CEE00002FB043305A90A221846FBF77FF94FF627
:10CEF000FF724281A0F80CA085F0010558E7554B60
:10CF000055491E7809780291002002998E420AD173
:10CF10008442C4D0514B23F816204F4B013606F003
:10CF200003061E70BBE74D4B039233F816B00C237B
:10CF300003FB0B8B21465846FFF7BCFE039A454B7B
:10CF400068B14FF0010184428171A8D019788E42F6
:10CF500005D1834502BF711C01F003011970013630
:10CF600006F00306D1E704FB068494F8079094F8D2
:10CF700008C0B9F1000F19D1012404FA03F3013BF1
:10CF8000634502D170B901EA04090C2303FB06864C
:10CF9000012303FA0BF396F808B02BEA030B86F88B
:10CFA00008B07CE71046FFF7E7FDEEE70CF1FF3035
:10CFB0004CFA0BF310EA0C0003F0010320D1FBB193
:10CFC000A188C9B14FF6FE6205900690ADF8142015
:10CFD00000F0E6FDA288ADF81C2040F00100ADF89D
:10CFE000180005AB93E80700FCF70CFC0C2303FBCF
:10CFF00006830022DA71C8E71046FFF73DFDF5E72A
:10D000005FFA83F9C1E7894649E700273D46DFF823
:10D01000508047E72F46FAE70E4B1A780E4B1B78E5
:10D020009A4202D0FFF724FE66E7FFF727FD054B83
:10D0300000221A80FFF788FD5EE700BF1E0C00206B
:10D040005E370020603700201C0C00205D37002078
:10D05000EC360020EA360020EB360020E2360020D5
:10D060009C2E002045F61643984210B50C4635D14B
:10D07000FCF7A6FC1A4A927ED10700F0AA0303D55A
:10D0800010F0440F18BF0023910703D510F0110FC3
:10D0900018BF0023510703D510F0880F18BF0023D5
:10D0A000120703D510F0220F18BF0023A1780D4AF4
:10D0B00061B1002B15BF01230023352029201370F7
:10D0C000FCF71AFCFCF714FD002010BD1378002BB0
:10D0D00014BF35202920FCF717FCF3E70120F4E703
:10D0E0008C3C002062370020F8B50B4F0B4E0C4DE6
:10D0F0000446386800F060FDB0F5FA7F07D23B685F
:10D1000033604FF4FA732B60064B1C80F8BD00F0BF
:10D1100015FD32233060F6E77837002070370020A5
:10D120006C370020743700200379194216D18378B8
:10D13000B3B1027A120701EA030103D5081E18BF32
:10D140000120704703F00F0001F00F0240EA1310B6
:10D1500042EA1111431A5842584170470020704763
:10D1600001207047F8B5234D2B680646002B39D0B7
:10D17000214B00221A80FCF76DFCFCF75FFC2A684B
:10D18000D388A3F58071B1F5F85F3CBF23F4F85361
:10D190009BB213F0FF04D36814BF012700271BB113
:10D1A000116900209847074037B1231FDBB2A02B3D
:10D1B00019D82046FCF7A8FB104C76B12B681A7AD8
:10D1C000D2060AD4227842B11888431E9BB245F693
:10D1D000AF52934201D8FFF787FFFCF789FC002389
:10D1E0002B602370F8BDFCF783FC2046FBF758FB4F
:10D1F000E2E700BF64370020743700206837002062
:10D20000024B00201870FFF7ADBF00BF1F0C0020BD
:10D21000034B1A780AB1FFF7F3BF01221A70704767
:10D220001F0C002070B5094C238873B1084E094DBE
:10D23000306800F0C1FC2B68984206D32088FBF7C9
:10D24000F9F80023238033602B6070BD7437002011
:10D25000703700206C3700202DE9F04F8C7885B0B6
:10D2600006460D46B4B145F65F5398420BD045F6DD
:10D27000605398420BD045F65E5398420AD1FFF7AF
:10D28000C7FF00270AE0904B01221A70F9E7FFF769
:10D29000B7FFF6E78C4B1F7827B90127384605B052
:10D2A000BDE8F08FFCF78CFB8246FCF73BFB804629
:10D2B000FCF7D6FBA6F1E00948EA00081FFA89F955
:10D2C00048EA0A01B9F1070F48B23DD806F0070352
:10D2D0000121994049B2002C33D001435FFA81FB10
:10D2E0002888FBF787FF794B1B68002B00F0D48060
:10D2F000012282400192764A12680092754A128891
:10D300004FF0000A5FFA8AF053F82050002D00F029
:10D31000C380BBF1000F01D1A87878B9E8780199F2
:10D3200008420BD0287A10F0070F08BF0720B9F188
:10D33000070F1BD8BCB1C0F34000D8B90AF1010AED
:10D34000E0E720EA0101C9E7624B5FFA80FB002CAD
:10D3500000F09A801E8000F0F1FB5F4B18605F4B7D
:10D3600000221A80BCE7C0F38000E6E7002CE5D07D
:10D37000C107E3D5B5F80080464501D1002CDDD0CA
:10D3800000998D42DAD0686910B100780028D5D0B4
:10D390005946284603920293FFF7C6FE029B039A62
:10D3A0000028CBD0464540F08980002E3DD14FF07B
:10D3B00000080020FFF7D6FE454B68791D60484BFA
:10D3C00001221A70FCF740FB4CB9B8F1000F06D0EF
:10D3D0002B882878043BA02B2DD8FCF795FAEE88F3
:10D3E000A6F58073B3F5F85F3CBF26F4F856B6B2E5
:10D3F000771EBFB245F6AF539F42EB688CBF002744
:10D4000001271BB1296901209847074057B1E888D7
:10D41000FAF7D8FFFCF70CFBB9F1070F0ED830462E
:10D42000FFF762FEFCF764FB0FE0002CC1D19045D2
:10D4300084D10024BDE7FBF733FAD0E7F5B2043E10
:10D44000A02E08D82846FCF757FA002C3FF425AF49
:10D45000FCF74EFB15E7FCF74BFB642001F0E5FB06
:10D460002846FBF7D1F9F0E70388B34204D134B979
:10D470001B4B1C7000201EE0002C3FF40EAF037A03
:10D480009B063FF50AAFF5E71A88B24204D11C802B
:10D49000114B1C60114B1C800D4B186800283FF489
:10D4A000FCAEB9F1070FDFD85946FFF73DFE002863
:10D4B0007FF4F3AE0120FFF755FEEFE6B8F1000F61
:10D4C000B5D1444673E700BF1F0C0020100C0020AC
:10D4D000643700207637002078370020743700202A
:10D4E000683700202DE9F047144682789DF82080A7
:10D4F0001D4607462C4B8A4692B11C7000F050FB2B
:10D500002A4B188004F12003DBB2072B49D804F022
:10D5100007040120A040C0B2BDE8F047FBF712BAF3
:10D520001E78A64233D1214B188800F03EFB3946C5
:10D5300081465046FEF742FA814528D2AE4205F1B7
:10D54000200415D006F12003DBB2072B06D806F025
:10D5500007060120B040C0B2FBF7FDF9E3B2072B8C
:10D5600006D805F0070301209840C0B2FBF7EAF99E
:10D570004046E4B2FBF7DAF9072C12D805F00705AC
:10D580000120A840BDE8F047C0B2FBF7E4B904F1C0
:10D590002003DBB2072B04D804F007040120A040CD
:10D5A000F0E7BDE8F08700BF7C3700207E37002021
:10D5B00013B545F6F64304469C4208460FD845F697
:10D5C000F2439C4212D845F6D8439C421DD045F602
:10D5D000D9439C423ED045F6D7439C420FD0807839
:10D5E00000283BD01E4B00221A701CE0A4F5B94461
:10D5F000743C022C0ED8DFE804F0181F2600262306
:10D600000093E1231A4621460AE027230093E523ED
:10D61000E522F8E726230093E022E12345F6F341D3
:10D62000FFF760FF002002B010BD27230093E42223
:10D63000E52345F6F441F3E726230093E222E123B4
:10D6400045F6F541ECE727230093E622E52345F66E
:10D65000F641E5E7282300930123D9E70120E2E71B
:10D660007C370020036910B504460BB14169984727
:10D67000E078FCF7CFF92079FCF7B0F9FCF738FA3D
:10D6800000232360A38010BD43799A0710B5044698
:10D690000FD443F002034371C078FCF7B3F920794B
:10D6A000FCF794F9FCF724FAE36813B161692046AA
:10D6B0009847064B00221A806379DB0704D4204682
:10D6C000BDE81040FFF7CEBF10BD00BF803700207F
:10D6D0008B7810B5ABB10B4B1B8893B1834210D044
:10D6E000094C1822DBB25343E218517941F004018E
:10D6F0005171E0521046FFF7C7FFBDE81040FCF73C
:10D7000091B910BD80370020A0330020F8B5A0F5F6
:10D71000AE43FF2B05462BD81A4E8B78C7B2182480
:10D7200004FB0764627963F30002627113B300F0D3
:10D7300037FA154B1880A3780133A370FCF740F932
:10D74000E070FCF759F9E3781843E070FCF788F9CA
:10D75000A368207113B1616920469847182303FB21
:10D760000766737913F0020F084B18BF00251D8060
:10D770000120F8BD63799B07FAD52046FFF772FFB9
:10D78000F6E700BFA033002082370020803700205A
:10D7900030B5114C238885B0E3B1104B188800F0E8
:10D7A00004FA0023054601A9208801930293ADF8ED
:10D7B0000C30FEF703F985420CD92378084818226B
:10D7C00002FB030043795B0704D405B0BDE8304099
:10D7D000FFF75ABF05B030BD8037002082370020E8
:10D7E000A0330020014B1860704700BF8437002031
:10D7F000024B186808B10368184770478437002047
:10D80000084B1B686BB1084A127842B1074A92F97B
:10D810000020002ABFBF02784270062202705B68B7
:10D820001847704784370020500D0020343B0020FB
:10D83000034A12681AB102210170936818477047B1
:10D8400084370020054A1188814205D0044B10809E
:10D850001B680BB1DB681847704700BF8A37002090
:10D8600084370020054A1188814205D0044B10807E
:10D870001B680BB11B691847704700BF8837002031
:10D88000843700200C4B1B78821C63B10B4B93F93F
:10D890000030002BACBF06231E230020013BDBB26F
:10D8A000FF2B02D170470623F7E712F8011B00296E
:10D8B000F4D00130C0B2F1E7500D0020343B00201D
:10D8C000F9B1124B1B78A3B1114B93F90030002B27
:10D8D0000FDAEF294FEAD10213D81044012301F0E7
:10D8E000070103FA01F18378194214BF01200020D7
:10D8F0007047831C083013F8012B8A4203D08342FF
