:020000040800F2
:100000000004002091010008A76700089301000880
:100010009301000893010008930100089301000870
:100020009301000893010008930100089301000860
:100030009301000893010008930100089301000850
:100040009301000893010008930100089301000840
:100050009301000893010008930100089301000830
:100060009301000893010008930100089301000820
:1000700093010008930100089301000855750008DA
:100080009301000893010008930100089301000800
:1000900093010008930100089301000893010008F0
:1000A00093010008930100089301000893010008E0
:1000B0009301000893010008930100089D75000852
:1000C00072B6244880F30888234880F30988022008
:1000D00080F31488BFF36F8F06F070F805F03EFED2
:1000E0001E481F491B4A914202DA08600431FAE7B0
:1000F0001C49194A914202DA08600431FAE71A49A8
:100100001A4A1B4B9A4204DA086810600431043220
:10011000F8E700201749184A914202DA08600431D2
:10012000FAE706F04FF806F04AF8144C144DAC42CA
:1001300003DA216888470434F9E702F0CFFA114C5A
:10014000114DAC4203DA216888470434F9E70F49BE
:100150000847000000040020000C002055555555AC
:100160000000002000040020C4870008000C0020CC
:10017000900D0020900D0020602C0020C000000891
:10018000C0000008C0000008C0000008C1610008ED
:1001900096E700F000F8FEE7F0B544464D465646B7
:1001A0005F46F0B46B46CB60C3689D46F0BCA0468A
:1001B000A946B246BB46F0BD62B6281CA047002047
:1001C00006F06EFAFEE706F0D1F9024A024B136020
:1001D000FEE7C04604ED00E00000008002B4714676
:1001E00049084900095649008E4402BC7047C04680
:1001F00002B4714649084900095C49008E4402BCBA
:100200007047C04603B47146490840004900095E82
:1002100049008E4403BC704703B47146490840004E
:100220004900095A49008E4403BC7047002934D064
:100230000123002210B488422CD301242407A142B8
:1002400004D2814202D209011B01F8E7E400A14275
:1002500004D2814202D249005B00F8E7884201D310
:10026000401A1A434C08A04202D3001B5C082243E8
:100270008C08A04202D3001B9C082243CC08A04259
:1002800002D3001BDC082243002803D01B0901D045
:100290000909E3E7100010BC704701B5002000F029
:1002A0000BF802BD0029F8D003B5FFF7C1FF0EBC63
:1002B0004243891A1847C0467047C046002B11D1E7
:1002C000002A0FD1002900D1002802D00021C94303
:1002D000080007B4024802A14018029003BDC046BE
:1002E000D9FFFFFF03B4684601B5029807F094FCFC
:1002F000019B9E4602B00CBC7047C046D0400B002C
:10030000D1409C46203AD340184352426346934022
:10031000184370479140030090409C46203A934018
:10032000194352426346D340194370471C210123AD
:100330001B04984201D3000C10391B0A984201D3C8
:10034000000A08391B09984201D30009043902A2A6
:10035000105C40187047C04604030202010101010D
:10036000000000000000000010B5002903D1FFF7D5
:10037000DDFF203002E00800FFF7D8FF10BDC046C7
:1003800030B5032A0CD903000B439B071CD103682B
:100390000C68A34218D1043A04300431032AF6D879
:1003A000551E002A0ED002780C7894420ED10135E9
:1003B0000123013904E0C25C0133CC5CA24205D1C7
:1003C000AB42F8D1002030BD551EECE7101BFAE718
:1003D000F0B5C64600B50F2A43D90B0003260343E8
:1003E0001E400C000300002E40D11500103D2D09C9
:1003F000AC462D01A846804400E03B0067682568B4
:100400005F60E7681D60DF601F00A56810379D60B2
:1004100010344345F1D165460F230C2401352D01DD
:10042000491913404519144223D08C59AC51043654
:100430009C1B032CF9D80324043B9B0801339B002D
:100440002240ED18C918561E002A07D0002300E0EC
:100450002300CA5C5C1CEA549E42F9D180BCB846B9
:10046000F0BD0500561E002AF0D1F7E7561E050024
:10047000ECE71A00F6E7C046F0B5050083074AD05E
:10048000541E002A44D0CEB20300032202E00135FC
:10049000013C3DD301332E701342F8D1032C2FD9E8
:1004A000FF220A40150215432A0415430F2C35D9A3
:1004B0002700103F3F093E01B4461E001A001036C7
:1004C0006644156055609560D5601032B242F8D12F
:1004D0000F260C2201373F012640DB19370022424C
:1004E00017D03E1FB608B400A4461A001C1D644471
:1004F00020C2A242FCD103240136B6009B193C4025
:10050000002C05D0C9B21C19197001339C42FBD1D3
:10051000F0BD3400F4E714000300BFE72700E0E774
:1005200004207047F822411EFF39030010B5002057
:100530005201914218D2802280210130FF301840B0
:100540009200441EA0411A40C900DC040DD50001F0
:10055000002A01D0202210430B4201D04022104338
:100560001B0501D58023184310BDC0B2002A01D05D
:10057000022210430B4201D0042210431B05F3D585
:100580000823F0E710B50C00FFF7CCFFA04710BD23
:100590000300E03B10B50400072B02D905490028F1
:1005A00000D105492000FFF7EDFFE0B200F0EAF9C5
:1005B00010BDC046B10A0008910A000810B5040039
:1005C000C0B200F01DFA2300E03B072B02D904491A
:1005D000002C00D103492000FFF7D4FF10BDC04616
:1005E000C10A0008A10A00080120704701207047D5
:1005F00010B5FFF7FBFF10BD704710B5FFF7FCFF0C
:1006000010BD000013B5104B00901B78002B16D1C5
:100610006B469B78002B0DD0002A0BD000F09EFE7D
:1006200004000100009800F071FE2000009903F022
:1006300049F916BD009800F07DFE0400F5E700982A
:1006400000F08CFE0099F2E7950D002010B5030034
:1006500000890A00002806D1588819880004084338
:100660009988FFF7CFFF10BD10B504000121FFF7F7
:10067000EDFF210004F07EF910BD10B5040000214B
:10068000FFF7E4FF2100FFF7B8FF10BD30B504000D
:10069000012005008D4029000500954098402A0062
:1006A000030020000A43D1B2984322408A4201D17C
:1006B0002343D8B230BD000010B504001300044A33
:1006C00010780A002100FFF7E1FF00F099FD10BD4E
:1006D0009D0D002010B501F0D2FE10BD10B501F047
:1006E000D3FE10BD7047000010B500F003FAFFF70D
:1006F000F9FF024805F0D9FF10BDC046C40900004B
:1007000010B5FFF7F1FF04F0F7FF10BD10B5FFF7CC
:10071000EBFF05F005F810BD70B504000D0004F006
:1007200001FE2900200002F04BFB002801D100202F
:1007300070BD2900200002F03DFF0028F7D02900FD
:100740002000FFF755FF0028F1D02900200004F019
:100750008BFB0028EBD02900200004F001FE0028CC
:10076000E5D02900200003F055FE0028DFD0290045
:10077000200004F03DFD0028D9D02900200003F01E
:100780003FFB0028D3D02900200004F057FA0028AE
:10079000CDD0AB78002B0DD0144B9C4223D00DD87C
:1007A000134B9C4216D0134B9C4219D05B3BFF3B32
:1007B0009C420CD02800FFF717FFB9E70E4B9C4274
:1007C0000BD00E4B9C42F5D1FFF7A0FFAFE7FFF730
:1007D00097FFACE701F092FBF6E701F0D9FAE9E701
:1007E00001F0E2FAE6E701F0E4FAE3E75B5D00001E
:1007F000DE5C00005A5D00005C5D0000A75D00004B
:1008000010B504000121FFF721FF2100FFF784FF4D
:1008100010BD10B504F0D3FE00F032F810BD10B5D5
:1008200000F033F804F0D0FE10BD704710B5FFF7AC
:10083000FCFF10BD0120704710B5041CFFF7FAFF44
:10084000002804D00223034A234201D0138310BDA1
:100850005383FCE70004004810B5044C0122022138
:10086000200006F0D0FD0223638310BD0004004881
:1008700010B50400FFF7DAFF201CFFF7DDFF10BD05
:1008800010B50020FFF7F4FF10BD10B504F0E0FD37
:10089000FFF7EEFF10BD000010B504F0D9FD074BC7
:1008A00004001A78824207D0187004F0DBFE044B73
:1008B00018602000FFF7DCFF10BDC046940D00203B
:1008C000900D002030B589B0020C05AC8BB20090C1
:1008D00001910590D2B2A180002B07D02188224B34
:1008E000994203D021490B6801330B60002A01D0E3
:1008F00001F034F904251A202A0000216844FFF78A
:10090000BBFD009B05936B469B88A380184B5B78CF
:100910002B4210D0174B5B88002B0CD001F0CAF88B
:10092000002802D0022001F0FFF901F09DF8002814
:1009300001D001F069F9059A03AB0392A2889A806D
:10094000A288002A08D01A88074B9A4204D02000B7
:10095000FFF78AFE002804D005986168A26800F0BD
:10096000E9FF09B030BDC046FFFF0000980D002030
:10097000D42900202C2B002010B5008800F010FD99
:1009800010BD000010B5041E14D0031FDBB2A02B55
:1009900011D8194B0100186804F0A0FD002804D0FC
:1009A000200001F049F801F03FF9200001F03AF889
:1009B00001F03AF910BD03002033DBB2072B07D852
:1009C000072004400638A040C0B201F09BF8EFE7D2
:1009D00003005B33DBB2022B04D8243880B204F06E
:1009E0004BFDE7E75834E4B2162CE3D8034B640020
:1009F000E05A04F053FDDDE7000C00207E80000883
:100A000010B5002807D0031FDBB2A02B04D801F0DB
:100A100013F801F009F910BD03002033DBB2072BF6
:100A200007D807231840063B8340D8B201F072F87C
:100A3000EFE703005B33DBB2022B03D8002004F0A6
:100A40001BFDE8E75830C0B21628E4D8002004F0B7
:100A500025FDE0E770B505000C00FFF793FF002CC3
:100A600003D12800FFF7CCFF70BD0A20013C05F040
:100A70001CFEA4B2F3E7000010B5044B392803D1E3
:100A8000198CFFF7E7FF10BDD98BFAE72C2B00205C
:100A900010B5002803D001F035F801F0C5F810BDFD
:100AA00010B5002803D001F035F801F0BDF810BDF5
:100AB00010B5002803D001F041F801F0B5F810BDE1
:100AC00010B5002803D001F041F801F0ADF810BDD9
:100AD00010B5002004F0D0FC002004F0DFFC01F091
:100AE0003DF801F0A1F810BD10B500F0AFFFFFF721
:100AF000EFFF10BD10B501F015F8FFF7F5FF10BDC1
:100B0000C2B20004000F062818D00F2306280ED802
:100B10000E3003400020012B08D80120F02A05D018
:100B200007D80020E72393424041C0B27047063007
:100B3000EFE7F43A100043425841F6E70120E72A74
:100B4000F4D9F13A53425A41D0B2EFE713B5040059
:100B5000010006226846FFF73BFCA08800280CD065
:100B60006B461A88074B00209A4206D0208900283D
:100B700004D001F099FAFFF7C3FF16BD208800F0FA
:100B80000FFCF8E7FFFF0000F0B5837985B01B0983
:100B90000C1C85780190009300F0A4FF27040290BC
:100BA00000281DD00295002D1AD00F223B0E934332
:100BB000402B06D0230000222033DBB20292072B09
:100BC0000ED90022A74B02925B785B0708D5022062
:100BD00001F0AAF800F086FF01234340DBB2029344
:100BE0003B0F03930B2B3FD81800FFF715FB0C00AE
:100BF0000C006700670026013D003D003D004501F7
:100C0000A401B501B5010F2326053F0E360F9F4302
:100C100000D03601E7B2002D12D0002E0BD03B00E1
:100C20002033DBB23000072B01D9002F05D100F0B3
:100C300069FF00F0F9FF38007BE000F07FFFF8E784
:100C40003800FFF7DDFE002E0ED03B002033DBB274
:100C50003000072B01D9002F02D100F05BFF01E02B
:100C600000F074FF00F0E0FF039B083B032B03D868
:100C700004F0EEFBFFF7FCFD201CFFF741FF00280E
:100C800000D00BE20022784B1A60029B002B13D09D
:100C900000F008FF012302001A4018420CD1019B0A
:100CA0009A7000F0F7FE00F0C1FA019800F03AFAED
:100CB00000F0F0FE00F0C6FA05B0F0BD0F232605E7
:100CC0003F0E360F9F43202F00D03601E7B2002F92
:100CD00021D0012F00D182E0009B002D00D18CE0BB
:100CE000002B56D0019A019B50881B8800049188E4
:100CF00018430022FFF786FC019903F02FF8002823
:100D000099D1019B9B79DA0700D494E70F22134015
:100D1000019A93713DE0534B5B785B0714D4002D2F
:100D20000AD0002E04D0300000F0ECFE00F07CFF72
:100D30000020FFF727FE97E72800FFF761FE002E4F
:100D400000D191E7300088E7009B002D23D0002BD5
:100D500006D100F021FF3043C0B2FFF799FE83E7D0
:100D6000009B012B06D100F017FF3043C0B200F00A
:100D700031FF79E73D4B1B7F012BEAD9009A934263
:100D8000E7D100F041FF00F069FE3043C0B200F04F
:100D90000FFF3000E1E7002B02D100F035FF14E037
:100DA000324B009A1B7F012A13D1012B00D85BE73D
:100DB00000F0A2FE064200D156E700F025FF00F049
:100DC0004DFEB043C0B200F0F3FE3000FFF768FE06
:100DD0004AE7012BE1D9009A9A42DED144E7234B3E
:100DE000009A0333DB7F002D03D09A4200D93BE702
:100DF000CFE79A4200D337E7E7E7002BE5D01B4B5C
:100E0000392F18D1188C00280ED000232900184A39
:100E100006F0DEFE0023174A80185941FA2200230B
:100E20009200FFF74BFA00E0012005F03EFC38008D
:100E3000FFF7E6FD18E7D88BE5E723059B0F09D000
:100E4000012B00D010E7281E01D0A005800D04F072
:100E500025FB09E7281E01D0A005800D04F00CFB3E
:100E600002E7C046D4290020980D00202C2B00203A
:100E700010270000E7030000BF01BF0F28D1002D9D
:100E800000D0F1E623065B0F9B002007DBB2000FCA
:100E900098401021C2B208002040214203D00F2008
:100EA0009840C043C0B223059B0F1043022B09D0CA
:100EB000032B0AD0012B02D000F088F9D4E600F011
:100EC0007BF9D1E600F08CF9CEE600F070F9CBE6C4
:100ED000A3059B0FDAB2002D1FD0DB0700D4C3E6B9
:100EE00023065B0F9B002007DBB2000F9840102108
:100EF000C2B208002040214203D00F209840C043D6
:100F0000C0B223059B0F1043022B0ED0032B0FD032
:100F1000012B07D000F0B8F9A6E602231A4200D14F
:100F2000A2E6DDE700F0A6F99EE600F0B7F99BE641
:100F300000F066F998E62605E7B2360F002D04D0DA
:100F4000300000F073F9380007E73800FFF7A8FD1C
:100F5000300000F077F987E6E6B23000F038042878
:100F600071D8FFF745F9032A151C26005D4B009A3E
:100F70000333DB7F002D07D09A4200D374E6E004F0
:100F8000C00E00F06BF96FE69A4200D96CE6F6E706
:100F9000E004C00E002DDCD100F048F964E6002D1D
:100FA00004D0E004C00E00F03AF95DE600F032F93A
:100FB0005AE64D4B5B785B0704D4E004C00E002D6D
:100FC000C7D0E9E7474E337F012B2FD9002D1DD025
:100FD00000F068FD042808D100F098FEE004C00E7F
:100FE00000F030F9002302933EE60022337F0292A4
:100FF000009A934200D837E6E604F60E300000F07F
:1010000015F90321300000F061FE2DE6009A9342AD
:1010100008D800F07BFEE0040421C00E00F056FE6C
:10102000029521E6012000F07FFEF9E7002DE3D1D3
:10103000012000F079FE009B012B00D814E602206D
:1010400000F072FE10E6009B002D06D0002B01D0B0
:1010500030006EE6E004C00E9EE7002B1BD0214B53
:10106000392E16D1188C00280ED0002329001F4AD3
:1010700006F0AEFD00231E4A80185941FA220023D3
:101080009200FFF71BF900E0012005F00EFB300095
:10109000CEE6D88BE7E7E004C00E5AE7009B002DB0
:1010A00003D0002B00D0EDE5EFE5002B00D0E9E503
:1010B000019A019B50881B88000491881843009A6C
:1010C000FFF7A0FA019902F059FE002800D1D9E5F6
:1010D000084B1B68022B00D0D4E5E0B2FFF7CCFC34
:1010E000D0E5C0462C2B0020D4290020102700007A
:1010F000E7030000980D002070B504000089002867
:101100000BD000F0D1FF051C00F0D2F800F04EF833
:10111000291C2000FFF738FD70BDA078218800F061
:1011200049F9F0E713B50400010006226846FFF70D
:101130004FF9A388002B17D06B461A880E4B9A42A2
:1011400012D02000FFF75CFB00280ED100F0CAFC93
:10115000002809D0A378002B06D0084B5B785B07EA
:1011600002D5022000F0E0FD13BD2000FFF7C4FF10
:101170002000FFF782FAF7E7FFFF0000D4290020E4
:1011800082B002B0704784B004B07047704710B5A9
:10119000FFF7FCFF10BD000010B5FFF7F8FF024B92
:1011A0001870FFF795FC10BD9C0D0020704710B51E
:1011B000FFF7F2FF10BD000010B5034B1B7818437A
:1011C000FFF7EAFF10BDC0469C0D002010B5034B91
:1011D0001B781840FFF7E0FF10BDC0469C0D0020B3
:1011E00010B5034B1B785840FFF7D6FF10BDC04623
:1011F0009C0D0020704710B5FFF7FCFF10BD0000EC
:1012000010B5FFF7F8FF024B1870FFF761FC10BD37
:101210009D0D002010B50020FFF7F2FF10BD012347
:10122000834010B5D8B2FFF7EBFF10BD0123834018
:1012300010B5034A10781843C0B2FFF7E1FF10BDA4
:101240009D0D00200123834010B5034A1078984378
:10125000FFF7D6FF10BDC0469D0D0020012383403F
:1012600010B5034A10785840C0B2FFF7C9FF10BD4F
:101270009D0D002010B5034B1B781843FFF7C0FFEE
:1012800010BDC0469D0D002010B5034B1B781840C3
:10129000FFF7B6FF10BDC0469D0D002010B5034BF3
:1012A0001B785840FFF7ACFF10BDC0469D0D0020D5
:1012B0007047032370B50126CC086343D218072377
:1012C000350019408D400021EDB20300CB40545C45
:1012D00033405B4263402B40634053540131032948
:1012E000F3D170BD30B50724032300220440C008A9
:1012F00058430125091810008B5CE3402B409340B4
:1013000001321843C0B2032AF6D130BD07B5030439
:1013100001AA10801B0E0800042B07D812780F2A90
:1013200004D819018918024AFFF7C3FF07BDC04658
:101330009E0D002007B5030401AA10801B0E00209B
:10134000042B07D812780F2A04D8180102498018F4
:10135000FFF7C8FF0EBDC0469E0D0020F7B507245D
:1013600001270D4B01AE30801A780C4B1B781A43C5
:101370000092009BE5B223413B4204D1013CF8D2EC
:1013800000252800FEBD2800316800F055FF80B21E
:101390000128F3D0F5E7C0469D0D00209C0D0020EC
:1013A00007B501AB18800198FFF7D8FF019900F04D
:1013B00043FF0EBD37B50F4B01AD1B782980002BC5
:1013C00003D00198FFF7ECFF3EBD00280CD0286841
:1013D000FFF7C4FF040001002868FFF797FF200013
:1013E000019900F029FFEFE72868FFF7A3FF040049
:1013F000F5E7C046950D002070B50A2507260C4B71
:101400001C780C4B1B78A34200D170BD2B006343AA
:10141000094A0134995AD31858889A880004084315
:10142000D9883440090411431A89FFF7ACFEE8E774
:10143000170E0020160E0020C60D0020064B10B51A
:1014400058881A88D988000410439A8809041143DF
:101450001A89FFF798FE10BDBC0D0020F7B50727CD
:1014600001900E480E4B00781B7800900D48009CB0
:10147000A34201D10020FEBD0A255D4344196678D0
:101480008E4206D12D5C019EB54202D1A4789442D1
:1014900002D101333B40EAE70120ECE7160E0020C1
:1014A000170E0020C60D0020F7B50F22234CA3799C
:1014B00093433ED1A378002B3BD0214B1D78214B89
:1014C0001B78AB4235D0062221006846FEF780FF2C
:1014D000A388002B2ED06A4611881B4A914229D03E
:1014E0000A216943194A677856187078874221D1D2
:1014F00020788A5C90421DD1B17800291AD1B78832
:101500002000FF1AFFF7A2F82100BFB202F03AF85C
:1015100087420FD20F211022A37920000B401343E2
:10152000A371B3790B401A43B271FFF7FBFDFFF7CC
:1015300063FFF7BD072301351D40C0E7BC0D002048
:10154000170E0020160E0020FFFF0000C60D002021
:10155000F0B504008FB009AF062201003800FEF795
:1015600037FF2378A74D0393637800210293A37874
:1015700028000193A3880493FFF768F806220790D8
:1015800029000BA8FEF724FFAB880693002B00D19F
:101590003CE108AB9B899C4A934200D136E1AB7891
:1015A0000593002B00D131E1049B069A002128000D
:1015B0009E1AFFF74BF8290001F0E4FFB6B20F22A4
:1015C000AB79864200D3E2E0AE88934300D093E04B
:1015D0002900093A0BA8FEF7FBFE019F002E1ED042
:1015E00008AB9B89884A934219D022889A4216D127
:1015F0002A8923899A4212D1002F10D10F22814DBE
:10160000AB791A4010231343AB71FFF717FF280083
:10161000FFF788FDAB79A37138000FB0F0BD039AD6
:1016200009AB1A70029A0BAD5A70039B6A702B704B
:10163000049B002B06D02B88734A934202D0019B57
:10164000002B26D0039B2B70029B6B70049B002BFE
:1016500036D02B886C4A934232D0019B002B45D167
:10166000019A02990398FFF7F9FE071E2BD10998FA
:10167000FFF796FEC3B200040F21020F012A24D9FE
:101680000E320A40012A2AD92000FFF74BFD059FA0
:10169000C2E7019A02990398FFF7E0FE0028D1D033
:1016A000584E0798310002F051FB0028CAD0300094
:1016B000FFF738FD0A2201993000FEF7DDFEFAE05F
:1016C000019B002B12D10027A6E7000E014201D09A
:1016D000002BA1D02033DBB2072B9DD9D4E7000E1D
:1016E0000142F7D0A2798A43F4D195E70123454A14
:1016F00091790B439371E6E7062229000BA8FEF7C8
:1017000067FE002E1CD008AB9B893F4A934217D03E
:1017100022889A4214D12A8923899A4210D1019BA6
:10172000002B0DD1374D2000AB79A371FFF7FAFCE8
:101730000A2221002800FEF74BFEFFF77FFEA6E7F6
:101740002000FFF703FA00281DD0019B002B1AD0C0
:101750002C4B9A791F2A0BD919880BA801800021DC
:1017600081700499827181801B890381FFF7DAFC03
:101770000A2221002348FEF72BFEFFF795FEFFF714
:101780005DFE012748E72000FFF7CCFCF9E7934313
:101790001E1E13D1039B3B70029B7B70019BBB7091
:1017A00003CFFFF7EDFC2800FFF7BCFC0A22310055
:1017B0002800FEF761FEFFF741FE84E706222900BC
:1017C0000BA8FEF705FEAB88002BB9D008AB9B89B0
:1017D0000D4A9342B4D02A8823889A42B0D12A89EC
:1017E00023899A42ACD1019B002BA9D1054D200041
:1017F000AB79A371FFF796FC0A2200212800FEF7BF
:101800003BFE44E7BC0D0020FFFF0000474E0622D0
:1018100031000BA8FEF7DCFD069B002B70D008AB57
:101820009B89434A93426BD0B778002F68D1049BC1
:10183000069A390030009D1AFEF708FF3100ADB25C
:1018400001F0A0FE85424DD2019F002F9BD00622C1
:1018500031000BA8FEF7BCFDB388002B34D008ABD9
:101860009B89334A93422FD0328823889A422BD1C6
:10187000328923899A4227D13100079802F076FAFB
:1018800000281BD1B279D30718D40F2113008B4342
:1018900014D0A271F02B06D0D3B21A090132120172
:1018A0000B401343A3712000FFF73CFC0A222100E8
:1018B0003000FEF78DFDFFF7C1FDADE60A222100E5
:1018C0003000FEF785FDA7E62000FFF73FF900286E
:1018D00000D04DE70123B27920001343B371FFF725
:1018E00021FC99E6039A09AB1A70029A5A70019A80
:1018F0009A700A990998FFF743FC0A223900DBE63F
:10190000019B002B00D13EE72000FFF71FF9071EC7
:1019100000D138E70A2221002800FEF759FD2800EF
:10192000FFF72AF8FFF7C0FDC5E7C046BC0D002051
:10193000FFFF0000F0B58BB001AD01902800696099
:10194000AA60FFF705FE324C060007A9002810D058
:1019500001980790AB888B80AB88002B07D00A8852
:101960002C4B9A4203D06968AA68FFF70CFC0A273F
:1019700047E00B002A0081CA81C312881A800798A9
:10198000AA880590888805AB9880002AEFD0224F5E
:101990001D88204B20783A789D42E8D00723451CCB
:1019A0001D40954209D00A2250431C4B1818FEF7DF
:1019B0000FFD2570FFF720FDD9E7FFF79BF80A22FE
:1019C0003100174826703E70FEF756FDCFE778438A
:1019D000124E3018FFF7BCFD002817D02B787B4340
:1019E0009A5BF6187088F188B388000409041043E4
:1019F00019433289FFF7C7FB07222B7801331340C5
:101A00002B70054D237828788342E0D10BB0F0BDD0
:101A1000160E0020FFFF0000170E0020C60D00204C
:101A2000BC0D002010B5034B0100186803F087FDC2
:101A300010BDC046000C002010B5034B0100186813
:101A400003F081FD10BDC046000C002010B5024B14
:101A5000186803F07CFD10BD000C0020014B1878C5
:101A60007047C0462C0E002070B50024074D6B88CF
:101A7000A34208D003F02EFE054B1B88C01A6B88CA
:101A800080B298426441200070BDC0462C2B0020DB
:101A90002E0E00200020024B1856C010C0B2704716
:101AA000280E0020024B1878072318407047C046C4
:101AB000280E002010B503F00DFE074B074A1B88C7
:101AC0005288C31A9BB200209A4204D8044B0130BA
:101AD0001B789B08984310BD2A0E00202C2B002059
:101AE000280E0020034B187807231840431E984106
:101AF000C0B27047280E0020014B18787047C046CE
:101B0000300E0020024B1A78104318707047C04600
:101B1000300E0020024A1378834313707047C0468A
:101B2000300E00200022014B1A707047300E00204A
:101B3000014B18787047C046320E0020024B1A78CD
:101B4000104318707047C046320E0020024A1378C6
:101B5000834313707047C046320E00200022014BB1
:101B60001A707047320E0020014B18707047C04643
:101B7000330E00200022014B1A707047330E0020F4
:101B8000014B18707047C046310E00200022014BF7
:101B90001A707047310E0020014B18787047C0460C
:101BA0002D0E0020704710B5FFF7FCFF10BD0000A0
:101BB00010B5044B1A78824202D01870FFF7F3FF79
:101BC00010BDC0462C0E0020704710B5FFF7FCFF7B
:101BD00010BD0000094B70B55B7804005B070BD5A6
:101BE000074D2B78834207D003F074FD054B2C7012
:101BF00018802000FFF7E9FF70BDC046D4290020FF
:101C00002D0E00202E0E002010B5054B1A78002A4C
:101C100005D000201870034B1880FFF7D6FF10BDC9
:101C20002D0E00202E0E002070B51D4B1D4A1E4C9F
:101C300012781B781D4D1343226813702B78002BEC
:101C400014D01B4B5B88002B05D0FFF70DFF00283D
:101C500001D0FFF7D9FF20682A7803781343037077
:101C600003F02EFC002801D0FFF7CEFF2468114BB3
:101C7000114D1A78237829009343104A20001278D6
:101C8000134323700822FEF77BFB002807D00822AD
:101C900021002800FEF79CFB200003F0E3FB70BD51
:101CA000300E0020320E0020000C00202D0E0020EF
:101CB0002C2B0020310E0020200E0020330E00209F
:101CC000704710B5FFF7FCFF10BD00000C4A0B0079
:101CD000527810B5520710D50A4CC1001943217033
:101CE000FFF7A4FA03F0F6FC074B188000202056FB
:101CF000C010C0B2FFF7E5FF10BDFFF797FAFBE792
:101D0000D4290020280E00202A0E0020002010B523
:101D1000034B1870034B1880FFF7D3FF10BDC0466C
:101D2000280E00202A0E0020002310B50A4AD356A0
:101D30001900814348B2107042070CD1DBB28342D4
:101D400009D0064B5B785B0705D5C010C0B2FFF722
:101D500079FAFFF7DBFF10BD280E0020D429002000
:101D60000A4A10B553785907C90F81420CD0012196
:101D7000084003318B43800018435070108800F0F6
:101D80004BF80220FFF7D0FF10BDC046D429002039
:101D9000044B10B5587801234007C00F5840FFF797
:101DA000DFFF10BDD429002010B50120FFF7D8FFB8
:101DB00010BD10B50020FFF7D3FF10BD10B500F027
:101DC000ABFE0020014900F0E3FC10BDFFFF000066
:101DD000002010B500F09DFC034B020000209A4249
:101DE00001D100F095FF10BDE8FE000010B5022003
:101DF00000F082FC10BD10B5032000F07DFC10BD8A
:101E000010B5042000F078FC0400222000F074FCDF
:101E10000002204380B210BD10B50400C1B20420FE
:101E200000F0AAFC2220210A00F0A6FC10BD10B58B
:101E300001000F2000F0B8FC10BD10B50100132008
:101E400000F0B2FC10BD10B50020FFF7F6FF10BD8A
:101E500010B50020FFF7EBFFFFF7F5FF10BD000006
:101E600010B5002400F058FE0020224900F090FC3C
:101E70000021022000F080FC0021032000F07CFC07
:101E80001D4B210004201C7000F076FC0421222050
:101E900000F072FC2100052000F06EFC21000620FD
:101EA00000F06AFCFF21072000F066FC21000820FA
:101EB00000F07AFC21000D2000F05EFC21001820CB
:101EC00000F072FC2100172000F056FC21001C20BD
:101ED00000F06AFC2100202000F05AFC21001820AC
:101EE00000F062FC200000F027FF00F04CFFFFF73D
:101EF000AFFF10BDE8FE00009C0D002010B5FFF7FD
:101F0000AFFF10BD10B501000E2000F035FC10BD74
:101F100010B503F0A7FB024B1860024B186010BD10
:101F2000340E0020380E00207047704710B5FFF7C0
:101F3000FCFF10BD704710B5FFF7FCFF10BD00009F
:101F400010B5074800F05AFA00F0E2FD01F0F4F88D
:101F500001F058FEFFF7E8FFFFF7E8FF10BDC046AD
:101F6000F52300080120704710B5FFF7FBFF10BDF7
:101F70007047704710B5FFF7FBFFFFF7FAFF10BD82
:101F800010B500F05BFAFEF767FC10BD10B503F06A
:101F900065FB00F007FF00F00FFBFFF7F1FFFFF715
:101FA000CAFF10BD10B502F043FF03F023FA02F0A0
:101FB0008FFC02F0E5F910BDF0B587B000F014FB1E
:101FC000364F00243D0020000134E4B22E8800F09A
:101FD0005FFA052C41D002358642F4D0304B1B7895
:101FE0009B0701D500F05AFAFFF7BEFF00240390CB
:101FF000200000F04DFA3B880190984225D0002542
:10200000012643409BB20293029B1E4215D0039BC4
:10201000002B12D004AB1D705C70019B33405A1E24
:10202000934104AA937003F055FB0123184304ABBA
:10203000988004980599FEF745FC01357600EDB2CD
:10204000B6B2102DE0D1019B3B800134E4B20237DF
:10205000052CCDD1FFF75CFF19E08642BED103F01D
:1020600039FB104D04002B88834210D0012304AAB1
:102070005B4213800023937003F02CFB012304AA1E
:102080000343938004980599FEF71CFC2C80FFF70E
:1020900089FFFEF701FC07B0F0BDC0463E0E0020F0
:1020A000480E00203C0E002070B500F0CFF8A423AD
:1020B0000400DB0198423AD2013BFF3B984200D337
:1020C00083E0BE2811D8A72800D971E0A42807D83A
:1020D000032803D8013C63425C41A4B2201C70BDBC
:1020E00080242438E4010443F7E7A023DB0198426D
:1020F00012D28023DB01984262D2E72803D8DF287E
:10210000ECD80024EAE7F822431EFF3B9BB25201C1
:1021100093429B411C40E1E70323C4B2A00818404E
:102120001C40023BA3404001384C1843DBE7AC2382
:10213000DB01984219D2013BFF3BC0B29C4251D215
:10214000013BFF3B9C420CD2013BFF3B9C4240D2F7
:1021500003238408034001209840640104432C4871
:10216000C1E72C4C00020443B8E7B423DB019842DA
:102170000BD2013BFF3B98423DD2274BC3189BB289
:10218000FF2BBED8254C0002ADE78025244BAD01C6
:10219000C3189BB2AB42B4D2C004C00E00F0D6F854
:1021A000F82300025B011840E4B204432C4395E796
:1021B00058341C4BE4B26400E05A8824E401D2E7AE
:1021C00019480440A0200002CDE7C4B224021748F9
:1021D000C9E70323840803400120984064010443B5
:1021E000134880E700F0B2F8F824000264012040B0
:1021F0000134FF34B7E70F25284000F0A7F8240981
:102200002C40240204430B486DE7C046008DFFFFBD
:10221000008CFFFFF4A0000000A8FFFFF0A0FFFF6C
:1022200000A0FFFFAC800008FF0F0000F1A000003D
:10223000008AFFFF0090FFFF07B501AB19800199ED
:1022400001F040FBFFF730FF0EBD0000030010B5AA
:10225000E72808D8DF2808D8312861D00ED82928E7
:1022600055D02A2862D0180010BDE0380728FAD8C7
:10227000FDF7B4FF18F9252A38F93F44392808D06A
:10228000822806D03528EED12F4A12789206EAD558
:1022900006E02D4A1178890750D152781207E2D50D
:1022A0002923E0E70121284802780A4236D1407804
:1022B0000842D8D0E323D206D5D50023D3E7224A5B
:1022C00012785107F6D4CEE71F490A78500733D465
:1022D0004978C90732D410210A4051424A4152423A
:1022E0001340C0E7184A51788907BCD51278E72314
:1022F000E1E7154A12781107F9D4B4E712490A78D0
:1023000010071DD449788907E5D5E423ABE70E4AC9
:102310001178890616D452781207A4D53923A2E77A
:10232000094A127852069ED52A239CE7064A12785B
:10233000520698D5312396E7E22394E7E02392E70B
:10234000E62390E735238EE7D429002030B5042416
:1023500027490A78224205D018230340082B27D1A9
:1023600098432043130708D518240500142325405B
:10237000A54225D1A843C0B218430124497821427F
:1023800006D018230340082B21D19843C0B2204324
:102390008B0708D51821040011230C408C421FD153
:1023A000A043C0B21843D30601D5E723184030BD7F
:1023B00014230340042BD5D1984304331843D1E7A9
:1023C0000340142BD9D19843C0B22043D5E7112341
:1023D0000340012BDCD19843C0B207331843D7E741
:1023E0000340112BDFD19843C0B20843DBE7C0465E
:1023F000D42900200020704700207047014B18604E
:102400007047C046040C002010B5FFF7D7FC10BD84
:1024100010B500F0E9F8142004F047F900F0E4F8F2
:10242000002000F035F8C30703D5FFF7EDFF03F0F8
:1024300063F910BD10B5FFF7EBFF10BD10B5FFF746
:10244000C7FC002801D1FFF759FDFFF7CFFC084B6F
:102450001870FFF7D5FC074B1880FFF7EBFFFFF76D
:10246000CAFCFEF7A4FE044B1878FEF7C4FE10BDAC
:10247000480E0020D42900209D0D0020704710B583
:10248000FFF7FCFF10BD704710B5FFF7FCFF10BD54
:10249000014B4000185A7047E0290020704710B5E2
:1024A000012004F002F910BDC046C046C046C04637
:1024B000C046C046C046C046C046C046C046C046EC
:1024C000704710B5FFF7EBFF10BD10B572B60F23C4
:1024D000020001211A4091409843202204F093FF0A
:1024E00062B610BD70B50B4C250040352068431C0A
:1024F00001D0FFF7EAFF0434AC42F7D1064C2500C7
:1025000014352068431C01D0FFF7DFFF0434AC42D0
:10251000F7D170BDDC8000081C810008F0B5244BA9
:1025200085B002928A00D358040001915A1C39D018
:1025300072B601250F222E001F0013409E409743C4
:1025400031002A003800B6B204F05DFF7E8362B627
:10255000FFF7AAFF0A239C46029B0026DB4315498E
:10256000A44403930A682388501C1DD010000F2731
:10257000B84300693A40D040284215D12E00029A53
:1025800013432380023404316445EBD1019B9A004C
:10259000074BD058431C01D0FFF797FF310001983B
:1025A000FFF78FFF05B0F0BD039A13402380E9E7E2
:1025B000DC8000081C81000810B50A24FFF792FF98
:1025C000220000210648FDF757FF220000210548A0
:1025D000FDF752FF052000F03DF8FEF77BF810BD37
:1025E000E0290020D629002030B585B00A2200213C
:1025F00001A8FDF741FF00240125210001342A0034
:1026000001A86D00E4B2FFF789FFADB2102CF4D140
:102610000E4C0A22200001A9FDF7B2FE05006B1E38
:102620009D41EDB2002804D00A22200001A9FDF747
:10263000CFFE2B0005220649200000F00DF8040013
:10264000FEF74CF8200005B030BDC046D62900206A
:10265000E029002070470000F8B506000D001700C3
:10266000002B06D00123134A137002F0FBFF124B1C
:102670001860104B1C78002C02D100242000F8BDFB
:102680000D4B186803F032F80028F6D07F003A00AE
:1026900031002800FDF774FE002808D03A00310010
:1026A0002800FDF795FE0023024A1370E6E70400B8
:1026B000F9E7C046490E00204C0E002010B503F08B
:1026C0005FFBFFF763FC03F06FFB10BD10B503F079
:1026D00073FBFFF771FC03F08BFB10BD10B502F02C
:1026E0008BFF03F049FBFFF72BFCFFF7E7FFFFF73A
:1026F000EDFFFFF73FFCFAE707B500236A46D37109
:102700006B4601000122D81D00F00AFA6B46D87909
:102710000EBD07B500236A46D3806B460100022236
:10272000981D00F0FDF96B46D8880EBD002307B553
:10273000010001A80422019300F0F2F901980EBDF6
:1027400007B56A460300D01D01700122190000F090
:1027500023FA07BD07B56A460300901D01800222D7
:10276000190000F019FA07BD07B504220191010014
:1027700001A800F011FA07BD70B50D000400FFF7C5
:10278000BBFFA84203D029002000FFF7D9FF70BD8E
:1027900070B50D000400FFF7BCFFA84203D029006C
:1027A0002000FFF7D7FF70BD70B50D000400FFF7E4
:1027B000BDFFA84203D029002000FFF7D5FF70BD60
:1027C00010B500F08DFA094C094800F045FA0948A7
:1027D00000F042FA200000F03FFA074800F03CFA0F
:1027E00000F08EFA054B1C6010BDC04600F00108D9
:1027F00000E0010800E8010800F80108501E002070
:10280000012398430C4B70B5C5182B880B4A002642
:1028100093420FD10A4A0536145AE443A4B29C42AB
:1028200008D000F05DFA2100280000F035FA06001B
:1028300000F066FA300070BD00E00108FFFF000004
:10284000500E002070B50526FFF7BAFF0B4C00F0C4
:1028500047FA0B4D2988002907D0C943200089B2C7
:1028600000F01AFA052800D00600064B02340235A3
:102870009C42EFD100F044FA300070BD00E0010846
:10288000500E002000F00108F8B51B4B1C5A012C1B
:102890000FD80222194D63031D43ADB2184B194ED8
:1028A0009B1A32689A420AD9FFF7CCFF070038001A
:1028B000F8BDE0258038042280B22D02EEE74708FB
:1028C00000F00EFA30682F43831C3900336000F0AB
:1028D000E3F9E02307001B029D4209D1E143306880
:1028E00089B2831C336000F0D7F9052800D00700B7
:1028F00000F006FADBE7C046500E00200080FFFF24
:1029000000000208501E002070B50D4D0D4B2A68C6
:1029100004009A4204D9FFF795FF0400200070BD1F
:1029200000F0DEF9084B2868195D24022143831C5E
:1029300089B22B6000F0B0F9040000F0E1F9EDE796
:10294000501E0020FFFF0108500E0020224BF0B562
:102950001C00224A224811880232C94319800233DE
:102960008242F8D1C0250127ED0113881D498B4211
:1029700008D019B21C48002909DB190A6354023235
:102980008242F2D98020194B40011A60F0BD190033
:102990002940A94213D1911C8C46814219D85188F3
:1029A0006246C94389B20029E9D0114E5B00334029
:1029B000803380267601B342E1D2E152DFE7802105
:1029C000C9010B42DBD10A4E59135B003940334039
:1029D000EFE70A00D6E7C046500E002000E00108ED
:1029E00000F00108FFFF0000FFFF0108501E00205B
:1029F000FE3F000010B5FFF7E3FEFFF7A7FF10BD95
:102A0000802310B55B01040007209C4210D20C4BC0
:102A10000020E2181B5D8B420AD020001170FFF7E6
:102A2000EFFE002804D17F2C03D82000FFF76CFFB5
:102A300010BD012320009843FFF726FFF8E7C046AA
:102A4000500E0020F8B5802304000E0007255B011E
:102A5000984210D2012305001D4018420DD0C9B282
:102A6000FFF7CEFF01340500310AA0B2FFF7C8FF1F
:102A7000052800D005002800F8BD114B1F5AC218C8
:102A8000B942F8D01180FFF7BBFE051EF3D17F2CB1
:102A900011D8FAB2F3B205359A4203D02000FFF7FD
:102AA00033FF05003F0A360AB742E4D00134A0B232
:102AB000FFF72AFFDCE72000FFF7E6FEDAE7C04673
:102AC000500E0020802203005201FF20934201D2C9
:102AD000014AD05C7047C046500E0020084B984217
:102AE0000BD8084BC318C20705D5074A125C1878E3
:102AF0001202104370471888FCE70448FAE7C04602
:102B0000FE0F0000500E0020510E0020FFFF0000BD
:102B100010B5FFF71BFF10BD10B5FFF76BFF10BD21
:102B2000F0B505000C00160085B0002A0BD0CB07CD
:102B300009D54B1C471C88B20193FFF7C3FF2870CF
:102B40003D00019C013E01232F002B400293A3195D
:102B500001960393019B012B0BD873085B00E418CB
:102B6000ED189E4203D0A0B2FFF7ACFF287005B06D
:102B7000F0BD039B019A981A80B2FFF7AFFF029B4A
:102B8000002B05D13880019B0237023B0193E1E71E
:102B90003870000A7870F6E7F7B506000C00151ECD
:102BA0000BD0CB0709D5471C3E004B1C0178A0B2C7
:102BB0000193FFF725FF019C013D2F007319DB1BDB
:102BC000012F0AD86B085B00E418F6189D4203D069
:102BD0003178A0B2FFF714FFF7BD59781A78601961
:102BE000C01B0902114380B2FFF72CFF023FE5E74B
:102BF0000122094B1000D96811420CD1D9689018F4
:102C0000490708D4D9688018C90604D4D868024096
:102C10000520801AC0B270470020024037B504007A
:102C2000FF25FFF7E5FF012811D1002C01D1053068
:102C30003EBD002301930195019B002B03D1FFF7BB
:102C4000D7FF013CEFE7019B013B0193F4E7002C28
:102C5000EED10620ECE7000070B506000C48FFF747
:102C6000DDFF052813D102250A4C094823692B43AF
:102C7000236140236661226913432361FFF7CEFF7E
:102C8000062802D02369AB4323613423E36070BD7F
:102C9000FF0F000000200240F8B5F8231B06C21801
:102CA0000D4B05000E0007209A4214D81830FFF78C
:102CB000B5FF05280FD10127084C1A3023693B4383
:102CC00023612E80FFF7AAFF062802D02369BB43A9
:102CD00023613423E360F8BDFEFF070000200240BB
:102CE000044B1A69120603D5034A5A60034A5A6014
:102CF0007047C0460020024023016745AB89EFCDF5
:102D00008023024A11690B4313617047002002407F
:102D100010B52320FFF7F0FCA52801D0002010BD3E
:102D20002420FFF7E9FC6D28F8D14838FFF7E4FCD0
:102D3000AE3843425841F2E710B5A521041E00D138
:102D40005A312320FFF718FD6D21002C00D192315C
:102D50002420FFF711FDAE21002C00D15131252098
:102D6000FFF70AFD10BD704710B52620FFF7C4FC21
:102D700010BD704710B50400FFF7FBFF2620E1B23D
:102D8000FFF7FAFC10BD10B50020FFF7D5FF0020BB
:102D9000FFF7F0FF00F000FD00F0ECFD0120FFF771
:102DA000CBFF10BD10B5FFF7DEFFFFF7DDFFFFF72C
:102DB000E0FFFFF7ADFF002801D1FFF7E4FF10BDF2
:102DC00010B58C78002C1ED0174BC3180F2B22D8AF
:102DD0001238C0B200F0DCFD0024200010BD01203C
:102DE000FEF724FA032202210120FDF765FCF3E738
:102DF0000120FEF727FA032202210120FDF75CFCE7
:102E0000EBE70220F5E7094B9842F1D0084B9842D6
:102E1000F7D00124E1E7054B9842E0D0044B9842FB
:102E2000DBD10220DCE7C046EEA0FFFF105F000010
:102E3000115F0000FF23037070470000F8B5694B75
:102E400004001B680D000078002B0CD0FE2828D150
:102E50006378022B02D9053B022B22D829002000DF
:102E600000F072F91DE0132810D8002810D00138A6
:102E700012280DD8FDF7BCF9111A40515763666648
:102E8000660C0C696D7380939699A700FE28E5D0B7
:102E900029002000FFF7CEFF03E000236370093311
:102EA000A3702900200002F031FFF8BD6378022BE7
:102EB0000DD0032B0ED0012BEAD102F0D3FB030E71
:102EC000A370030CE370030A23716071E9E7FFF755
:102ED0004BFFF4E7444B1B68002BE2D00026A71CF5
:102EE0003000FFF7D5FA0136030AF6B23B7078706E
:102EF0000237052EF4D1D4E76378022BC8D1E278EB
:102F0000A07823791202024360791B041A43000659
:102F1000104300BAFFF72EFFC3E7E278A17860788C
:102F200000F08AFBCFE7637921791B020B435BBA80
:102F3000E278A17860789BB200F094FBB1E700F0F2
:102F40002BFCAEE7FF232370ABE700F0DDFC6070E5
:102F5000A7E700F0DBFC030A6370A070A1E7E1784B
:102F60001C299ED8A07866780002304340BA221D02
:102F700080B200F0CFFC94E71B4B1B68002B00D104
:102F80008FE7E1781C2900D98BE7A07866780002EA
:102F9000304340BA221D80B200F0D6FC81E700F039
:102FA000E9FC7EE700F03EFBD1E7E1781C2900D97F
:102FB00077E7A07866780002304340BA221D80B2DD
:102FC00000F04EFC6DE7E1781C2900D969E7A07894
:102FD00066780002304340BA221D80B200F058FCEF
:102FE0005FE7C046882600200C0C0020002210B5A8
:102FF000064B074C074808495A6101329C60D8606B
:1030000019611833202AF7D110BDC046782300205B
:1030100049350008AD340008C9330008A022F0B5D6
:10302000124D002185B052002800FDF725FAC0227C
:103030000F4C002120005200FDF71EFA002601AFC0
:1030400039002560F0B200F05FFB002806D10822AD
:1030500039002800FDF7BCF93B89A38001360A3509
:103060000C34202EEBD105B0F0BDC046EA2900207B
:10307000741E0020B823DB01984205D1034B1B6866
:103080005A1E93415B4218407047C0460C0C00200A
:10309000F0B500260227254C85B0254AB30001ADC6
:1030A0002900D450F0B200F053FB011E38D12000AB
:1030B00010220830FDF7E0F909222B882380AB7934
:1030C000A370AB88E370EB7923712B7A63716B8803
:1030D000E380AA566B7A002A01DB164A626101225C
:1030E000134200D022723B4202D0227A3A4322722B
:1030F0000422134202D0217A0A4322720822134288
:1031000002D0217A0A4322721022134202D0217A7D
:103110000A4322722022134202D0237A1A432272D7
:1031200001361834202EB8D105B0F0BD782000202B
:10313000F41F00208226002010B5FFF757FFFFF78D
:103140006DFFFFF7A5FF10BD7FB50400202922D138
:1031500040780D281FD8FDF74BF807171F1E1E34A7
:1031600040491E535C666F720822744901A8FDF73E
:103170002FF9202200212000FDF77EF905230822E7
:103180002370201D01A919E084232370833B637001
:103190000023A370E3707FBDE178A3780902C9180A
:1031A000C22349015B009942F5D20A0020329A42BB
:1031B00000D91A002000624B521AC918FDF708F90D
:1031C000E9E72022FF212000FDF756F95D4B1B683F
:1031D00023705D4B1B686370DDE701225A4B1A6058
:1031E0005A4B31321A6002F075FAD4E7554B1B681E
:1031F0002370554B1B686370544B1B68A370CAE760
:10320000E078A378000220222100184300F03AFD64
:10321000C1E7E078A37800021F22611C184300F088
:1032200055FD2070B7E7E078A37800021C22211D2D
:10323000184300F065FDF4E700F0FEFCABE7A07872
:103240000628A8D8FCF7D4FF040E1C3B465A65009C
:10325000202500212A002000FDF70EF92570657059
:10326000A57098E7E57800210A2201A8FDF704F986
:10327000280001A900F024FA20700A22601C81E7CE
:1032800001AD0A22211D2800E678FDF7A1F8288863
:10329000FFF7F0FE28806888FFF7ECFE6880A888BA
:1032A000FFF7E8FEA880E888FFF7E4FE2900E88041
:1032B000300000F017FA2070FFF798FE6BE7E57812
:1032C0000A22002101A8FDF7D7F8280001A900F083
:1032D0001BFAD1E70A22211D01A8E578FDF778F84D
:1032E0006B469889FFF7C6FE6B4601A998812800B6
:1032F00000F01CFA2070FFF791FE4CE7E5780A22F7
:10330000002101A8FDF7B8F8280001A900F020FA73
:10331000B2E70A22211D01A8E578FDF759F86B46AE
:10332000D888FFF7A7FE6B4601A9D880280000F0D7
:1033300021FA2070FFF7ACFE2DE7C046308100086F
:10334000398100080C0C00208826002084260020EB
:103350000C4B13B5188080239B01984202D2FDF7D5
:1033600017F913BD6A460124074B9470138002F0CD
:10337000B1F96B4604439C8000980199FDF7A2FACD
:10338000EFE7C0462A2B0020F0F0FFFF0C4B07B5FB
:10339000188080239B01984202D2FDF70FF907BDE8
:1033A0006A46084B13800023937002F093F90123BF
:1033B0006A460343938000980199FDF783FAEEE78C
:1033C0002A2B0020F0F0FFFF70B5214C06000D0005
:1033D000C8B2210000F074F9011E38D11D4BD88B02
:1033E00000281CD000231C4A04F0F2FB00231B4AD7
:1033F00080185941FA2200239200FCF75FFF03F086
:1034000054F90022164BEDB2585DB27001385A558E
:1034100004281CD8FCF7ECFE18050B0D1800012041
:10342000EDE7608800280FD0FFF7B0FF0FE0A0881D
:10343000F8E7E0880028F7D123886088002B04D0C3
:103440000028F1D11800EFE720880028ECD170BDEA
:10345000782600202C2B002010270000E703000016
:10346000541E002010B50400FFF772FF0C4BD88BE0
:10347000002813D000230B4A002104F0A9FB0023ED
:10348000094A80185941FA2200239200FCF716FFDE
:1034900003F00BF92000FFF779FF10BD0120F7E7DB
:1034A0002C2B002010270000E703000070B5244CEF
:1034B00005000E00C8B2210000F002F900283CD13E
:1034C000AB78204AF6B2012B0FD16879410701D5BC
:1034D000935506E0C107FBD5022393556088002869
:1034E00010D12088002828D00CE0022B23D1687945
:1034F0000233184217D1C10707D4013B9355A08866
:10350000002812D0FFF724FF17E09355E088002829
:10351000F8D12088002811D0FFF7A4FF6088002888
:10352000F0D12088EEE7052393552088002804D0A9
:10353000FFF798FFF5E70623935570BD6088D1E744
:1035400078260020541E002070B50D4C0500C8B22E
:10355000210000F0B5F8002811D12488002C0ED0ED
:10356000AB78032B09D12000FFF77CFF2000FFF789
:1035700079FF2000FFF776FF01E0032BF9D870BD3B
:10358000782600207FB50A4B0400C3180D00FF2BDE
:1035900009D801AE3100C0B200F092F8002802D183
:1035A000308904B070BD2900200000F0C9FBF8E7A5
:1035B00000A9FFFF70B58B78002B1CD1164BC018EB
:1035C00084B2FF2C17D8154DE0B2290000F078F82E
:1035D000002810D1182363431148C3189B78012B8E
:1035E0000BD12B88002B06D06B88002B03D0AB8827
:1035F000EA88134306D0012070BD022BFBD1AB88B3
:10360000002BF8D0182301225C430019437993431F
:10361000437101F065FEEEE700A9FFFF7826002068
:103620007823002004207047520049018918A02205
:10363000504308182730704770B5002403280FD86E
:1036400004290DD80F2A0BD8FFF7EEFF0500FFF76E
:1036500053F80402681CFFF74FF8A4B20443A4B265
:10366000200070BD70B51D0003280DD804290BD8AB
:103670000F2A09D8FFF7D8FF0400290AFFF77CF8C2
:10368000E9B2601CFFF778F870BD0000030010B5C8
:103690000020232B04D8034A9B1898B2FFF72CF87C
:1036A00010BDC046A702000010B5232804D8034B64
:1036B000C01880B2FFF760F810BDC046A702000036
:1036C000030010B508001F2B07D80A2253430449F2
:1036D0005918FFF725FA002010BD01204042FBE7F2
:1036E000CB020000030010B508001F2B07D80A22E8
:1036F000534304495918FFF74FFA002010BD012029
:103700004042FBE7CB020000030010B508001F2B6E
:1037100007D80A22534304495918FFF701FA002039
:1037200010BD01204042FBE70B040000030010B570
:1037300008001F2B07D80A22534304495918FFF7E2
:103740002BFA002010BD01204042FBE70B040000D3
:10375000030010B508001F2B07D80A225343044961
:103760005918FFF7DDF9002010BD01204042FBE7AA
:103770004B050000030010B508001F2B07D80A22D4
:10378000534304495918FFF707FA002010BD0120E0
:103790004042FBE74B050000F0B52F4B8DB01A6897
:1037A0000024019201221A60A02565432B4B0027BB
:1037B000ED1812E0FCF7B4FEF9B20300F2B2E0B289
:1037C000A3420CDD7300EB5A0136FFF74BFF102EBE
:1037D000F0D101372035052F03D00026EAE7012379
:1037E000F2E70134042CDFD100F026FA0024C822CD
:1037F00003AD2C806C80AC80EC802A81E0B2290083
:103800000134FFF76FFF202CF8D10A22002106A80F
:10381000FCF732FE0024E0B206A90134FFF786FF70
:10382000202CF8D10922002109A8FCF725FE01234C
:10383000252100245B4202AA138408335218137016
:10384000E0B209A90134FFF795FF202CF8D1024B13
:10385000019A1A600DB0F0BD0C0C0020FE7D00082E
:10386000F8B52730A027140005005618BF00B44251
:1038700000D1F8BD2B00273BBB4206DA2800FEF73B
:103880003BFF207001350134F1E700232370F9E795
:10389000F8B5A02704001500BF00B84206D23A1AB6
:1038A0008A4203DB27346E18B54200D1F8BD2300ED
:1038B000273BBB4203DA20002978FEF75DFF013584
:1038C0000134F1E737B5030000200D4A01AD14685B
:1038D0002980844208D1697820002A78F02904D10F
:1038E000F02A01D1074B18883EBD032BFCD80429D0
:1038F000FAD80F2AF8D81800FFF79EFEF4E7C04662
:10390000882600202A2B002010207047004870478E
:103910007509000070B5140005005618084BE8182A
:10392000B44200D170BD074B9D4205DCFEF7E4FEBA
:10393000207001340135F1E700232370F9E7C04618
:103940008B0600007409000070B5140005005618BD
:10395000064BE818B44200D170BD054B9D4202DC15
:103960002178FEF709FF01340135F1E78B060000ED
:103970007409000070B58025044C6D012000002101
:103980000134FEF7F9FEAC42F8D170BD8B060000A1
:10399000F0B5050085B00F2800D983E04248FEF756
:1039A000ABFE00287ED18026404C7601002D22D12E
:1039B00003952000FEF7A0FE002303AD661C2870CF
:1039C0006B7098426ED0012867D13000FEF794FEEC
:1039D000A71C6870002865D0431E022B16D838003B
:1039E000FEF78AFEE61CA870002802D0280000F02E
:1039F000A9FB3400DDE7B44254D02000FEF77CFE82
:103A0000002801D1013DEDB20134CFE7431F022B65
:103A100029D8E31C38000193FEF76EFEE61CA8705F
:103A20000028E6D00198FEF767FE261DE870002802
:103A3000DFD002ABD88802AB5880FF231B0298422C
:103A400001D9000280B26B78062B06D0072B07D075
:103A5000052BCED1FFF706FDCBE7FFF779FCC8E7D2
:103A6000FFF794FCC5E73E000428C2D13800FEF7FA
:103A700043FE0500E01C261DFEF73EFE002D11D082
:103A800000280FD0FF2301385843013D4519013D5F
:103A9000AFD30A2002F009FEF9E73221280000F036
:103AA00007FBA6E705B0F0BDFF0F00008B06000086
:103AB00013B50800032A24D90623134A1178527833
:103AC000CC070B40E40F234308240C40234310246D
:103AD0000C40234320240C40234340240C40C909BC
:103AE000C90123430B43D1079207C90DD20F0B43E2
:103AF0005202134301A904220193FCF769FC002040
:103B000016BD01204042FBE7D42900200300080035
:103B100011005A8810B58A4204D85968FCF758FC3D
:103B2000002010BD01204042FBE7000013B5032A2E
:103B300037D9042201A8FCF74BFCFCF7DBFF01217D
:103B4000019A194B50081400084088400C4020434B
:103B500094080C40A4002043D4080C40E400204307
:103B600014090C402401204354090C4064012043F3
:103B700094090C40A4012043D4090C40E4012043E3
:103B8000140A520A0C4011401A88240249022043A8
:103B9000920A0843920210431880FEF73DF9002074
:103BA00016BD01204042FBE7D429002010B5024B8E
:103BB000188800F029FC10BD2C2B002070B50024C3
:103BC000A5B22800FFF762FD054B195D884202D0BF
:103BD0002800FFF769FD0134242CF1D170BDC046E7
:103BE0002C2B002010B54388934207D81A00406858
:103BF000FCF7EEFBFFF7E2FF002010BD0120404282
:103C0000FBE7000070B50024A0B2FFF73FFD084BB2
:103C100018550134242CF7D10024064D2B69002BB4
:103C200000D09847013414350C2CF7D170BDC04634
:103C30002C2B0020C0820008AF220F4B10B51A8039
:103C40000E4A32215A80C8221A830022D983D9828F
:103C50005A831E3105329A8319840333DA77FFF7CA
:103C6000ADFFFCF747FF8020054BC0001880FEF732
:103C7000D3F8FFF7C7FF10BD2C2B002088130000DE
:103C8000D4290020F0B50D0085B00190FF21280057
:103C90001600FCF7F1FB00200A4C871CB7420FD836
:103CA00002AA911D2388019A0B80934204D9022213
:103CB0002818FCF78DFB3800034B1434A342ECD1D9
:103CC00005B0F0BDC0820008B0830008F8B504005C
:103CD00000231427094D3E005E437019AE5BA642D7
:103CE00005D18368002B06D10120404204E0013356
:103CF0000C2BF0D1F8E79847F8BDC046C082000809
:103D0000F8B5002314270D4C3E005E433519A65B21
:103D1000864205D1EB68002B06D1012464420BE0FA
:103D200001330C2BF0D1F8E728009847041E03D18B
:103D30002B69002B00D098472000F8BDC0820008F6
:103D4000014B188B7047C0462C2B0020024B587F2C
:103D5000012318407047C0462C2B0020024B587F8F
:103D60008007C00F7047C0462C2B0020024B587FA5
:103D70004007C00F7047C0462C2B0020024B587FD5
:103D80000007C00F7047C0462C2B0020014BD88A7B
:103D90007047C0462C2B0020272806D81D2818D88D
:103DA000031F0020192B0ED97047382805D82C285E
:103DB00005D82B2803D00020F6E76428FBD1074B59
:103DC000DB7E9B0802E0054BDB7E1B09012098434C
:103DD000EAE7024BDB7EDB08F8E7C0462C2B00202D
:103DE000024BD87E8006C00F7047C0462C2B0020A7
:103DF000024BD87E4006C00F7047C0462C2B0020D7
:103E000070B505008878002800D1FDE07F4EB542EE
:103E100006D01BD87E4B9D4213D87E4B9D4214D9B1
:103E2000FDF7EEFF7C4C7A4B20809D4226D8794BE3
:103E30009D4213D82088FDF7EFFFFCF75BFE0020C2
:103E400003E0764BEB18082BEAD970BD744B9D420A
:103E5000E6D0744BEB18022BF7D8E1E7724BE81869
:103E6000122832D8FCF7C4F93A3D40494C4F525819
:103E700060696C6F787B7E8187A78D006B4B9D425C
:103E80000CD86B4B9D42D5D96A4BE81807282ED821
:103E9000FCF7AEF9305C5F4674849B9FB54200D15D
:103EA00099E0654BE81883B20A2BC3D80A28C1D819
:103EB000FCF7A8F99900C0FFC0FFC0FFC0FFC0FF1A
:103EC000C0FFC0FF10003E00A10001232278134371
:103ED0002370AFE70823627813432CE00223227893
:103EE000F5E704232278F2E708232278EFE701239D
:103EF0006278F1E702236278EEE710232278E6E7A2
:103F000020232278E3E740232278E0E7FCF7F2FD64
:103F1000802322785B42DAE70C2322789A43D6E7A3
:103F2000032362789A43D7E7012223789343CFE7AC
:103F300008226378934363707CE702222378F5E7D5
:103F400004222378F2E708222378EFE7012263783E
:103F5000F0E702226378EDE710222378E6E72022DB
:103F60002378E3E740222378E0E7FCF7C3FD7F22D4
:103F700023781340ACE70C222378D7E70322637839
:103F8000D8E70122042023785907C90F8A439100FA
:103F900083430B430821D2008B4398E7012108009B
:103FA0006378DA07D20F904302228B430343410028
:103FB00093430B43BFE7FCF79DFD01222378D9090A
:103FC0004A407F21D2010B4081E70120FDF79AFF93
:103FD00030E70020FAE701222378D906C90F8A4387
:103FE00012011021D8E7012108002378DA07D20F47
:103FF00090430200D0E7012263781907C90F8A4372
:104000000821D2008B4367E701201EE7615D0000B5
:10401000155C0000015C0000D429002006A3FFFF0E
:10402000A55D000053A2FFFFFDA3FFFF025D00009E
:10403000F95C000005A3FFFF5BA2FFFFF8B5184B7A
:10404000C1081D5C07231840164B174C5A5C174FCC
:104050000241645C7F5C01231600044107411E405D
:104060001C401F401A4202D0E120FCF78BFC002CC0
:1040700002D0E620FCF786FC2800FCF7FDFC002CB3
:1040800002D0E620FCF7BCFC002E02D0E120FCF7B9
:10409000B7FC002F02D02C20FCF7EEFCF8BDC04688
:1040A000D083000850840008B0830008C083000853
:1040B000F7B5040004270A260191207800283DD096
:1040C000012838D16378012B0ED1A078A51CFCF70C
:1040D000D3FC2C00019D0134002DEED03000013DB9
:1040E00002F0E3FAEDB2F7E7022B04D1A078A51CA9
:1040F000FCF748FCEDE7032B04D1A078A51CFCF7E6
:104100007FFCE6E7042B01D00134E3E700250C4AED
:10411000A3780234D05C611C384206D1002DD9D07E
:10412000300002F0C2FA013DF8E77543303B5D19FB
:1041300063780C00EEE7FFF781FFCBE7F7BDC046E1
:10414000FD7C000810B50021FFF7B2FF10BD000094
:10415000082210B50D4C0220237893432370FDF7FD
:10416000F5FC10222378134204D0934302202370DD
:10417000FDF7C8FC20202378034203D0834323703B
:10418000FDF7C0FCFDF750FD10BDC046100C00202F
:1041900010B50400002902D00220FDF7CFFC8022D8
:1041A000084B9201E3189BB2934206D38022064B40
:1041B0005201E3189BB2934200D2E4B22000FCF714
:1041C000E7F910BD00A0FFFF00C0FFFF8022094BF0
:1041D00010B5C3189BB29201934206D38022064BBE
:1041E0005201C3189BB2934200D2C0B2FCF7E6F969
:1041F00010BDC04600A0FFFF00C0FFFF0F23020953
:104200001A4018400E3B834070B5064D5200545F73
:104210001BB2002902D02343535370BD9C43545317
:10422000FBE7C046982600200F22030904491340EB
:104230005B005B5A1040034118000123184070478F
:1042400098260020F7B5474E1C0033780500464FEE
:10425000009101925B0700D474E03888A84202D034
:10426000002D00D06EE004233178022599430A0026
:1042700031702A40033B294209D13C4B00991B88ED
:10428000CB1A3B499BB209888B4252411300012251
:10429000190011400B00022593403278AA431343C2
:1042A0003370FFF7ABFFFDF727FC284206D0102341
:1042B0003278280013433370FDF72CFCFDF71CFC0B
:1042C0002023284D184205D02A7818001A432A7056
:1042D000FDF720FC2978244E890722003088C90F79
:1042E000FFF756FF019B002B05D1224BD88B0028EE
:1042F0000ED101201AE021003088FFF771FD00285F
:10430000F3D021003088FFF773FD0028EDD1F7BD11
:104310000023194A002103F05BFC0023174A801890
:104320005941FA2200239200FBF7C8FF02F0BDF9C1
:104330002978220089073088C90FFFF747FFFFF768
:1043400007FF0AE02800FFF76FFF220001002800A6
:10435000FFF73CFF3B88AB42F1D0044B009A1A8038
:10436000D5E7C046100C00208C260020B82600207F
:10437000120C00202C2B002010270000E703000067
:1043800010B501240C4BDB7E234214D00B4B1B7861
:104390005B0710D501F09EF9094B0A4A1B88128869
:1043A000C31A9BB201009A4205D8074B2200188815
:1043B000064BFFF747FF10BD2C2B0020100C0020F0
:1043C000B8260020120C00208C2600208E2600200B
:1043D000012010B5040005490B78DA07D20F944389
:1043E000834323430B70FFF7B3FE10BD100C002076
:1043F000012110B5034A13788B431370FFF7A8FE11
:1044000010BDC046100C0020014B18807047C046FC
:10441000120C0020F7B5894B0400DB7E0E00DB0791
:1044200002D401252800FEBD01F054F90190B378B3
:10443000834F002B2DD03B785B0705D50022010070
:10444000804B1000FFF7FEFE7F4B9C4219D07F4B44
:104450009C421BD07E4B9C4201D1FFF7B9FF8022CA
:104460007C4B9201E3189BB2934206D380227A4B95
:104470005201E3189BB2934211D20022774B1A806B
:10448000CFE701233A7813433B70E8E7FFF7B0FF2B
:10449000E5E7E12C38D110223B7893433B703B7821
:1044A000DB07BED531002000FFF776FCB578002889
:1044B00000D1BEE0002D00D1B4E0FDF71DFB0500EA
:1044C000FDF76AFB02220543EDB2954340D000237D
:1044D000150062490B80594BDB7E1D40134237D1DA
:1044E00029002000FFF78AFE320029002000FFF794
:1044F0004FFEFDF751FB02239843C0B2FDF76AFB64
:104500000220FDF711FC8DE7E52C02D120223B783B
:10451000C3E780224F4B9201E3189BB2934206D32C
:1045200080224D4B5201E3189BB29342B7D23B78A5
:104530005B0700D475E731002000FFF70FFC00286F
:1045400000D06EE702003F4B0199FFF77BFE68E762
:104550003C4D0A2231002800FBF73AFF0023AB70E4
:10456000AB803E4B1B889C423CD131002000FFF7C2
:1045700037FC002836D03B789B072CD4384B3100D1
:104580001D88019B5D1B354BADB21888FEF7FAFF05
:10459000854227D2FDF7B0FA0222104206D010233E
:1045A000397810000B433B70FDF7B4FAFDF7A4FA1D
:1045B0002023184205D03A7818001A433A70FDF7C4
:1045C000A9FA3978254B890732001888C90FFFF7F7
:1045D000DFFD002526E7214B31001888FFF708FC96
:1045E0000028CBD1FDF788FA0500FDF7D5FA054381
:1045F0000220022628403D78B54305433D70FDF773
:10460000CBFAB043C0B2FDF7E5FA144B019A1C8017
:10461000134B30001A8004233A7813433B70FDF7A4
:1046200083FBD6E733002A0020000199FFF70AFE3A
:10463000F8E6002D00D020E7F3E6C0462C2B002042
:10464000100C00208E2600201B5C00001C5C00006B
:104650001A5C000000A0FFFF00C0FFFF8C260020B6
:10466000B826002070470000F0B5294F85B03B7890
:10467000002B0AD0274B1D78002301933A78254B55
:10468000AA4204D800223A701A7005B0F0BD0E2478
:104690006C43214E6A1CD2B234191A700092210068
:1046A000062202A8FBF794FEA388002B22D002ABBF
:1046B0001A881A4B9A421DD02289002A1CD160897F
:1046C000984219D00121FFF7CDFF0E235D4300234F
:1046D0007619B380FDF742FA019B002B0AD1200026
:1046E000FCF734FA002805D1F530FF3001F0DDFF8A
:1046F00001230193009DC1E760882388E1880004BD
:104700001843A388090422891943FDF713F9DCE74C
:104710003527002034270020C4260020FFFF00009A
:104720000023084A1380084A1088084A984200D19A
:104730007047D179002901D19171117201339BB277
:104740000C32F3E736270020140C0020741E0020E2
:10475000F0B50E490E4B0C781A78032623000D4D48
:104760009A420FD05F007F5B87420CD10C224243FC
:104770000948801801228271A34203D19B1802329A
:1047800013400B70F0BD01333340E9E7C22600202F
:10479000C3260020BA260020741E0020F0B585B084
:1047A00001908B790C00002B3BD11800204A214945
:1047B00012780392039DDAB295422FD98A891600A6
:1047C000226802921C4A94460022029D57007F5B99
:1047D000002F06D0BE4201D195B2AC460132D2B212
:1047E000F3E7154DAC451FD001256646B54028437B
:1047F000012595402A00C0B2013A824213D10E270A
:104800007B430C4F0222FF18A38838003B810B49E1
:10481000FBF7DEFD019B7B810123E3710198FFF72C
:1048200097FF05B0F0BD8F8001330E31C2E7C0465F
:1048300035270020C4260020FFFF0000F87C000878
:1048400070B50C2503260B4B1C780B4B1B78A34231
:1048500004D1FFF709FFFFF763FF70BD2900074B85
:104860006200D05A064B41430134C918FFF796FF46
:104870003440EAE7C2260020C3260020BA260020E2
:10488000741E0020F7B5002401250368220001935F
:10489000AC462300019E5500AD5B002D0FD00B6888
:1048A0001F00002304E0B54200D164460133DBB2AF
:1048B0005E00F65B002EF6D10132D2B2EAE7002CA0
:1048C00003D09A4200D90800FEBD2000FCE700009A
:1048D000104B70B51B78002B14D00F4C208800288B
:1048E00010D000F0FCFE0D4E338883420AD20C4BF0
:1048F00000251A780B4B1B789A4204D0FFF7A0FFD3
:104900003580258070BDFFF7AFFE2580FFF708FFDB
:10491000F8E7C046160C0020382700203627002074
:10492000C2260020C32600200023074A10B51380AA
:10493000064A1370064B1A78064B1A70FFF7F0FE02
:10494000FFF792FE10BDC04638270020160C00204D
:10495000C3260020C2260020054B10B51A78002A75
:1049600002D0FFF7E1FF10BD01221A70FBE7C0463D
:10497000160C0020F0B58BB0039004918B78019356
:104980009F4B98420AD10024019BA34200D174E0BE
:1049900001229C4B1A7001980BB0F0BD9A4B039A00
:1049A0009A4206D10024019BA34266D0FFF7BCFFC8
:1049B000F1E7964B039A00249A4200D00CE1019B48
:1049C000A3425AD0FFF7C8FFE5E70C23904F00251C
:1049D0003A0063438F4E99596B005B5A002B06D007
:1049E0000398984200D1AFB20135EDB2F4E70293DB
:1049F00097423CD00C226243B21890791A000028EA
:104A000001D1804B1A78049B9B780293002B00D134
:104A100095E0002A00D192E00C2666437D4B2000F1
:104A2000F6183100FFF7B2F9F3790590002B09D1A0
:104A30000122BA40337A13433372774B1A88824289
:104A400000D2188001230C22AB406243714D013B20
:104A5000AD182A7A93420AD1704B188800283BD0AF
:104A600000F03DFE059B834236D20123AB71019BD2
:104A7000029A013413430193A4B2694B1B88A342E9
:104A8000A3D8049B9B78002B00D1A7E0019B002BAF
:104A900000D1A3E000F01EFE604B1880614B1C7833
:104AA000072C14D8621C1A7004990A2207A8FBF775
:104AB0008FFC0E2363435C4C0A22E418200007A9F4
:104AC000FBF786FC01235B426381039BA3810123E7
:104AD000019A5A4001925EE70020544B1D78544BD6
:104AE0001B780593059B9D420AD18642BFD0514B4E
:104AF0006A00D452032301351D404D4B1D70B6E7AB
:104B00004C4B6A00D75A0C235F43424B3100FF18CD
:104B10003800FFF7B7FE00280DD0012383718642CD
:104B2000A5D0424A13789D4205D1874203D1032183
:104B30006B1C0B401370032301351D40D2E70C237F
:104B40006343F618F37902930299337A002917D157
:104B50000131A9400139994208D1002803D101232C
:104B60001340029302E02000FFF7F2FD01210C2226
:104B7000B9406243274B9B181A7A8A431A7276E728
:104B80001A001900581E3A4101400342E7D101239F
:104B90001A42E4D0B388002B19D007AD08222800B0
:104BA000FBF76AFC244B2B8000F094FD0123184393
:104BB000B388A8802B8107980899099AFCF7BAFE58
:104BC0000C226243134B9B180022DA71CEE71900C6
:104BD0002000FFF747FDF3E701944EE7134B1A78E7
:104BE000134B1B789A4202D0FFF72AFE6FE7FFF7BC
:104BF0003BFD0022094B1A80FFF792FD67E7C04694
:104C0000F75C0000160C0020F85C0000F95C000066
:104C1000FFFF0000741E00203627002038270020E8
:104C2000140C002035270020C4260020C2260020B6
:104C3000C3260020BA260020FEFEFFFF234B70B5DE
:104C40000C000125984236D1FCF756FFAA23204AD2
:104C50000340917E294205D04422024055426A41D8
:104C6000524213408A0705D51122024055426A413B
:104C7000524213404A0705D58822024055426A41F4
:104C8000524213400A0705D52222104042425041A9
:104C900040420340A1780F4A00290ED01900481E57
:104CA000814135201170002B00D10C38FCF7BAFE81
:104CB000FCF7BAFF0025280070BD13783520002BC3
:104CC00000D10C38FCF7B8FEF2E7C046165C0000D5
:104CD0002C2B00203A270020F8B50B4F0400386831
:104CE00000F004FDFA23094E094D5B00984205D2FD
:104CF0003A6832602B60074B1C80F8BD00F0B2FCB4
:104D000032233060F6E7C0465027002048270020B5
:104D1000442700204C27002010B502790300002012
:104D20000A420AD19C780130002C06D01B7A21401F
:104D30001B0703D54B1E9941C8B210BD0F2023009D
:104D4000240903400840090923430843181A434231
:104D50005841C0B2F1E70000F8B5244E07003368AF
:104D6000002B3CD00022224B1A80FCF70FFFFCF7EF
:104D700001FFF82233685201DC88611EFF3991423D
:104D800001D21C4A1440E4B225006A1E9541DA683B
:104D9000EDB2002A03D00020196990470540002D8C
:104DA00006D0231FDBB2A02B1AD82000FCF744FE4C
:104DB000114C002F0ED033681A7AD2060AD422780A
:104DC000002A07D018880D4A431E9BB2934201D88F
:104DD000FFF782FFFCF728FF002333602370F8BD44
:104DE000FCF722FF2000FBF70BFEE1E73C27002049
:104DF0004C270020FFE0FFFF40270020AF5D0000B0
:104E0000002010B5024B1870FFF7A6FF10BDC0467A
:104E1000170C0020054B10B51A78002A02D0FFF7B6
:104E2000EFFF10BD01221A70FBE7C046170C0020EF
:104E300070B50A4C2388002B0ED0094E306800F064
:104E400055FC084D2B68984206D32088FBF7A0FB41
:104E50000023238033602B6070BDC0464C270020A8
:104E60004827002044270020F0B58BB003918D78AF
:104E70000600002D13D09F4B984209D09E4B9842BC
:104E80000AD09E4B98420AD1FFF7C4FF00230CE0E2
:104E900001229B4B1A70F9E7FFF7B2FFF6E7984B38
:104EA0001B780193002B04D10123019301980BB0CF
:104EB000F0BD3300E03B9BB20293FCF71DFE070000
:104EC000FCF7CCFD0400FCF767FE029B044327437C
:104ED0007CB2FFB2072B48D807230120334098400B
:104EE000270040B28743FFB2002D01D00443E7B250
:104EF000029B072B02D9002D00D1C7E0039B188825
:104F0000FCF718FA7F4B1B680693002B00D1BDE01D
:104F10000123834008937C4B1B6807937B4B1B88C2
:104F2000099300230593059B069A9B009C58002C2F
:104F300000D1ABE0002F02D1A378002B11D1E37890
:104F4000089A1A420DD00722237A134200D1CAE0F0
:104F5000029A072A18D8002D14D05B0801221340AA
:104F600015D1059B0133DBB2DCE7684B002D00D186
:104F7000AFE01E8000F076FB0022654B1860654BA9
:104F80001A80B5E79B08E9E701221342E9D023889C
:104F900003939E4201D1002DE3D0079B9C42E0D0B9
:104FA0006369002B02D01B78002BDAD03900200077
:104FB000FFF7B2FE0028D4D0039B04959E4201D097
:104FC00000230493039A53425341049A134304D198
:104FD000039A09998A42C4D104930020FFF7BCFECA
:104FE0000122494B1C604C4B1A706079FCF7C8FDDC
:104FF000049B002B09D1039B002B06D02388D8B239
:10500000043BA02B28D8FCF717FDF823E5885B01AB
:105010006A1EFF3A9A4201D2404B1D400027404A87
:105020006B1E9BB29A427F41E368FFB2002B03D014
:105030000120216998470740002F0AD0E088FBF73C
:1050400071FAFCF791FD029B072B08D82800FFF7A7
:1050500043FEFCF7E9FD09E0FBF7D2FCD5E7ECB233
:10506000043DA02D09D82000FCF7DCFC049B002B9C
:1050700000D119E7FCF7D8FD08E7FCF7D5FD64205F
:1050800001F013FB2000FBF77DFCEFE71E4B1868D7
:10509000002800D108E7029B072B09D83900FFF749
:1050A0003BFE002800D0FFE60130FFF755FEFDE68D
:1050B0000388B34205D1002D06D1174B1D70002087
:1050C000F3E7002D00D1EFE6037A9B0600D5EBE66F
:1050D000F5E71A88B24200D00AE71D800C4B1D602C
:1050E0000C4B1D8004E70723029A9A4200D832E74E
:1050F0004DE7C0465F5D0000605D00005E5D000042
:10510000170C0020080C00203C2700204E27002010
:10511000502700204C27002040270020FFE0FFFF01
:10512000AF5D0000F0B585B01D000AAB1B780191A2
:1051300002931400827807002B4B002A12D01C70B7
:1051400000F0C8FA294B188023002033DBB2072B6C
:1051500006D8072201201440A040C0B2FBF798FCFB
:1051600005B0F0BD1E78A64233D1204B188800F060
:10517000B6FA390003900198FEF704FA039B8342C4
:1051800027D22C002034AE4215D033002033DBB2BE
:10519000072B06D8072301201E40B040C0B2FBF702
:1051A0007FFCE3B2072B06D8072301202B40984051
:1051B000C0B2FBF76DFC0298E4B2FBF75DFC072C74
:1051C000CED8072301201D40A840C0B2FBF768FCE1
:1051D000C6E723002033DBB2072BC1D8072201200A
:1051E0001440A040F1E7C046542700205627002075
:1051F000264B13B50C0098420BD8254B98420FD87C
:10520000244B98421AD0244B984237D0234B9842D3
:105210000ED0A078002836D00022214B1A701AE058
:10522000204BC01802280DD8FAF7E2FF161C220006
:1052300026230093BB331A00010008E027230093C4
:10524000BE33F8E72623E02217490093BB33200042
:10525000FFF768FF002016BD2723E42200931349BF
:10526000BE33F4E72623E22200931149BB33EEE775
:105270002723E62200930549BE33E8E72823E522E9
:105280000093273BD8E70120E5E7C046F65C000025
:10529000F25C0000D85C0000D95C0000D75C000024
:1052A000542700200CA3FFFFF35C0000F45C000017
:1052B000F55C0000036910B50400002B01D04169C2
:1052C0009847E078FCF742FC2079FCF723FCFCF7D8
:1052D000ABFC062200212000FBF7CEF810BD000039
:1052E000427910B50400930710D40223134343718D
:1052F000C078FCF723FC2079FCF704FCFCF794FC55
:10530000E368002B02D02000616998470022044B1B
:105310001A806379DB0702D42000FFF7CBFF10BDB2
:105320005827002070B58B780400002B13D00A4B4F
:105330001B88002B0FD083420DD01822DBB25343C1
:105340000649143AC81845792A4342715C52FFF75E
:10535000C7FFFCF703FC70BD58270020782300200E
:10536000F8B5204B0500C318FF2B32D818248A78D3
:10537000C7B2012110007C431B4E0840A419637979
:105380008B4303436371002A25D000F0A3F9174B28
:105390001880A3780133A370FCF7AEFBE070FCF734
:1053A000C7FBE3781843E070FCF7F6FBA3682071B5
:1053B000002B02D0200061699847182302225F4326
:1053C000F619737913405A4253415B421D40084B12
:1053D0001D800120F8BD63799B07FAD52000FFF7F7
:1053E00069FFF6E700A9FFFF782300205A27002075
:1053F000582700207FB5104C2388002B1AD00F4B64
:10540000188800F06CF92688050000210A2201A8FE
:10541000FBF732F8300001A9FEF7B4F8854209D94C
:105420001820237843430648C01843795B0701D40A
:10543000FFF756FF7FBDC046582700205A2700209F
:1054400078230020014B18607047C0465C2700207D
:10545000034B10B51B68181E01D01B68984710BD80
:105460005C270020034B10B51B68002B01D05B6844
:10547000984710BD5C270020064B10B51A88824261
:1054800006D01880044B1B68002B01D0DB689847BE
:1054900010BDC046622700205C270020064B10B5D7
:1054A0001A88824206D01880044B1B68002B01D05A
:1054B0001B69984710BDC046602700205C2700206C
:1054C0000300821C002008339A4200D170471178F3
:1054D000002901D00130C0B20132F5E70300081EF7
:1054E00008D09A1C08331078884204D001329A42BE
:1054F000F9D1002070470120FCE701220023F0B51C
:105500005242851CEC5C5EB28C420BD0571C02D11F
:10551000002C00D132000133062BF3D1531C01D0F3
:1055200080188170F0BD002210B5831C08301C78F3
:105530008C4200D11A7001338342F8D110BD10B5EE
:10554000FFF7DBFF10BD10B5FFF7EDFF10BD10B585
:10555000062200210230FAF78FFF10BD704710B508
:10556000FFF7FCFF10BD0000431E984110B5034B30
:1055700001301870FFF7F3FF10BDC046642700200C
:10558000032010B5024B1870FFF7E9FF10BDC046AD
:105590006427002010B5FFF7E7FF10BD012010B50C
:1055A000024B1870FFF7DBFF10BDC04664270020D8
:1055B00010B5FFF7F3FF10BD70477047704710B587
:1055C000FFF7FCFF10BD704710B5FFF7FCFF10BDE3
:1055D00010B5FFF7F1FF0024FDF706F8FFF7EDFF28
:1055E0002000FCF755FF002804D10134E4B2052C5B
:1055F000F6D110BD0120FCE710B501F0FDF800F078
:105600000BFE10BD10B5FBF704F9AA2001F04DF810
:1056100010BD10B5FCF786FAFCF7A0FAFCF716FAF5
:105620000020FFF729FF0020FFF738FFFBF7F7F80E
:1056300010BD000010B572B601F0EEF8044B054A3B
:10564000186000231360044A136062B610BDC046A0
:1056500070270020682700206C27002010B5FFF776
:10566000E9FF10BD70B572B601F0D6F8124C1349BF
:1056700023680D68124AC01A854209D9E4256D01D4
:105680004019104D5B19236013680F4C1B191360F0
:105690000860146862B6FA2200239200002102F02A
:1056A00097FA0023094A801859410023084AFAF75B
:1056B00005FE201870BDC046702700206827002016
:1056C0006C27002080E3FFFFC09699190F27000088
:1056D0001027000010B5FFF7C5FF80B210BD10B550
:1056E0000400FFF7BFFF001B80B210BD10B504001F
:1056F000FFF7B8FF001B10BD054B064A1A60BFF349
:105700004F8F054B054ADA60BFF34F8FC046FDE768
:10571000FC3F0020EFBEADDE00ED00E00400FA0526
:10572000BFF34F8F034B044ADA60BFF34F8FC0467D
:10573000FDE7C04600ED00E00400FA050A4B0B4A05
:10574000043B196810B591420CD100221A6082F313
:105750001488074B1B6883F3088862B6054B1B68E7
:105760009847FEE710BDC04600400020EFBEADDE0A
:1057700000C8FF1F04C8FF1F7047000010B572B6B5
:10578000024800F083FC62B610BDC046EC0C00205D
:1057900008001900002310B5064C00026360231DA9
:1057A00010431A0000F028FB20606068002800D039
:1057B000200010BD942800207A30084A0178137820
:1057C000022907D1012B01D0062B02D15278044BBC
:1057D0001A707047024A1370FBE7C046DC280020AD
:1057E000CC28002070B506000C0072B60D4D2B7849
:1057F000042B01D062B670BD2B89DB0607D5EB699F
:10580000642158690C3000F059FF431CF2D0064A5D
:10581000032354700421240A28001670947001F0A8
:105820007AFAE7E7D82B0020D628002070B5084C7C
:10583000050023680E00002B02D0200000F092FD2E
:10584000330029002000034A00F084FD70BDC046EB
:10585000B42800205958000870B50C0072B60B78B7
:10586000042B01D062B670BD124D2B78002BF9D0FD
:10587000114B1B78002BF5D00B899B0705D408230F
:10588000012120000D4A01F046FA002328780C4A35
:10589000002102F09DF900230A4A80185941FA229A
:1058A00000239200FAF70AFD21008000FFF7BEFFF7
:1058B000D8E7C046B02800206C0D0020CD2800207D
:1058C00010270000E703000001007F2270B574314B
:1058D0000B7804001A40212A00D073E002005BB26A
:1058E0007532002B26DA107802281DD0032811D03B
:1058F000012800D066E0230078331B78002B05D107
:10590000434AA2660822E266236770BD0023A366AD
:10591000E366F9E7230078331B88002B52D101207E
:105920003C4AE066A266EFE701203B4BE066A366D7
:105930000023E9E713780A2B37D00B2B0ED0092B65
:1059400040D10300022278331B7893433AD1334B82
:10595000C2668366324B01202367D6E703007833A3
:10596000198800291DD1023B1B785A1E9341294AF0
:105970001370294B1A78002A13D072B618780023B6
:10598000284A02F025F90023274A80185941FA22B3
:1059900000239200FAF792FC21008000FFF746FFF7
:1059A00062B60023A366E366D5E7030077331A786F
:1059B000194B1A70002AF4D072B600211878194ACF
:1059C0000023DEE7194B0A889A4218D12200783268
:1059D000537811781B020B4321006068023A77313B
:1059E0004568127820000978A847002801D10020D6
:1059F0008BE74368A3660368E3660023ABE70C4BC1
:105A0000B6331B78002BF2D0200000F01FFB7CE7A0
:105A1000CD2800206C0D0020B0280020DC280020BC
:105A2000B957000810270000E703000081060000B6
:105A3000180C002010B50F24054A11784B1C234088
:105A4000044C24789C4202D0034C1370605410BD67
:105A5000602B0020612B0020502B002070B504002B
:105A6000080005293CD8FAF7C3FB343B0334343C27
:105A700072B6012120001E4A01F0F7F8042120002F
:105A80001C4A01F0F2F81C4D20002B00B4331978A9
:105A90001A4A01F0EAF82B00B53319782000184AA9
:105AA000B63501F0E2F82978002903D02000154A24
:105AB00001F0DBF8144800F0B3FA62B6134B1B7820
:105AC000002B02D00520FFF7B5FF0220FFF7B2FF41
:105AD00006E0FFF7AFFF72B60B4800F07EFA62B641
